:020000040020DA
:10200000287200208D2220008BB3200089B320008D
:1020100089B3200089B3200089B3200000000000AC
:102020000000000000000000000000008FC520003C
:1020300089B3200000000000ADC520003FB420009F
:1020400051B4200057B420005DB4200063B42000D8
:102050000000000045B420004BB4200089B32000EC
:1020600089B3200000000000000000000000000014
:10207000000000000000000089B320000000000004
:10208000000000000000000089B3200089B3200098
:1020900089B3200089B3200089B3200089B32000D0
:1020A00089B3200089B3200089B3200089B32000C0
:1020B00089B3200089B3200089B3200089B32000B0
:1020C00089B3200089B3200089B3200089B32000A0
:1020D00089B32000000000000000000000000000A4
:1020E00000000000000000000000000000000000F0
:1020F0000000000000000000A13B2000B13B2000D8
:1021000000000000000000000000000000000000CF
:1021100000000000000000000000000000000000BF
:1021200000000000000000000000000000000000AF
:10213000000000000000000000000000000000009F
:10214000000000000000000000000000000000008F
:10215000000000000000000000000000000000007F
:10216000000000000000000000000000000000006F
:10217000000000000000000000000000000000005F
:10218000000000000000000000000000000000004F
:10219000000000000000000000000000000000003F
:1021A000000000000000000000000000000000002F
:1021B000000000000000000000000000000000001F
:1021C000000000000000000000000000000000000F
:1021D00000000000000000000000000000000000FF
:1021E00000000000000000000000000000000000EF
:1021F00000000000000000000000000000000000DF
:1022000000000000000000000000000000000000CE
:1022100000000000000000000000000000000000BE
:1022200000000000000000000000000000000000AE
:10223000000000000000000000000000000000009E
:10224000000000000000000000000000000000008E
:10225000000000000000000000000000000000007E
:10226000000000000000000000000000000000006E
:1022700089B32000853A2000A93A20001D312000B2
:10228000113D2000192C200089B3200008B5094B0E
:10229000FF221A600848094A4824E3690849121ACB
:1022A00098470848084AA3690021121A984700F085
:1022B000D5F9FEE7B4200D40404000201542002033
:1022C00040D2200018420020236A002070B5064644
:1022D000194809F0AFF9044688B10120E58B07F0F1
:1022E000F3FD854207D10220A58B07F0EDFD854265
:1022F00001D1204619E0204609F0D9F9EBE70F4853
:1023000009F0E8F90546A8B12146302208F0C0FFDF
:10231000012007F0D9FDE883022007F0D5FD29460A
:10232000A883054809F0A4F928463146BDE8704065
:1023300009F02EB870BD00BF2C4200204C40002098
:102340002DE9F04FABB0259009F025F9002009F0F8
:1023500020F91D90012009F01CF90746062009F01C
:1023600018F90546072009F014F90446A94EAA49B0
:1023700073681D9A1E933368DFF8B8B21F930B6819
:10238000DFF8B492D31AA54A20931368DFF8ACA201
:10239000FB1A2193A24B229218681C932B1ADBF88C
:1023A00000001B93C0EB04081E9BD9F8000023918A
:1023B0001B1A2693DAF800001F9B1B1A0020279394
:1023C00009F0E7F823990860012009F0E2F8229A61
:1023D0001060062009F0DDF81C9B1860072009F04A
:1023E000D8F83368209ACAF800307368CBF8000038
:1023F000C9F800301B9B072043441C93219BDFF846
:1024000040B29E181D9B07EB030909F0C2F88246F3
:10241000062009F0BEF800EB0A03229300F082FBCD
:102420001C9A642303FB02FE1B9A04EB050A5A4321
:10243000B2FBF6F2239203FB08F2B2FBF6F224920F
:102440009BF800209BF801B02992CDF800B0DFF88E
:10245000E0B103FB0AFCDBF80020039742F210779F
:1024600007FB0AFABCFBF9FCBAFBF9FABEFBF6FE65
:102470002890049503FB05F07D43B0FBF9F0B5FB14
:10248000F9F501921D9A03FB1CAA02921E9A05946B
:1024900006921F9ACDF838C00792209ACDF82C806A
:1024A0000892219ACDF83CA009921B9A03FB105583
:1024B0000A92269A03FB04F10C92279A7C430D9210
:1024C000CDF840E01C9A129007FB02FC239AB1FB66
:1024D000F9F114921B9ABCFBF6FC07FB02F007FB18
:1024E00008F7B0FBF6F0B4FBF9F9B7FBF6F6239A60
:1024F00003FB1ECE03FB1200249A169103FB126607
:1025000003FB1191159017911892CDF844E01395A3
:10251000199644482599289A299B01F047FC42487E
:1025200009F088F8044600286CD000F0FBFADFF8C8
:1025300010B1A38BD4F828C01B939BF800309BF8F4
:1025400001B0D4F82CE0E768D4F820A02669D4F8CC
:1025500024906569B4F81E801D90A069CDF800B084
:10256000DFF8CCB01E93DBF80030CDF80C8001937F
:102570001B9BF2190293636805970696CAEB07073F
:10258000C9EB0606049307970896A6682A440244F6
:102590000A950B90CCEB0505CEEB00000C950D9049
:1025A00009961B9B64200E9300FB02F3229D09EB0E
:1025B0000A01B3FBF5F3109342F2107371446144C6
:1025C000511A5A43B2FBF5F24843594311921C9AEF
:1025D0001E9BB0FBF2F0B1FBF2F112901391CDF81B
:1025E0003C8025991D9A114801F0E0FBE3682046E4
:1025F0002362236963626369A362A369E36209F0EA
:1026000056F88FE70A4A1368013313602BB0BDE810
:10261000F08F00BF745E002028420020404500205B
:102620003042002058CD20002C420020F0CD200068
:1026300034420020384200203C4200204445002023
:102640001B6A002010B1012803D07047024805F032
:1026500077BB014805F07ABB40400020F7B500F099
:102660003BFC00F0F5FC00F051FC00F035FA01F005
:102670003DFB08F0BAFF00F0E3FC00F0C7F82020B3
:1026800008F0B1FE02F056F900F012FC002000F054
:102690001DFB012000F01AFB0020484900F0F2FB6E
:1026A00002F07AFA62B6082008F09DFE444808F06D
:1026B000FCFE444808F0F9FE00F0B0F9002002F0FA
:1026C00013FB01F005FA4048002102F0BFF901F0C8
:1026D00073FF08F0B2FE00F045FD00F061FD07F069
:1026E00015FC6846082101F027FB9DF807309DF88E
:1026F0000670364C43EA07276B4603CB20606160C7
:10270000334801F053FB0025615D3248013501F08B
:102710004DFB072D2D4EF7D12F4DF1792F4801F0AC
:1027200045FBEC6A4AF6CD310220A047394603202A
:10273000A0470F210120A047694608226B6B0B20A0
:102740009847274801F032FB264B186808F0ADFE89
:10275000254801F02BFB254B186808F0A6FE2448FD
:1027600001F024FB234B186808F09FFE224A3368CF
:1027700013607368536007F0E3F82048002102F00B
:1027800065F91F48002102F061F91E4B01219B6889
:102790008120984708F0FCFE1B4808F0E0FE00F09E
:1027A0008DFB102008F01FFE00F08EFB02F0DAF81F
:1027B00010F0FF0FF8D101F031FAF5E7554B20008A
:1027C00074CE200080CE2000904000201B6A0020A4
:1027D000A5CE2000C3CE200094CC2000C9CE20007E
:1027E000CFCE2000ECCC2000D6CE200004CD20009F
:1027F000DDCE200020CD2000FC5F002030410020F5
:10280000B0400020ACCB200050CD200008B500F037
:10281000DDF8024B00221A7008BD00BFA657002049
:10282000024A13781843107000F0D8B8A657002059
:10283000034A137823EA0000107000F0CFB800BFFD
:10284000A657002020B1012805D1044B1878704705
:10285000034B186870470020704700BFA75700203F
:1028600020900D4010B5094A0020137801331370F1
:10287000074B197802F0C2F8BDE81040054B064836
:102880001968064A002301F0CDBE00BFA7570020FB
:10289000126A00207045002048450020652820006D
:1028A000812808B52AD0B0F5807F39D0802839D169
:1028B00002F038F81C4B1D4A18701368002023F0F2
:1028C0000803136052F8203C032123F0080342F868
:1028D000203C52F81C3C23F0080342F81C3C52F800
:1028E000183C43F0080342F8183C042200F0BEFBF9
:1028F0000F480021032200F05BFB13E00D4B0E4854
:102900001A6829B142F008021A600123036005E049
:1029100022F008021A600123C0F88030084608BD82
:10292000064B1960012008BD126A002020940D405A
:102930004129200010940D4000E100E07045002086
:1029400008B50F4808F065FEC0B108210C4808F032
:102950004EFE0C4B196861B10B4B00221A700B4BE9
:102960000B481B681BB90B4A01F05CFE01E001F04B
:102970009BFEBDE80840084802F08AB908BD00BFC8
:102980006845002070450020A757002020900D408A
:102990004845002065282000ACCB2000084A136879
:1029A00023F00403136052F8203C43F0040342F880
:1029B000203C044B00221A60034B01221A7070471E
:1029C00020C40D4010C00D40A8570020024A1368D3
:1029D00043F038031360704700C40D40014B18608A
:1029E000704700BFE0C00D40044B1868C0F30720DB
:1029F000030904BF1030C0B2704700BF1C300D4047
:102A0000054B1868C0F3C21001289ABFC0F102003C
:102A100040034FF40040704714300D402DE9F0475B
:102A200088B0FFF7E1FF174B48251C68AB680746E5
:102A300098476B68804698470646FFF7E1FF0546D2
:102A400000F09EFA824600F0A7FA814600F054FAA0
:102A5000B60AC4F34003AD0A04F0010402930690E1
:102A6000009601950394CDF810A0CDF8149041463E
:102A7000C7F3071207F00F03034801F097F908B0F6
:102A8000BDE8F0871C300D40EBCE2000F8B500F01B
:102A900081F80F4B0024D3E900673A46B04238BFB3
:102AA0007A1C15460443C3E90045DFF828E0DEE957
:102AB0000001821B61EB070312196B41CEE9002371
:102AC00001F09AFE18B1BDE8F84001F025BEF8BD4E
:102AD00018420020204200200D4B0E4AE0215A608F
:102AE0000D4A82F82310002207219A6019600B49D1
:102AF0000B6843F001030B60094B1A60042243F892
:102B00000C2C012243F8082C0F22DA62704700BF18
:102B100010E000E047E8010000ED00E008200D4073
:102B20000C000340034BD3E90023100A40EA036082
:102B3000704700BF18420020034BD3E90023D00B9D
:102B400040EA4340704700BF20420020054B186018
:102B50001C3B1A6842F001021A601A68D207FCD4C2
:102B6000704700BF2800034010B5064C236823F0CF
:102B700001032360FFF78AFF236843F0010323600A
:102B800010BD00BF10E000E0014B1868704700BFA7
:102B900074450020074B084A196804331B68126803
:102BA000120442EA0323054A0B43106843EA00601B
:102BB000704700BF40500D4048500D404C500D40F4
:102BC00010B50446104B1B68DB07FBD572B6FFF748
:102BD000E1FF231A062BD8BFC41D0C4B220E1A602E
:102BE000C4F3074243F8042CC4F3072243F8082C2B
:102BF000E2B243F80C2C62B6054B4FF400321C6075
:102C0000044B1A6110BD00BF50500D404C500D4098
:102C10007445002000E100E008B500F0E5FF074B37
:102C200000221A60064B4FF40032C3F89021C3F81B
:102C30009020BDE8084001F02DBF00BF7445002082
:102C400000E100E0064B1B681B075FBF054B1868DF
:102C500080F00800C0F3C00048BF0020704700BFEC
:102C600018C0004018D00040164A38B52C2303FB8A
:102C700000234FF6BF72DC680546236C62649BB28A
:102C800013F050020DD0A369DB0609D40E4B53F8A4
:102C900025301BB12068C0B29847F4E72368F2E7FB
:102CA00038BD13F4D06F0BD04FF440732363FF2370
:102CB0006360E36AE262E362236B43F00103236330
:102CC00038BD00BFBCCB2000784500202DE9F04F77
:102CD000012885B0064600F2C3802C244443624B91
:102CE0001D1995F920A005F12007BAF1000F9946AA
:102CF000C0F2B68095F92230002BC0F2B1805B485B
:102D000000F0E4FF5A4A59F804301168EC680B43AC
:102D1000136051686B6895F921B00B43536091685B
:102D2000AB6895F822800B4393600023C4F8C83F3A
:102D30002B690BEBCA021A6095F823305FFA88FC06
:102D400001939DF80430604619462A7DCDF80CC0E9
:102D5000029300F095F9029BDDF80CC0194660461D
:102D6000082200F083F94FFA88F842494FEA083800
:102D70009DF9042058F80100012303FA02F20243EE
:102D800048F801204FEA0A3A5AF8010003FA0BF218
:102D900002434AF801205022A263A26B95F8240056
:102DA00042F4D062A263022262634FF44072226353
:102DB000AA696262EA69A2627022E26242B2002AF1
:102DC0000C4614DB95F925102B4D41EAC201296010
:102DD0007979120315594FB2BB402B43135100228E
:102DE00000F044F9254A136843F4004313602C2390
:102DF00003FB069393F8265020336FB2002F1CDBA1
:102E000093F807A0EDB25FFA8AF8284641460122FE
:102E10003F0300F035F94FFA8AFA3A59012303FAD1
:102E20000AF313433B5108222846414600F01EF99D
:102E3000124A136843F4804313602C2303FB069665
:102E4000F268136B43F00103136396F828300122F4
:102E5000590903F01F0302FA03F3094A42F821302B
:102E600005B0BDE8F08F00BFBCCB2000452C200092
:102E700028200D4020940D4004410D4030D00040EA
:102E800000E100E001289CBF014B43F8201070478F
:102E900078450020012808D8044B2C2202FB003082
:102EA000C3689A699206FCD419607047BCCB2000B5
:102EB000014B00221A60704700500D40014B082260
:102EC0001A60704700500D40024BA0221A60502239
:102ED0001A60704700500D40014B024A9A607047DB
:102EE00000ED00E000202000024B1868C0F3815084
:102EF000704700BF04200D4008B5FFF7F5FF024BF7
:102F000053F8200008BD00BF14CC200038B5164D82
:102F1000164C2B68032023F040032B602368062106
:102F200023F040032360012200F0A0F82B68012267
:102F300023F080032B602368032023F080032360A9
:102F4000072100F093F80A4A0A4B1A600A4B0B4A11
:102F500019680A40002AF9D11A685101FCD41A688C
:102F60005201FCD538BD00BF20C40D4000C40D4047
:102F70000101020000200D4004200D40000001016D
:102F8000034B04481B6803F007031841704700BF58
:102F900004200D400048E801034B04481B68C3F3BC
:102FA00002231841704700BF04200D400048E8018B
:102FB000024B02EBC10243F822007047804500201B
:102FC000F8B507460E46094D002405EB411547FAB2
:102FD00004F3DB07E1B204D555F824300BB13046D9
:102FE00098470134082CF2D1F8BD00BF804500207D
:102FF0002DE9F04780464FEA0837DFF8409007F1A7
:10300000804505F5592500F0EFFDD5F8186457F80F
:1030100009404FEAC80A24FA0AF446EA0400E4B276
:10302000C0B24146F6B204FA0AF4FFF7C9FFC5F888
:103030001C6447F80940BDE8F08700BF18970D40B1
:1030400002480021802208F023B900BF80450020FB
:10305000034A044B1A60044B803A1A60704700BF61
:1030600080400D400446002000460020034B01EB49
:10307000C0011B6843F82120704700BF04460020B0
:10308000034B01EBC0011B6843F82120704700BFD0
:10309000004600200E2870B50BD1164B164E1C684A
:1030A00044F002051D60356825F03F0343F001033D
:1030B0003360124E336823F0FF031A431143014378
:1030C00031600F4B1B681B06FBD50E4B0E4A1B686D
:1030D00012680E2803F0FC0343EA022308BF064AE5
:1030E0009BB204BF1560034A9BB208BF146018B2BC
:1030F00070BD00BF34000144F486084008700D40E4
:1031000000700D400C700D4010700D40024B18689F
:10311000B0FA80F04009704700B7084010B5074B7F
:103120004FF40042064CC3F89021C3F89020206869
:1031300018B101F0A3FC0023236010BD00E100E002
:1031400008460020064A136843F0020313605368E0
:1031500043F002035360936843F0020393607047A7
:1031600048200D4007B50C4800F0B0FDFFF7EAFF1E
:103170000A4B1A6842F002021A6000220192019A78
:103180000F2A02DC019A0132F8E71A6822F00202E3
:103190001A6003B05DF804FB0D31200054200D408F
:1031A000064A136823F002031360536823F00203F6
:1031B0005360936823F002039360704748200D40EA
:1031C000084B93F90020002A09DB074AED21116022
:1031D0001160E32111601A7862F07F021A700120F9
:1031E000704700BFAC570020388808400B4B1A6866
:1031F0009207FBD41B685B065FBF094BED221A6088
:103200001A60084B1B6813B1054BEF221A60064A7F
:103210000120137803F07F03137070474C86084039
:10322000388808402C860840AC57002038B5A0F1FB
:103230000B04E3B20F2B054613D80B4B1B6813F09E
:103240003F0302D0FFF7D2FF012304EB8404074AB7
:103250000B3414600BB1FFF7B3FF054BE8B21D70E0
:1032600000E0FF2040B238BD488608403C86084058
:103270001342002010B50B4B1B68990603D1FFF7D2
:103280009FFF012300E00023074A1268D207FBD505
:10329000064A1468C4F300140BB1FFF7A7FF2046D9
:1032A00010BD00BF48860840648608404C86084030
:1032B000044B186800F02200A0F120035842584146
:1032C000704700BF4C860840024B186800F0400071
:1032D000704700BF4C86084038B50C46002900F006
:1032E0008880102800F28780DFE800F0090F1A1CA0
:1032F00023394253586F738585787A7C7F003F4B22
:103300001B68003318BF012370E03D4B05221B688A
:1033100003F07F030B3B93FBF2F30B33DBB265E06F
:10332000384B00E0384B1A68043B1B6843EA022321
:103330005CE000230B60354B354A1B6803F001034A
:103340000B601268900644BF43F002030B60314BE0
:103350001B78002B4BD00B6843F0040346E02E4B48
:1033600000201B780860002B41D001230B6038BD82
:103370002A4B1A680023D2B2294901EBC300007915
:10338000904202D851F8333030E001330E2BF3D1A4
:1033900028E0244B1B685BB2493B27E0224B1B68AB
:1033A000990603D1FFF70CFF012300E000231F4A19
:1033B0001268D207FBD51E4A1568493DEDB20BB124
:1033C000FFF714FF6DB2256011E01A4B93F900303E
:1033D0000CE0194B1B7803F07F0307E00B2305E09B
:1033E0001A2303E06FF0170300E007232360002097
:1033F00038BD022038BD012038BD00BF2C860840F2
:103400003C860840CC850840D485084000860840AA
:1034100024860840AB570020124200204086084016
:1034200024CC20005886084048860840648608401E
:1034300060860840AA570020A957002038B50546E5
:103440000C46134B1B689B07FBD4124B93F90030BF
:10345000002B01DBFFF7B4FE0F4BEE221A60691E52
:103460001A60A21C43F8102C2144022000F04AFBF1
:10347000013C0A4924012143022000F055FB0220AF
:1034800000F05CFB022000F071FB002038BD00BFA3
:103490004C860840AC5700203888084002C001C064
:1034A000F8B5214B93F90030002B0DDBFFF772FBD1
:1034B0000446FFF785FEFFF76DFB6FF009031B1B4A
:1034C000C342F8D4012600E00026184B1B7823B92C
:1034D000174D2B68990604D405E0FFF7CBFE0028B2
:1034E000F6D10220F8BD134CE923236004272B6892
:1034F0009A0707D4013F17F0FF0703D00620FFF714
:1035000025FBF4E72B689B0704D4EE23236023609C
:10351000012403E02C6814F00204FBD10EB1FFF784
:1035200065FE2046F8BD00BFAC57002012420020C7
:103530004C86084038880840044B1A6810B142F0A5
:10354000010201E022F001021A6070470086084083
:103550000B280DD1082A0DD161B1074B083111F8A4
:10356000012D43F8042F054A9342F8D100207047FB
:103570000120704702207047A4850840C485084098
:1035800070B5304E336813F0400308D02E4D2B68D1
:10359000DCB21B0605D52D4BED221A601A60002007
:1035A00070BD042CF7D9023C8C42F4DCE4B2032C4D
:1035B00021D001190139032000F0ACFA631E24491F
:1035C0001B010320194300F0AFFA032000F0B6FA04
:1035D000032000F0CBFA032000F0D4FA0028FAD13F
:1035E00029681C4B4939C9B219702B681A4D180645
:1035F0002B70D0D506E02B6803702B6843702B68C6
:103600008370EDE749B289B2042006F055FC2978B1
:10361000032001F07F0106F04FFC104B1B7873B9BB
:1036200033685A060BD5074B1B681B0603D50C489D
:1036300001F024FA03E0054BED221A601A602046DF
:1036400070BD00BF4C860840288808403888084074
:1036500002C0010CAA570020A9570020AB57002038
:10366000684000200B282DE9F84F8A4611D1082A1E
:1036700040F0828000297FD0414B01F1FF3A53F89E
:10368000042D0AF8012F3F4A9342F8D10020BDE8EB
:10369000F88F0C286DD1042A6ED100296CD03A49DC
:1036A0003A480B68DFF8EC9023F007030B600368DF
:1036B000DFF8E4B043F008030360DBF80040D9F81A
:1036C00000200B68DFF8D4C0DFF8D48023F070034B
:1036D0000B60D8F80050DCF80030E4B2120244EA83
:1036E000036392B2DFF8BCE01A43EBB242EA034351
:1036F0000024DEF8002044EA03060B68D5B223F06C
:10370000070343F001030B6003682F4643F00803EF
:103710000360DBF80000D9F800200B68120223F0E8
:10372000700343F010030B60D8F80050DCF8003051
:10373000C1B241EA036392B21A43EBB242EA0343D5
:10374000DEF8002044EA03085FFA82F9FFF722FA64
:10375000B6EB080667EB0907F903054641EA56414F
:10376000F0030B4A002307F0AFF9281ACAF800004B
:103770008CE70120BDE8F88F0220BDE8F88F00BF7C
:10378000C8850840A885084010880840048808407B
:103790000048E8011888084014880840208808403C
:1037A000248808401C880840214B1870002834D019
:1037B000204B1B681B03FBD51F4B1A6842F002020B
:1037C0001A601A6842F001021A601A681A49500712
:1037D000FBD50A6822F001020A601968164A4907F7
:1037E000FBD4116841F002011160116841F0010140
:1037F00011601A685207FCD5104A136823F00403BD
:103800001360D2F8A83123F00403C2F8A8310C4B9E
:103810004FF40052C3F890207047084A136843F0F1
:1038200004031360064B4FF400521A61704700BF47
:10383000AB57002004200D40048808408C860840C7
:1038400000E100E010B50C4607285CD8DFE800F086
:10385000040F1B1F263C4256012903D1FFF7B0FC81
:10386000002010BD002950D1FFF7C0FCF8E7A1F1FE
:103870000B030F2B49D8C8B2FFF7D8FC431C0CBF71
:103880000320002010BD8CB2E2B2214B02E08CB2CA
:10389000204BE2B2240A1A605C60E1E731F00703D2
:1038A00033D101F00100FFF747FE1B4B14F0020F6C
:1038B0001A68C4F3800014BF42F0200222F02002F4
:1038C0001A60FFF771FFCBE731F001001DD1134BF8
:1038D000197010BD01F118031F2B16D80D231049C4
:1038E000DA0051F83300844204DC8B181A790D4B4E
:1038F0001A60B5E713F1FF33F1D2B1E7CCB20A4B4E
:1039000049341C60ACE7012010BD022010BD00BF8F
:10391000C8850840D085084024860840124200200F
:1039200024CC20004086084058860840F8B5294F2E
:103930003D7815F001054BD1274B01241C605C60DC
:103940009C60A3F59323A3F51473F8221A6009224F
:10395000C3F89021152270331A6003F59B230B22C4
:1039600003F59E731A60A3F59B23A3F5F073402221
:103970001A601A687F2642F020021A60D52243F8A6
:103980001C5CDE62DA61154B1878FFF74FFC144BB4
:103990004FF480421E60134B02201A6100F0DAF8E7
:1039A0001149022000F0B6F8032000F0D3F80E49C8
:1039B000032000F0A7F80D4B1878FFF7F5FE0C4830
:1039C000294601F043F83B78204623433B70F8BD7D
:1039D0000020F8BDAC570020A8200D401342002065
:1039E0009486084000E100E028880840AB5700209A
:1039F0006840002038B503880446CBB140F203424A
:103A0000934203D000230380032038BD194B18785C
:103A10001A4628B11B7873B1174B1B7858060AD584
:103A2000822908D1137843B1134B1A78520614D463
:103A300040F203432380012038BD06F0E3F906F08D
:103A400077F98021FFF79CFD0028EDDD80B206F0BC
:103A500053F90A4B1B699847E6E700221A70084B96
:103A60001D68FFF7C3FBFFF761FFAB06E0D0FFF770
:103A7000A7FBDDE7AB570020AC57002020CD20008E
:103A80004886084008B5054B1B7813B9044800F078
:103A9000F5FF044B00221A6008BD00BFAB570020A1
:103AA0006840002034880840064B07481A68042AFA
:103AB0001FBF06490A7842F040020A7000221A60CD
:103AC00000F0DCBF2C88084068400020AC57002084
:103AD00010B5094C40222046002107F0D9FB074BC6
:103AE00001221A605C60064B4FF480425A604FF42A
:103AF00000425A6010BD00BF0040002004F00F409B
:103B000000E100E003289EBF014B000119507047FF
:103B10000040002003289EBF024B03EB00104160D1
:103B2000704700BF0040002003289EBF024B03EBFC
:103B300000108160704700BF0040002003289FBF35
:103B4000034901230A6883409CBF13430B607047FD
:103B500028F00F4003289FBF034901230A688340D0
:103B60009CBF13430B60704720F00F4003289FBF9A
:103B7000034901230A6883409CBF13430B607047CD
:103B800014F00F4003289FBF044B03EB0010806824
:103B900000F0070088BF0020704700BF00400020F1
:103BA000024B4FF0FF321A60704700BF04F50F4020
:103BB000014B01221A6070474CF00F40094B1A6804
:103BC00012F4801F1A46F9D1043B196821F48031A0
:103BD00019601168C903FCD41A6842F400321A60F3
:103BE000704700BF04200D4010B50A4B1A681C46F0
:103BF00012F0030F0CD0084B1A685101FBD41A685D
:103C00005201FCD5FEF7B0FFFFF7D8FF0023236079
:103C100010BD00BF58200D4004200D4038B5254B85
:103C20001C6814F03F0413D1234B53F8243023B104
:103C3000984768B10134052CF6D1204D2B783BB163
:103C4000FEF7A2FF0446FEF7A5FF201A092801D8B7
:103C500030BF38BD002CFBD0194B1A6822F400325B
:103C60001A60184A1168C902FBD4196841F48031FE
:103C700019601368DB03FCD5FEF78CFF201A0928B6
:103C800003D8BDE83840FFF799BF63280E4C02D92E
:103C90002B78022B00D00123236000F0A5FE20B179
:103CA000FFF78CFF0023236038BDFEF76DFF00286F
:103CB000CED1F5E7488608400C460020AD570020DD
:103CC00000200D4004200D4058200D400023064ADE
:103CD00052F82310814206D011B942F823007047F0
:103CE0000133052BF3D170470C460020054B002211
:103CF0001A60054A136943F004031361034B02225F
:103D00001A70704758200D4000ED00E0AD570020BC
:103D100010B5074B4FF48032064CC3F89021C3F81E
:103D20009020206818B100F0A9FE0023236010BD88
:103D300000E100E02046002030B5184B1A78431E01
:103D40003AB9174A1278122A03D1164A12784B2A26
:103D500003D001F52011273117E04A0802F1281499
:103D6000B4F1281F04D014F8015D03F8015FF7E7F0
:103D700001F5201127310023934205DA11F801598A
:103D80008418E5540133F7E730BD074A914204D067
:103D900011F8012903F8012FF7E730BD2B002800A7
:103DA0002A00280029002800270028000FB407B5A2
:103DB00004AA52F8041B0448019200F039F803B039
:103DC0005DF804EB04B07047784000200EB43FB5B6
:103DD000094B07AA52F8041B0190049304A801ABF5
:103DE0000392059300F024F8019B00221A7006B09C
:103DF0005DF804EB03B0704749B5200070B5054687
:103E00000C46102C07D92B6868680849102298477F
:103E100050B9103CF5E734B12B6868682246BDE81C
:103E2000704002491847204670BD00BF1BD02000DB
:103E30002DE9F04F80468FB0069107920026069B31
:103E40001B78002B00F05F83069B1C4613F8012BA8
:103E50001AB9069B9C4203D10FE0252AF5D1F8E759
:103E6000069BD8F80400E51A0699D8F800302A46CF
:103E70009847002840F02A832E442378002B00F036
:103E800042836378611C002B00F03D8300240A46C6
:103E900011F8013B2B2B11D006D8202B11D0232B4E
:103EA00012D144F00804F2E72D2B04D0302B0BD1B3
:103EB00044F01004EBE744F00104E8E744F00604A2
:103EC000E5E744F00204E2E7A3F1310108290DD847
:103ED000134600251A4613F8011BA1F130000928EA
:103EE00011D80A2202FB0515303DF3E72A2B09D130
:103EF000079B01321D68191D002D0791B8BF44F0C2
:103F0000010400E0002513782E2B1CD15178531C9E
:103F1000A1F1300009280ED8194600270A780B466F
:103F2000A2F13000092801F101010FD80A2303FB97
:103F30000727303FF2E72A2906D1931C079A111D63
:103F40000791176802E013464FF0FF371A786C2A82
:103F500009D15A786C2A02D144F080040AE0013376
:103F600044F060040BE0682A09D15A78682A03D12A
:103F700044F02004023302E0013344F040041A7894
:103F8000642A3CD01FD8462A48D00DD8252A5AD0BA
:103F900003D8002A00F0B78257E0412A4AD0452AC8
:103FA00053D144F4424450E0582A31D004D8472A2F
:103FB0004BD144F4A13448E0612A38D0632A44D17B
:103FC00044F4A06441E06E2A3AD007D8662A22D091
:103FD00027D3672A28D0692A11D036E0732A2CD03B
:103FE00006D86F2A11D0702A2FD144F440742CE0E7
:103FF000752A07D0782A28D144F4C85425E044F41F
:10400000245422E044F410641FE044F488541CE07B
:1040100044F4B24419E044F4007416E044F48444D7
:1040200013E044F4024410E044F481340DE044F41D
:10403000C1340AE044F4E13407E044F4806404E06D
:1040400044F4E06401E044F4C0640133069304F4F2
:10405000E063B3F5806F00F0AA8116D8B3F5807FD6
:104060002BD0B3F5407F7FF4EAAE079BA04914F450
:10407000804F03F104029F4818BF08460DF1330139
:1040800007920F461A680023C5E1B3F5C06F08D048
:10409000B3F5E06F00F03182B3F5A06F7FF4CFAEDF
:1040A00000E2D8F80030D8F804009349012298477C
:1040B000002840F00B820136C1E6002FACBF24F08F
:1040C0001004012714F40053039304F0E00337D0E5
:1040D000402B17D008D8DBB1202B2AD1079B1A1D03
:1040E000079293F9002017E0602B11D0802B20D18C
:1040F000079B073323F0070303F108020792D3E974
:1041000000230AE0079B1A1D0792B3F9002003E081
:10411000079B1A1D07921A68D317002A73F1000132
:1041200009DA524263EB4303CDE900234FF0010962
:1041300033E000220023CDE900234FF000092CE0FA
:10414000402B16D007D8CBB1202B20D1079B1A1DAE
:1041500007921A78EEE7602B10D0802B17D1079BBF
:10416000073323F0070303F108020792D3E9002382
:10417000E1E7079B1A1D07921A88DBE7079B0021DE
:104180001A1D07921B681846CDE90001D5E70022E9
:104190000023CDE900234FF0000904F4C053B3F528
:1041A000805F0CD0B3F5C05F33D0B3F5006F4FD153
:1041B000DDE900230DF1360ACDE9042304E0DDE951
:1041C00000230DF1360A15E0DDE9042313433AD04C
:1041D000DDE904010A22002306F076FCDDE9040192
:1041E00030320AF8012D00230A2206F06DFCCDE9D9
:1041F0000401E9E752EA030125D002F0070130315A
:104200000AF8011DD10841EA4371D8080A4603465D
:10421000F0E7384B14F4804F0DF1360A344908BFEB
:104220001946DDE9002352EA03000CD002F00F002A
:10423000085C4FEA131E0AF8010D100940EA0370EA
:1042400002467346EFE70DF1360BCAEB0B0B03E0AA
:104250000DF1360A4FF0000B41F6080241F2080357
:104260005F4502EA04028CBFCBEB070700279A42A6
:1042700002D1002F08BF012741F608018A4207EB4F
:104280000B030DD1DDE9000150EA010208D01B4902
:1042900014F4804F1A4A4FF0020C18BF0A4602E08D
:1042A0004FF0000C62460399A1B1B9F1000F0AD199
:1042B00004F0060102290AD00629124904BF4FF072
:1042C000010C0A4606E04FF0010C0F4A02E00F4ACB
:1042D0004FF0010C63449D428CBFED1A002514F091
:1042E000010922D1E30613D52F444D461DE000BF3E
:1042F000E6CF2000F7CF200019D020000BD02000FF
:1043000008D0200010D020000ED02000DBCE2000EE
:1043100040462946CDF80CC00092FFF76FFD009A89
:10432000DDF80CC0002840F0D180BCF1000F0DD0AA
:104330001146D8F800306246D8F80400CDF800C025
:104340009847DDF800C0002840F0C0803C465E443D
:10435000102CD8F800300DD9D8F804006C49102280
:10436000CDF800C09847002840F0B080103CDDF840
:1043700000C0EDE75CB1D8F8040065492246CDF8ED
:1043800000C09847DDF800C0002840F09F80D8F8B2
:104390000030D8F8040051465A4666449847002831
:1043A00040F094803E44B9F1000F79D073E0079B50
:1043B000D3F800A01A1D0792BAF1000F09D0534696
:1043C000994699F800200133002AF9D1CAEB09096E
:1043D00003E0DFF840A14FF00609002F02DBB945EA
:1043E00028BFB9464D458CBFC9EB0505002514F023
:1043F000010405D140462946FFF700FD002865D19C
:10440000D8F80030D8F8040051464A4698470028AA
:104410005CD14E443EE052EA030E0ED002F00F0E85
:1044200010F80EE04FEA131C01F801ED4FEA121EDE
:104430004EEA037E72466346EDE70B467F1A01BFE4
:104440003022012701F1FF3301F8012C03377822D4
:10445000BD4203F8012C4FF0300203F8022C88BF54
:10446000ED1B4FF0230298BF002514F00104A3F1C7
:10447000030903F8032C04D140462946FFF7BEFC8C
:1044800020BBD8F80030D8F8040049463A4698478F
:10449000E0B93E4424B140462946FFF7AFFCA8B935
:1044A0002E44CCE4079B012D03F104021B688CBF52
:1044B00005F1FF35002514F0010407928DF8203036
:1044C00008D140462946FFF799FC10B14FF0FF3064
:1044D0001AE02E44D8F80030D8F8040008A90122C8
:1044E00098470028F2D16F1C2CB140462946FFF7AF
:1044F00085FC0028EAD13E44A1E4079B1A1D1B68F5
:1045000007921E609BE430460FB0BDE8F08F00BFFD
:10451000D6CF200012D0200010B50446FEF70CFBC9
:1045200094E80C001344C01A024B98428CBF002040
:10453000012010BDFEFFFF7FF8B503880646154633
:104540002BB14A2B15D0002303800320F8BD174858
:1045500007F070F804462CB1201DA16807F01CF884
:104560002468F8E7124B01221A704A233380012095
:10457000F8BD8829FBD10D4807F05CF80446002CF3
:10458000F3D0231D9D420ED10848214607F05CF868
:10459000084B62691F681A60A2691D460AB1E0698A
:1045A00090472F60E1E72468E9E700BF2446002038
:1045B000AE5700203046002010B5064B00240648B8
:1045C0001C7007F034F82146BDE81040034800F0A5
:1045D0003DBA00BFAE570020244600208040002096
:1045E00070B50446E3610B4B049D1B786561A261C5
:1045F00043B1094D094B2E68201D2B6006F0CCFFFE
:104600002E6000E0A1602146BDE87040044807F03C
:104610002FB800BFAE570020304600208040002059
:104620002446002013B5034C24680094FFF7D8FFFC
:1046300002B010BD3046002070B5094B05461B780E
:104640003BB1084C084B26680430236006F0ADFFF0
:1046500026602946BDE87040044807F009B800BF4D
:10466000AE57002030460020804000202446002025
:1046700070B5094B05461B783BB1084C084B2668C2
:104680000430236006F09AFF26602946BDE870409A
:10469000044806F0EDBF00BFAE57002030460020B2
:1046A000804000202446002010B5084B04461B78AB
:1046B0001BB1043000F0A8F801E0C360036121469B
:1046C000BDE81040024806F0BFBF00BFAE57002053
:1046D0002446002010B50E4C236813B90D4A136010
:1046E00010BDFEF71FFA216891E80C001A44131A56
:1046F0008A6842B192E812002144091A8B4228BF0D
:104700000B469268F5E71844024B186010BD00BFD5
:10471000284600202C460020014800F0AFB900BF19
:1047200090400020F8B5038805462BB1592B09D0DD
:10473000002303800320F8BD1E4A136059232B80F9
:104740000120F8BD872920D08229F7D1194F0026F2
:104750003C68002CF2D0204606F05BFF90B1E06888
:104760008821224600F04AF950B9E060A3680EB1F2
:10477000B36000E03B600023A360FFF7ABFFE5E719
:10478000FFF7CAFF2646A468E3E70A490B680BB99E
:104790000B60D3E7D868904201D19B68F7E70B60C4
:1047A00099680029CAD0C86890420ABF89680B4638
:1047B0009960F5E72846002010B50446FFF7ACFFE6
:1047C000E3680B4A4BB113683BB1A34203D1094ADA
:1047D0001268DA6007E09B68F6E7064B1B68E36047
:1047E00013681460A360BDE81040FFF773BF00BFFB
:1047F0002846002030460020024B1868003018BFC1
:10480000012070472846002010B50B4A0446136863
:10481000984206D18368136008E09A68A24203D0E8
:104820001346002BF9D103E0A2689A60FFF752FF0C
:104830000023A360E36010BD2846002038B58368DC
:1048400004460D469BB10A4804600220A07304F19F
:104850000C0098470238012801D9832D05D1204644
:104860002146BDE8384000F005B80123A37338BDE8
:10487000304600202DE9F8431C4A04461568894655
:104880002B4690461A4E3768A34204D00BB11B68E2
:10489000FAE7BDE8F88334B3A37BABB10023A3737D
:1048A00045B1AC4204D028468721224606F097FE47
:1048B0002D68F5E7A3683BB14C4505D0346004F1A1
:1048C0000C0083212A469847D8F800309C4203D137
:1048D0002268064B05E0134623B11A68A242FAD1BA
:1048E00022681A603760BDE8F88300BF34460020B4
:1048F0003046002010B5094B00221A70084B1C6886
:104900005CB1E37B3BB101230022A373E273204639
:104910008221FFF793FF2468F2E710BDB157002012
:1049200034460020024B1878421C1A70704700BFB2
:10493000B2570020064B8A221A70064A00231370D1
:10494000054A1370054A1360054A1360704700BF9B
:10495000B2570020AF570020B05700203446002047
:10496000304600202DE9F0411A4D2B780BB1FFF7AE
:10497000C1FF194C22783AB3184E0C213378184FE6
:104980005943781817F8018001334768806803F0AD
:104990001F03013A3370227068B9124B1E689EB132
:1049A0002B780BB1FFF7A6FF304641463A4606F09A
:1049B00016FE3668F3E7B8F1810F04BF0123837355
:1049C00041463A4606F00BFE2B7820781844BDE8A5
:1049D000F08100BFB1570020B0570020AF57002032
:1049E0003846002034460020024A034B10781B78DA
:1049F00018447047B0570020B1570020F0B50B4E57
:104A00003378202B0FD00A4C0C252478094F1C44F6
:104A100004F01F046C4301333D19A86039556A60E6
:104A200033700020F0BD0120F0BD00BFB057002062
:104A3000AF5700203846002038B5034C256806F0F3
:104A4000CEFD256038BD00BF3046002010B50A46B7
:104A500009490C68234683420DD00BB11B68FAE765
:104A600048B1046008600121817383818121BDE820
:104A70001040FFF7E1BF10BD3446002038B1837B02
:104A8000013B012B9FBF024A0123C3731370704780
:104A9000B157002010B5084C206858B1002323609E
:104AA000816843689847236823B1BDE810401868BF
:104AB000FEF786B810BD00BFB847002038B505889E
:104AC0000446672D09D0792D2ED0002D32D1FFF765
:104AD00029FF1B4B18701B4B1D601B4806F05BFE2B
:104AE000431C01D167231DE00A28164B07D01A6822
:104AF0007E2AF2DC511C1960144B9854EDE71968BA
:104B000000254A1C1A60114A0D4B55542846197845
:104B1000FFF774FF0E4B852118682A46FFF76EFFDA
:104B200020B97923238009E0852907D1054B00228C
:104B30001A60D2E700230380032038BD012038BD6E
:104B4000176A0020C4470020BC47002034580020CA
:104B5000304600200D2810B5014615D00B4C2378A7
:104B60002BB90B4806F003FE48B9012306E00A28DA
:104B700005D1074806F0FBFD08B100232370054866
:104B8000FFF77CFF012010BD002010BD335800202E
:104B9000BC470020A040002008B5054805498022F8
:104BA00006F0DEFDBDE8084003480021FFF74EBFD8
:104BB000BC470020B3570020A040002070B50588F6
:104BC0000446772D30D07E2D3FD0002D4DD1FFF7FC
:104BD000A9FE294B1870294B1D601D462B68284AD9
:104BE000264E52F823204AB126480021C15493682A
:104BF00080209847336801333360EFE7224A13700F
:104C0000772320E01F4AD256002A12DB1B4A136882
:104C100001331360194B1C4A1B6812789342F1DB75
:104C20001A4B1B68002BEBD0184A00231360134A61
:104C3000EFE7114A00201178114A52F82320FFF7BC
:104C4000DDFE30B97E23238013E00B4B1B788B42B3
:104C50000FD10A4B0B491A688B5C03F07F038B540E
:104C60000A4A136801331360D0E70023038003204E
:104C700070BD012070BD00BF186A0020CC47002025
:104C800058400020136A0020B4580020C847002074
:104C9000094B1A780023934204DA084951F823108B
:104CA000814207D106490748CA5C62F07F02CA54B4
:104CB000FFF7E4BE0133EEE7B4580020584000206F
:104CC000136A0020B0400020054A136843F0040333
:104CD0001360044B1B68906943EA002080B2704760
:104CE00000700D4014700D40174A136823F00C0338
:104CF0001360164B01221A601A68012AFCD1144B6A
:104D000008221A60E322C3F8142203F5057319463A
:104D1000104B1B68DB07FBD5102000230E4A01381F
:104D2000126802F0010243EA02034FEA43039BB216
:104D3000F4D1002BF0D0094A180A03F0FE031060EA
:104D40001360EF230B60704700700D40A8200D40EA
:104D500024860840648608409C86084014700D40F4
:104D60002DE9FF411F4C204D04F108030FCB8DE8C6
:104D70000F0029786F4694F80780A1B13A23A371F8
:104D80001A4B1A88521A92B21A80A2F128031812EA
:104D90002C312071214404F12C002C3A637106F06F
:104DA00013FA00232B70124806F044FC064690B11B
:104DB000D6F804C0BCF1000F09D00C4B2A781B8830
:104DC00038322C3B3846414622449BB2E0473046BD
:104DD00006F06DFCEAE7054B2870188004B0BDE8CA
:104DE000F08100BF04600020CB580020F05F00205D
:104DF000D0470020F8B52A4B2A4C1B7904F118063D
:104E0000E371237E04F10805FF2B08D195E80F001C
:104E100086E80F002846314600F0BEFA1BE02F4618
:104E2000B646214A3B4603CB7345106051601F468E
:104E300002F10802F6D196E80F0085E80F001A4B40
:104E40001A4D03F110062A4618685968083303C240
:104E5000B3421546F7D1164D297899B13A23A3717B
:104E6000144B1A88521A92B21A80A2F1280318120F
:104E70002C3120716371104821442C3A06F0A4F9BA
:104E800000232B702B7881222833E518E25400236D
:104E90006B706B8006F0FFFCC0436880F8BD00BFFC
:104EA000845E002004600020245100201C6000204B
:104EB000CB580020F05F00203060002038B5044659
:104EC0000B480D4606F0B6FB78B10379A34209D131
:104ED0004379AB4204D183683BB19847002038BD89
:104EE000FF2BF8D006F0E3FBEEE7012038BD00BF52
:104EF000D44700200146014806F0BABBD447002041
:104F00002DE9F74F484D81462B7888469246474C0D
:104F100043B12833E35C3A2B0BD1454A002313807D
:104F20002B707EE0A3793A2B03D194F92830002B23
:104F3000F3DA03F023FF3F4E3F4AB446934606F1AF
:104F4000100E334603CB7345106051601E4602F1CC
:104F50000802F6D1364E2F78338804EB4700303301
:104F60009BB2B3F5A06F88BF4FF4A0633380328843
:104F70002E4BD21B1946303A3030CDF804C0009386
:104F800006F022F99DE8081060222270002262706B
:104F900062803A2217B183F8282000E09A71274AEC
:104FA000224B1279E271228972B95A8962B99A89BF
:104FB00052B9DA8942B91A8A32B95A8A22B99A8A16
:104FC00012B9DB8A002BA8D01D4B0FCB8CE80F0049
:104FD0009BF80030FF2B05D1B9F1040F9DD1B8F13A
:104FE000020F9AD11449164800F0D6F92F7850468E
:104FF00007F12803E21804F8039082F8018006F014
:1050000053FC33882C37283BE0511A1263712B78FC
:10501000227128331C440023638006F03CFCC0430B
:10502000608003B0BDE8F08FCB5800200460002002
:10503000F05F00201C60002024510020845E0020CE
:105040000C6000202DE9F0411E460F461B49054625
:105050000C4660230B7000234B704B803A238B71FE
:10506000174B90461B7900F1100ECB71331D1A12AD
:105070000A714B7101F118021346286869680835F6
:1050800003C375451A46F7D10E482C3600F11001BE
:1050900000F082F90C4B1B782833E518E754002305
:1050A0006B8085F8018006F0F6FBC043074B6880F3
:1050B0001E80BDE8F04102F009BF00BF046000207F
:1050C000845E00200C600020CB580020F05F0020A0
:1050D00008B50448FFF70EFFBDE808400248FFF797
:1050E00009BF00BFC0400020CC4000202DE9F341A3
:1050F0000446154D00910E4690461F4601952346E5
:1051000012480321202206F056FB01282B4616D117
:105110002A6804F11001107020462A68023250F803
:10512000044B884242F8044BF9D11868089B8674F6
:105130004361099B80F813800777836100E00020BA
:1051400002B0BDE8F08100BFDC470020805F002096
:1051500070B506460B4D0C4B2B602C680B4B9C42DC
:105160000BD2237833B1A27CA01C3146D20805F0C3
:1051700083FF20B120342C60EFE7002070BD0120B8
:1051800070BD00BFDC470020805F0020E05F002092
:1051900013B5084C8022034600920194064803216F
:1051A000202206F008FB08B9206800E0002002B0C9
:1051B00010BD00BFE04700209C5E002010B50C4AE7
:1051C0000C4B136013680C498B420DD2197849B10E
:1051D000411C02D0997C814204D148F2FE015C88D6
:1051E0008C4202D02033ECE70023184610BD00BFEC
:1051F000E04700209C5E0020FC5E002037B504469E
:105200000F4D80230093019523460E48052112225D
:1052100006F0D1FA01282B460ED12A6804F11001BC
:10522000107020462A68023250F8044B884242F837
:10523000044BF9D1186800E0002003B030BD00BF76
:10524000D8470020205F0020F7B50546204C80237A
:1052500000930E46174601941E48032120222B4638
:1052600006F0A9FA012830D12A46236805F1100179
:1052700018702368023352F8040B8A4243F8040B77
:10528000F9D12068C77416B90123037505E000231E
:1052900003753146183006F06CF923680E48012179
:1052A000997402234370FF2200230270438083809D
:1052B000C38003818372C17202736B7B4373EB897A
:1052C000C381FFF79BFF206800E0002003B0F0BD22
:1052D000E04700209C5E00203451002013B5084CAC
:1052E000802203460092019406480521122206F00E
:1052F00062FA08B9206800E0002002B010BD00BFCB
:10530000D8470020205F002038B50546C8B10D48B9
:10531000022200244270FF230122C2724480848052
:10532000C4800481847203730370EB7B43732B8A04
:10533000C381FFF7D3FF044A106008B106F05FFA9B
:105340002C7038BD34510020D847002010B50E4BCA
:105350000E4C236020680E4B98420ED203784BB15E
:10536000037D3BB91830FFF7D7F818B1074B186821
:10537000FFF7CAFF23682033EBE700F0E9FABDE846
:105380001040044806F011B99C5E0020E047002060
:10539000FC5E0020E05F00202DE9F84348F2FE03A8
:1053A0000A8805469A42884621D00B78FF2B1ED0EA
:1053B0001B4B0024A1461F461A4A1A603E681A4A2F
:1053C000964218D233787BB1B37C012B0CD148F2D2
:1053D000FE0372889A4207D04046B11C06F01CFAC0
:1053E000484524BF3446814620363E60E6E701202A
:1053F000FFF7E4FE04464CB92C806C80AC80EC8056
:105400002C816C81AC81EC81BDE8F883A31C123443
:1054100053F8042BA34245F8042BF9D1BDE8F883D7
:10542000E04700209C5E0020FC5E002010B5FFF7E6
:105430004BFC0446FFF748FC054B24029A68A4B2D3
:105440002044B0FBF2F302FB130000EB520010BD4E
:10545000845E002073B52F4C01F0BAFA00F08EF88C
:10546000002160222C4805F013FF00212046F8227D
:1054700005F00EFF294B20221A70294B18221A70B2
:105480004FF4A0632360274B40262671A360FFF7EB
:10549000CDFF42F21073236148F2FE03314640F221
:1054A000FF260025E06025751F4C2A462380658075
:1054B0002B46A580E580204600950195FFF716FE56
:1054C00020461A4906F09FF9294601222046FFF797
:1054D000BBFE4FF480732046E38126806580A58063
:1054E000E58025816581A581FFF788FE4FF4007373
:1054F000204626806580A580E58025816581A5817F
:10550000E381FFF77BFE0A480C2102B0BDE8704042
:1055100006F042B8845E0020805F00207D5F00209E
:105520007C5F0020C027090034510020FC5F002070
:10553000E05F00202DE9F04105460D480F469046FA
:1055400006F078F8044688B1012D04D8094806F021
:10555000A7F8034601E0084B1B68284666683946F1
:105560004246B047204606F0A2F8EBE7BDE8F081DE
:10557000604A0020284800202448002008B50B4835
:1055800006F098F80A4806F052F80A4B0A491868DB
:1055900004F0BAFA094806F08DF8094806F047F811
:1055A000BDE80840074806F042B800BFF8400020B8
:1055B0007C480020F44000205BB82000D840002048
:1055C00028480020604A002008B5034640B1054A3B
:1055D0005968106807F067F8BDE8084006F06EB932
:1055E00008BD00BFF4400020014806F023B800BF0A
:1055F0007C48002008B506F063F9014638B1044B39
:10560000186807F037F8003018BF012008BD08BD42
:10561000F44000202DE9F0418046FFF7E5FF002629
:10562000044637469CB194F82450B5420AD340460C
:1056300004F10801EA0805F01FFD18B9802D08D013
:105640002E462746204606F004F90446EAE73C4683
:1056500067B1084805F0EEFF844207D005482146AF
:1056600005F0F2FF0348214606F011F82046BDE898
:10567000F08100BF7C48002038B5044600283ED0A9
:105680004368002B3BD01E48214605F0DDFF6368D0
:10569000586805F0CFFF054630B14368A34207D0F4
:1056A000284606F004F8F6E704F1080002F054FB7F
:1056B00063682946586805F0C7FF6368586805F0B5
:1056C000B9FF28B963680F4A5968106804F0D4FA22
:1056D00021460D4806F012F829460C4806F00EF84F
:1056E0000B4A20461368013B1360FFF76DFF04F17E
:1056F00008010246BDE838400320FFF71BBF38BD54
:105700007C480020F4400020F840002004410020A4
:105710002448002010B5044680B1406870B105F0FF
:1057200089FF20B14068FFF7A7FF6068F7E7044BE7
:105730002146BDE81040186804F09EBA10BD00BFB5
:10574000F44000202DE9F84F074610468946904660
:1057500006F0B6F8834610B90020BDE8F88F384649
:10576000FFF758FF044660B1FFF72EFF014628B14E
:105770004046102205F080FC002859D02046FFF753
:105780007BFF2D4B1A689A460A2AE5D02B4E5946C4
:10579000306806F06FFF054668B92B4630685946F9
:1057A000042204F0DFF905460028D5D00023686004
:1057B000036005F03CFF224805F08CFF04460028FA
:1057C000CAD02048214605F062FF1F4805F082FF3D
:1057D000834620B921461A4805F090FFBCE7446093
:1057E0006868594605F044FFDAF800306560013317
:1057F00030682946CAF8003004F054FA3B4604F1F8
:10580000080507F110062A4618685968083303C2CC
:10581000B3421546F7D100210C2284F8249004F1FC
:10582000180005F035FD022039464246FFF782FE9A
:105830002046BDE8F88F00BF24480020F440002037
:10584000F84000207C4800200441002038B505467F
:105850000D4805F0EFFE0446A0B1AC420ED1214642
:10586000094805F0F1FE2146084805F047FF211DD3
:1058700001200A46BDE83840FFF75CBE204605F02F
:1058800016FFE8E738BD00BF28480020D8400020B8
:1058900038B50546084805F0CDFE044648B1201D40
:1058A0002946102205F0E8FB18B1204605F0FFFE5E
:1058B000F3E7204638BD00BF28480020F8B505466C
:1058C0000F46FFF7E5FF044640B9134805F002FF15
:1058D0000446F0B11148214605F0D9FE2B46261D9D
:1058E00005F1100E324618685968083303C2734533
:1058F0001646F7D137B104F11400394605F039FEE8
:10590000002300E001232377002029462A46FFF7E1
:1059100011FE2046F8BD00BFD840002028480020D6
:1059200038B50A4805F086FE044600255CB1251D01
:10593000284601F081F808B1437C23B9204605F0E0
:10594000B6FE0446F2E7284638BD00BF28480020CE
:1059500010B50A4805F06EFE044670B1237F43B9C6
:1059600004F11400FEF7D8FD18B12046FFF76EFFD2
:10597000EFE7204605F09BFEEEE710BD284800202B
:1059800037B5124B124D1C782B796A79C4EB03237F
:1059900013449BB2ADF80630BDF8063005F108019E
:1059A0001844202280B205F05AFFBDF8062004F109
:1059B0002801294492B205F052FF10B140BA80B2DA
:1059C00001E04FF6FF7003B030BD00BFCB580020A0
:1059D000046000202DE9F041264F274E3D782748EE
:1059E0002835AB195C780223E40007349C423DDB88
:1059F000E9187218715CDFF88080012931D002D378
:105A0000632902D011E001332EE0037018461B4CCD
:105A100003F034F9D0B13B7822782833134443445F
:105A20005B7813440233237021E001F0C001802928
:105A300005D0C02905D0402913D1037006E00370BA
:105A400007E098F818200370FF2A02D10120BDE872
:105A5000F08104200221EA18FFF752FA0220BDE883
:105A6000F081527802321344DBB2BFE703700020AA
:105A7000BDE8F081CB58002004600020D158002000
:105A8000F0B5C578124A0D44EDB2D57083780F0A8F
:105A90003B44DBB293704478BB4254700678167076
:105AA00005D2601CC0B2507008B901361670C9B278
:105AB0008D420CDA0133DBB2054993703BB94B7868
:105AC0000133DBB24B7013B90B7801330B70F0BDAF
:105AD000F85F002010B5084C014620681430FFF72D
:105AE000CFFF064A23681178197551785975917856
:105AF000D2789975DA7510BD28650020F85F00200E
:105B000008B5FFF7A7FCFFF7E3FA01F007F9002358
:105B10000E49002221F813200133082BF8D10C493B
:105B2000002311443032B2F5F07F81F82530F6D1F0
:105B3000084A4FF480611180074A00211A4420333B
:105B4000B3F5A07F1182F7D108BD00BF1467002014
:105B50002C65002044510020286700202DE9F041E9
:105B6000124F3D7805B3DFF84C8005F12703B8F8F4
:105B70000040A34203DB0023A8F8003013E00C4EE2
:105B8000A4F1280205F12801641BA4B206F1280043
:105B90003144521B05F018FBA8F80040283C2312A2
:105BA0003371747100233B70BDE8F081CB58002045
:105BB00004600020F05F0020F8B503461D4804464D
:105BC0000288013292B2B2F5FA4F28BF4FF48052E8
:105BD00050BA80B20026184D77193F8A8742F0D01C
:105BE0002036B6F5A07FF6D1228000225601AC19EE
:105BF000278A47B92082618253B92046194610226C
:105C000005F046FB0FE001320A2AEFD10020F8BD73
:105C1000274603F1100E3A4618685968083303C244
:105C200073451746F7D1054B35441B7920462B7534
:105C3000F8BD00BF4451002028670020845E00208A
:105C40000023064A32F81310814203D1002122F8C2
:105C5000131070470133082BF3D1704714670020ED
:105C60002DE9F74FA24E04283468A24F00F06F824E
:105C7000A149A24DA24A03280D6015608A4615D19C
:105C800094F8253003F00F03032B08D1A38B002BCE
:105C900040F074869B4B08221A7000F065BD022B01
:105CA00040F06C86002305F8073CB3E302287AD164
:105CB000954A00231370954A3B801380944AD37809
:105CC0000133DBB2D37063B993780133DBB29370E5
:105CD0003BB953780133DBB2537013B913780133F6
:105CE000137094F8253003F0FD02052A0DD194F8C5
:105CF00026300133DBB2782B84F8263040F03E8624
:105D0000002384F8253000F039BE002B00F03686E1
:105D1000A28B7C48002A3DD094F82620511E84F89E
:105D20002610002A40F02A8694F82720082A04D05A
:105D3000591E01290AD8052A08D1002384F82530E4
:105D40008023037002F0F0F900F01CBD042A9CBF10
:105D50000321914003F00F0394BFC9B230210132F7
:105D6000013B84F8261084F82720072B00F20686D2
:105D7000DFE813F04C0308000A00C3040406C30460
:105D80000406C304002242E30423037002F0CCF9AA
:105D900000F024BD03F00F03032B40F0EF85082330
:105DA000037000F0E1BC052811D15A4B1B681B8A17
:105DB000002B00F0E3850C3D1560544A002313804E
:105DC00033603B804F4B08220D601A70BDE115F81F
:105DD0003C3C3C3D03F0F003602B40F0CF852B7939
:105DE0006A791B0239889818884200F3C7852832DF
:105DF00013443B802B7AFF2B00F0C085464EAB1D31
:105E00003360464C404B00221A702270AA799846A3
:105E1000BAB901232370FFF7DDFD012800F0AE853C
:105E200003D3022800F0A6850BE098F8003003F1B8
:105E300028022A4432605278083303EBC20388F800
:105E400000303748FFF7A4F9002840F0B28034480A
:105E5000FFF744FA002840F0AC802A7E304BFF2A3E
:105E6000A3F1180360D048F2FE00198B81425BD089
:105E70001989814258D079B9598969B9998959B92B
:105E8000D98949B91B8A3BB9698A264B21B9998AB4
:105E900011B9DB8A002B47D0298B224B79B9598B5A
:105EA00069B9998B59B9D98B49B9198C39B9598CB8
:105EB00029B9998C19B9DB8CB3F5807F34D03B8834
:105EC000B3F5A06F04D9022000214FF4A06205E0D1
:105ED000EB79012B06D800210A460320FFF710F8C2
:105EE00000F048BD0F4A013BD37100F043BD00BF35
:105EF00028650020F05F002024650020406000201D
:105F0000F45F002018650020CB5800202467002093
:105F1000CD580020206500201C650020CC580020B2
:105F20001C6000200460002048F2FE032989994289
:105F300040F02485298BA14B81B9598B71B9998B7C
:105F400061B9D98B51B9198C41B9598C31B9998C36
:105F500021B9DB8CB3F5807F00F01085FF2A00F0BB
:105F60000D859748FFF7F4F80246002840F00685B3
:105F700001200221B2E725D9B9F13A0F78D02CD906
:105F8000B9F13B0F00F0FA84B9F13C0F6CD12378E2
:105F90008C4998073BD5580666D443F040030B70F4
:105FA000FFF718FD012800F0E98433D3022800F040
:105FB000E1843268DFF83CB292F80090B9F12B0F1F
:105FC000D9D134E0B9F1060F00F01681B9F1110F03
:105FD0006FD0B9F1000F47D104E0B9F12C0F00F0F8
:105FE000CD8441E02378D9073ED4764A43F00103BB
:105FF0001370FFF7EFFC012800F0C084D6D298F8A8
:10600000003003F128022A44CBF8002008E043F0D6
:106010000203C4E798F8003003F128022A443260F2
:106020005278083303EBC20388F80030C1E72378C5
:1060300003F0040000F0FF01B0B9624A43F004032A
:10604000137098F8002002F128032B44D87810B17F
:1060500004202A3242E7CBF800305B78083202EBAA
:10606000C302594B1A70A4E704200121521B35E7E3
:1060700005F011FC4FF6FF73984240F07F8498F8CA
:1060800000302833E85C01F0FBFE98F8003028333C
:10609000EA18E85C5178FEF711FF012801BF0023E0
:1060A000494A3B8013703B88002B00F0678400F066
:1060B00061BCFFF753FDEB8D85F8069053B96E8DEB
:1060C000002E00F05B84414B414D2B603B4BB3F8FD
:1060D00028800BE005F0E5FB4FF6FF73984240F097
:1060E0004D84ECE7238A33B920342C602C68394B7B
:1060F0009C42F7D315E09E42F6D1638A0BB19845D6
:10610000F2D123682BB963681BB9A3680BB9E368A4
:106110005BB131482146102204F0AEFF0028E3D1E4
:1061200003E0012004210022D8E63B882B49303BC4
:106130003B8000230B602A4902202A4A08702A4922
:10614000CAF800200A60294A138001F0EDFF274BAE
:106150001A88002A00F0128402F13003174C9BB217
:106160003B80283B19126371194B08321B6852BAE5
:106170002171197DA2850022E2851A8AE1712285AA
:106180005A8A11216285A17104F118050FCB85E8A7
:106190000F0004F108002946FFF7FEF8144B04F144
:1061A0003C021A6005F07DFBC04380B208B1E08577
:1061B000DAE34FF6FF73E385D6E300BF0460002007
:1061C0001C600020CC580020CB58002028670020FD
:1061D00020650020686800200C60002028650020F1
:1061E0001865002034600020F45F00202467002040
:1061F000246500201C650020FFF7B0FC85F80690A0
:1062000005F04CFB4FF6FF739842AE4C40F0B6835E
:10621000B4F82AB0BBF1000F00F0B083238D002B3F
:1062200000F0AC83A84EB44696F82590B9F1000F63
:1062300011D0328A5A450ED1728A9A420BD1A348A4
:10624000314610228DE8081004F016FF9DE8081072
:10625000002800F0F5809E4A30369642E4D195F849
:10626000352002F03F02022A08D10022994931F874
:106270001210594550D00132082AF7D195F835202F
:10628000904B520700F17A83142283F835203C2288
:106290003A80502283F8342093F8332093F8314029
:1062A00093F82F0083F82F2093F8322093F82E10C4
:1062B00093F8306083F82E20013093F82D2083F876
:1062C0002D4093F82C40C0B283F8321083F831206F
:1062D00083F82C6083F8304083F8330060B90131D3
:1062E000C9B283F8321039B90132D2B283F8312001
:1062F00012B9621C83F830202B8D6A8D734C2A856D
:106300006B8504F1100594E80F0085E80F00204626
:106310002946FFF741F812E3002421466A4A92F821
:10632000250018B9302404FB01C413E0072809D163
:106330003CB192F8266094F82600864288BF144645
:1063400000E0144601310A2902F13002E7D1002CA5
:1063500000F01483604A638214605C4B032284F86B
:10636000262084F82420042284F823200FCB84E8FC
:106370000F005A4B01201A78002622765A7884F8AA
:10638000250062769A78DB78A276E37695F82C3051
:10639000A083237595F82D3084F82260637595F8F5
:1063A0002E3084F82760A37595F82F30A4F810B02C
:1063B000E375FFF78FFB95F8343003F0F002502AB5
:1063C00024D91A093346053A9200E91891F83C009D
:1063D000E0B1012801D1013316E002280FD191F874
:1063E0003D0004280BD191F83E2091F83F3043EA5C
:1063F0000223402B28BF4023E383238406E0E918CF
:1064000091F83D1011B10B449342DEDB10222D4B6D
:1064100083F835202B4B93F8352042F0020283F8A5
:106420003520022283F83C20042283F83D200022FC
:1064300083F83E20402283F83F203A80602242E2E7
:10644000254B95F835101E60254B11F0040F34468E
:1064500018709B4603D086F825002022E1E13B8896
:1064600009F00F09A3F12802164BB9F1020F93F8B6
:1064700034304FEA1313A2EB83039BB23B8003D16A
:1064800001F03F02122A05E0B9F1010F03D101F03A
:106490003F02022A26D00BB98B0723D0AA8DB38ADC
:1064A0009A4204D1074BDA8DF38A9A421AD08807B0
:1064B00040F10282B9F1010FA8D0B9F1020F40F00A
:1064C000FB81A7E7046000202C6500200C60002001
:1064D0000C6700201467002028650020CD5800209C
:1064E00018650020C90654D5B18B002951D006F19A
:1064F0001800FFF7C5FAB24B95F8301093F800E09A
:10650000B04A8E4545D192F8311093F801C08C45C0
:106510003FD192F83200997881423AD192F83320F3
:10652000DB78934235D1F37696F8273086F818E079
:1065300086F819C0B1761BBB96F8243096F8261061
:1065400096F82200591AA1EBD001C9B25FFA81FE78
:106550001EF0800F96F82330084418BF4942A3EB81
:10656000930318BF5FFA81FE03EB0E02C0B2D3B2F1
:1065700086F8233003EBD00386F8220086F8243017
:10658000914B01221A7096F8243086F826300023A9
:10659000B38396F82510DFF8309201F00F03013B2A
:1065A000072B00F2EB81DFE813F0080025008300E1
:1065B000400162017C018701320199F80020824B81
:1065C000D2070FD5032286F82520388840221A707A
:1065D0000022B283002800F0C48042221A70FFF724
:1065E00079FABEE095F8353003F03F03022B40F016
:1065F000C5810BE799F80030DB074ED595F83530AB
:1066000003F03F03122B48D16E4B93F8343003F064
:10661000F002502A24D91B09053B9B0000202A18B0
:1066200092F83C10E1B1012901D1013016E00229B4
:106630000FD192F83D1004290BD192F83E1092F838
:106640003F3043EA0123402B28BF4023F3833384A8
:1066500006E02A1892F83D2012B110449842DEDB81
:10666000032386F8253095F82C300120337595F8F2
:106670002D30737595F82E30B37595F82F30F3756E
:10668000FFF728FA4223514A8BF800300023B383E6
:106690003B8088F80030138066E020238BF80030C0
:1066A00001F042FD4A4B00221B6883F82520E5E5F6
:1066B00095F83530D80725D5CA0623D4B38B002BDF
:1066C00040F05C813888013080B2FFF703FA9BF814
:1066D000003043F010028BF800203A881AB13A4A91
:1066E00043F01203137001F01FFD0123B38308234D
:1066F00086F82530002386F827301122314B83F8A5
:106700003520DCE098060DD595F83A2095F83B3019
:1067100043EA0223DAF800201A44CAF800203A8833
:10672000D31A3B80388848B1CA0607D499F800309C
:1067300043F0020389F80030FFF7CCF995F83620D2
:1067400095F8373003EB0223328C9BB2934202D888
:10675000002B18BF1A4699F80030F2839B0700F00F
:106760000D811A4B00221A8001F0DEFC164B1A78BC
:10677000164B02F0200000F0FF0128B100221A8021
:1067800084F825201422B9E702F0100000F0FF057C
:1067900040B119800123A383042384F8253084F8B1
:1067A0002710AAE71988B1B1D60748BFA583A28BE5
:1067B00082B9E28B914288BF1A801B88A3830AE0CA
:1067C000F85F002004600020186500202467002086
:1067D000286500201A80002384F827306D4B1B6841
:1067E000CAF800306C4B1B882BB1A38B1BB13C3318
:1067F0003B80182207E0694B1B789D0740F1BE8063
:106800003C233B801022664B83F8352059E099F8F1
:106810000030DC0740F1B280002386F825305F4B62
:1068200010221A7001F080FCA8E0388808B1FFF748
:1068300051F995F8353013F001030FD099F8003075
:10684000D80745BF072386F825300623002346BF17
:1068500086F82630B38386F8253016E099F80020B4
:10686000D1071BD5052286F82520B38386E038881A
:1068700008B1FFF72FF995F83530DA070ED5072361
:1068800086F82530002386F826300120FFF722F90C
:10689000102389F8003001F047FC0DE03B885BB91C
:1068A0006CE099F80030DB0768D5072386F82530BF
:1068B000002386F8263061E0102385F835303C232C
:1068C0003B80374B502283F83420237D344D85F8AC
:1068D0003030637D05F1180685F83130A37D85F8E9
:1068E0003230E37D85F83330237E85F82C30637EAB
:1068F00085F82D30A37E85F82E30E37E85F82F3085
:10690000238A2B85638A6B8594E80F0086E80F0045
:1069100005F108003146FEF73FFD94F8253003F0FD
:10692000100303F0FF022BB1002385F8373085F800
:10693000363004E0402385F8362085F83730184C8F
:106940000623A371174B1B79E3713B88283B1A126E
:1069500063710023227184F83B3084F83A30238736
:1069600004F09CFFC04320870D4B60221A70002268
:106970005A705A80094B00221A7007E00A4A002315
:1069800013700A4A3B801370044A137003B0BDE8C9
:10699000F08F00BFF45F00202467002018650020FE
:1069A00004600020845E0020CB580020CC580020DA
:1069B00010B5044640B102F0BBFA044B2146BDE8D5
:1069C0001040186803F058B910BD00BF10410020F6
:1069D00008B503F035FB034B03491868BDE80840D0
:1069E00003F092B810410020B169200070B51E4636
:1069F0000C4B04469DF810201868059B03F0B2F874
:106A0000054668B120462B4604F1100250F8041BDD
:106A1000904243F8041BF9D16E74284602F088FABC
:106A2000284670BD10410020024B0146186805F051
:106A30003ABE00BF1041002070B50C4D06462868D4
:106A400003F076F8044666B9002070BD2046314652
:106A5000102204F011FB38B12146286805F0EBFD47
:106A60000446002CF2D1EFE7204670BD1041002013
:106A7000024B0146186805F0FDBD00BF1041002023
:106A800070B5054610200C4603F030FA084906465A
:106A900005F03EFE58B930462946224603F06EFA0C
:106AA000304629462246BDE8704002F017BA70BD54
:106AB000B0D020002DE9FF478C4C8D4FE379DFF8F3
:106AC0005482FF2B40F00A813B78E21892F8302084
:106AD000FF2A00F00381234493F82930002B40F073
:106AE000FD80844E844D336014232B7038782978D0
:106AF0002C30B8F80030014499425ADA63185878BB
:106B00007A4A002800F0EA80615C012947D11189A6
:106B1000336079B9518969B9918959B9D18949B92C
:106B2000118A39B9518A29B9928A1AB9E28A002A96
:106B300000F0D48053F8020F02AA5968DFF8D89108
:106B400003C26E48FFF778FF0246C9F8000040B95B
:106B500005230093019002A902236848FFF746FF2E
:106B60001DE0FFF761FF8246002800F0B780306823
:106B700051460230082204F07FFA50B1504602A973
:106B8000012205F0A0FD002800F0A880D9F800300F
:106B900003E0D9F800305A7C0AB902225A743B78D3
:106BA0002A782C33134423445B7802EBC3022A7007
:106BB0009CE720440430FEF7EBFA514B4B4D186034
:106BC0009946002800F08A802B8973B96B8963B9D4
:106BD000AB8953B9EB8943B92B8A33B96B8A23B993
:106BE000AB8A13B9EB8A002B78D0444D2846FEF7C8
:106BF000CFFA2E46002871D140F2FF23228BA5F157
:106C0000080E9A4205F1100C19D16B8ABBB9AB8AF8
:106C1000ABB9EB8A9BB92B8B8BB96B8BB3F5807FB0
:106C20000DD12B7FFF2B0AD195E80F008CE80F00C8
:106C30003B78734430330FCB85E80F0011E0314DC2
:106C40002846FEF7A5FAD9F80030834246D196E8E7
:106C50000F0085E80F003B78234430330FCB86E8E4
:106C60000F0060222270282262713A22A271FF2254
:106C7000E2718822002384F82820D9F800203B7094
:106C800063706380237184F829301F4EE02384F8F9
:106C90002C30931C1232354618685968083303C5E6
:106CA00093422E46F7D1194A022384F8403084F8E3
:106CB000413013681648C4F84230536800214360DD
:106CC0000622083004F0E4FA0023638504F0E3FDB3
:106CD000C04350236085A8F8003003E00023A8F8E3
:106CE00000303B7004B0BDE8F08700BF04600020B6
:106CF000CB580020684A0020D25800200C600020A9
:106D00006C4A00201C60002034600020FC5F0020E2
:106D100046600020F05F0020644A00200148FEF732
:106D2000E9B800BF244100200C4AB82303FB00222D
:106D3000002330B553821A46094CE1188D782DB1E5
:106D40001C5D844202BF00248C70013240F24C5121
:106D500071338B42F0D1104630BD00BF8C4A002009
:106D6000DE58002008B5064801F078F8054B0122EE
:106D70001A70FD2100225A709970DA7008BD00BFA8
:106D8000CD6F2000D458002010B513780446087A3F
:106D900083F0020398421DD1487A5378984219D162
:106DA000887A9378984215D1C87AD378984211D1CD
:106DB000087B137998420DD1487B5379984209D1C9
:106DC000887B9379984205D1C87BD379984201D1C9
:106DD00003201BE00B890F4A6BB94B89B3F57F4F3A
:106DE00009D18B89FE2B06D11368C989022023F8AB
:106DF000021B13600AE0136851F8080F083343F8C8
:106E0000080C486843F8040C13600120A040C0B28D
:106E100010BD00BF784A002010B50F4C0220A179A8
:106E200003F04AF8A379112B01D0062B05D1238D4D
:106E3000618D9942A8BF194608E03A2B05BF94F826
:106E4000281094F82930002143EA01210120BDE8EF
:106E5000104003F031B800BF0460002010B5084CAA
:106E600001462378012B08D1A01C082204F004F964
:106E700000280CBF2046002010BD002010BD00BF20
:106E8000D458002008B50146102003F023F8044B25
:106E900004489B6800219847BDE80840FCF714B8F7
:106EA00040CD2000A96E200010B508460C461146C2
:106EB000FFF7E6FD044B1B6813B19B68204698471B
:106EC000024B1C6010BD00BF884A0020844A00208D
:106ED000F8B505460023114A712404FB0324A27867
:106EE000B2B9617002F012FF26460D4F0D4A3B7891
:106EF00006F8035BC01A1568A0701D4402F006FF77
:106F00003A782946821A304604F0E8F8A078F8BDAD
:106F100001330C2BDFD14FF0FF30F8BDDE580020DD
:106F20002A5E00207C4A00202DE9F8434FEA12191E
:106F3000B9F10F0F80461D4602F00F040BD00F2C45
:106F400005D1B9F1000F0AD11024274619E0B9F193
:106F5000000F09D004E00F2C4FF0100900D11024CD
:106F600040464A4604F0BAF809EB04020F2A2746C5
:106F700006DC08EB09000021C2F1100204F088F9D8
:106F8000BCB1114DC7F110002E6840443146224675
:106F900004F0A4F8022C08D1B9F10A0F9FBFFF2317
:106FA00088F80B30FE2388F80C3034442C60BDE8A0
:106FB000F883B9F1000F05D040462946BDE8F843F3
:106FC00004F021BCBDE8F883784A00202DE9F04F99
:106FD0008E4E8F4D002387B033702B70044602F025
:106FE00011FF02F0A5FE8B4A8B4B126818608DE8EA
:106FF000600099460AB1FFF70FFF04A80CB9874952
:1070000000E0214605F07FFB854B864E1A880393EE
:107010003E2A40F20182D9F800B0834D0BF1020301
:107020002B60009B06F1180093F80080002308F104
:1070300002080BF80830FFF711FF20B906F108002D
:10704000FFF70CFF20B10BF103032B60802400E05D
:10705000044672783178130943EA0113DBB29808C9
:1070600040EA8313DBB212F00F0FDEB26E4F01F075
:107070000F010CD16B48408848B911B912F0F00FDC
:107080001FD03B6803F8016B3B6070261AE079B9AA
:1070900012F0F00F0CD1296823F03F031A43634B21
:1070A0000A701B88033121F8023C6826296009E038
:1070B0005C4A2B681068186003F8046B2B6060262C
:1070C00000E07826574B9A790293112A08BF46F0C0
:1070D000040673075EBF3B6803F8012B3B60029B0D
:1070E000DB79402B06D0FF2B07D0012B08D146F0CF
:1070F000010609E046F0020606E046F0030603E05A
:107100003A6802F8013B3A60029A464B128982B90A
:107110005A8972B99A8962B9DA8952B91A8A42B916
:107120005A8A32B99A8A22B9DB8A13B944F04000EC
:1071300013E03F48FFF792FE3E4B186078B142786B
:107140001BF80830042043EA02130BF808303849D2
:10715000394AFFF719FE60F03F00C4B227E0029BF6
:1071600030491A8948F2FE039A420CD14B8B53B92D
:107170008B8B43B9CB8B33B9042008312E4AFFF7F0
:1071800003FE2043E9E73A68DFF8A4C096460CF115
:10719000100A634603CB5345CEF80000CEF8041026
:1071A0009C460EF1080EF4D11F4B10321A60DFF826
:1071B00074A09AF81830FF2B40F08A809AF81920B2
:1071C00044F0080E022A5FFA8EFE37D1BAF81A3060
:1071D000A3BBBAF81C308BBBBAF81E3073BBBAF82D
:1071E00020305BBBBAF8223043BBBAF824302BBB4B
:1071F0009AF8263013BB3B689AF8272044F00B001E
:1072000003F8012BC4B23B609FE000BFD3580020BD
:107210002A5E0020884A00207C4A0020B0D020004E
:10722000F05F002004600020784A00200660002003
:107230000C600020704A0020FC5F00209B4B588BA4
:10724000194688BB988B78BBD88BA8B9188C98B98D
:10725000588C88B993F8240070B9296844F00A0062
:10726000C4B2084600F8012B33F8252F043121F869
:10727000032C9B78837015E0C98B8C4BA1B9198CBA
:1072800091B993F8221079B9296844F00900C4B281
:10729000084600F8012B53F8232F063141F8052C3E
:1072A0001B790371296050E0814ADFF818C2146825
:1072B0000CF110082746634603CB434538607960DC
:1072C0009C4607F10807F6D11034146074463CE080
:1072D0000AF11800FFF7C2FD764B186050B14378F1
:1072E0001BF8081044F004040B43E4B20BF8083018
:1072F00000200EE048F2FE03BAF818209A4210D19E
:10730000BAF81A306BB9BAF81C3053B9BAF81E3053
:107310003BB90AF1180104AAFFF736FD2043C4B2B5
:1073200013E0634ADFF89CC117680CF11008BE46F1
:10733000634603CB4345CEF80000CEF804109C46CC
:107340000EF1080EF4D110371760019A574928231F
:1073500013708B79112B53D14FF2B0030A8D52BAAF
:1073600092B222F00F0080B2984217D14B8D5BBAD7
:1073700023F00F031B041B0C83420FD12868F32357
:1073800003704B8D02301A0A0B8D1B0A02EB03139C
:1073900003F5AA6300F8013C286028E0029B4349FA
:1073A0005B8D5BBA03F47F43B3F5704F09D12B6853
:1073B000F1221A700A8DA3F801204A8D120ADA70A0
:1073C0000CE002F47F42B2F5704F2B6808D1F22234
:1073D0001A700A8D120A5A704A8D5A80043305E0D9
:1073E000F0221A70886A053343F8040C2B60324B84
:1073F0001A882B6823F8022B019A2B603023137014
:10740000009BD9F800201B78D65413445C70284B9D
:107410001B689B1A009A1AE0D9F8002041231370C8
:10742000009B06F128051C78631CDBB2134432462E
:1074300003CAAA4218605960164603F10803F6D140
:10744000009B29341C70019B019A1B782833102063
:1074500013700DEB000102F03DFD184BDFF8688062
:107460001B68984730EA200028BF1520039BC0F115
:107470007D051C88019BDFF854A01E78009BA21B91
:1074800093F800B00E4FCBEB05039A4240F3CD804A
:10749000C0F17803019302F061FA019B94FBF3F4CD
:1074A0000134A04214DC0020D1E000BF04600020C1
:1074B000784A0020704A002032600020F8CC20007A
:1074C0002A5E00201C600020F05F0020D3580020BE
:1074D000D9F800B05F4B3C7800221A60594622462A
:1074E0000BF10400039303F06FFEB8F800205A4933
:1074F0006FEA82426FEA9242C2F307228BF80020C1
:10750000B8F8002004348BF801200A88E4B2501C3B
:107510000880110ADFF850C18BF802102D1B9AF871
:10752000001025F007054D4E61448BF803200BEB4E
:1075300004002A46CDF808C03C70356003F0CEFD4B
:10754000281980B202F0D8FB02F00EFA039B044621
:107550001D460028A7D00DF1100B5846FFF792FCEE
:10756000204602F039FA204602F020FA2B68012B5F
:1075700099D0043B012B96D99AF800A03368534464
:107580001FFA83FA05233B70354B1A68B8F80030B0
:107590006FEAC3436FEAD343C3F307231370B8F80A
:1075A00000305370019B23F0070737602D4B1B8879
:1075B0009A454BD2D9F800204FEADA0111713268AE
:1075C000CAEB03039342B8BF244AD9F80000B8BFFE
:1075D0001360009B376893F80080029B3A4603EBE8
:1075E0000A01404403F07AFD08EB070080B202F084
:1075F00083FB02F0B9F9074600283FF454AF584620
:10760000FFF740FC384602F0E7F9384602F0CEF9C1
:10761000124B1B689A442B681FFA8AFA012B3FF41D
:1076200042AF043B012BC1D83DE7D9F800000E4919
:107630005844314403F052FDB8F800005844801B10
:1076400080B202F059FB04A8FFF71CFC012007B030
:10765000BDE8F08F844A0020FA510020804A0020C3
:107660007C4A0020F05F0020046000202DE9F047F4
:10767000074688461646002A47D0434C0025A146B7
:10768000238ABB4215D1638A9BB10F2002F02EFCE6
:107690000146204605F03CF858B1ECB22046314690
:1076A000FFF716FC002827DA0027DFF8E0A0B8462D
:1076B0000DE0B834002D5DD10125E1E7A8450BD1DF
:1076C0000AF1B80AB8F1000F10D14FF001083AF8EA
:1076D000063C002BF4D0F1E7504603F09AFF002857
:1076E000EED04046FFF720FB0744E9E7002F41DDDD
:1076F00020463146FFF7ECFB00283BDDB82303FBB7
:107700000595AB8A1844A8823AE0204DFF2435F84D
:10771000063C4FFA84F97BB3284603F07AFF10B198
:107720003046FFF701FBB9F1FF3F03D135F8063CC6
:1077300003B9F4B2012E05F1B80501D00126E6E740
:1077400065B26B1C16D0B8235D43DFF83C900F2068
:1077500009EB0506A6F81280378202F0C7FB014646
:10776000304604F0D0FF05F118004844402103F0F2
:107770003EFF05E0FF2403E0B9F1FF3FDAD1D8E78F
:1077800060B2BDE8F08700BF8C4A0020A44A002008
:107790002DE9F04F0F2087B0A54CDFF8CCA202F006
:1077A000A5FB002602F026FC8AF80060267002F095
:1077B000BFFAA04DA0462860042002F085FB9E4B36
:1077C0002A6800B218605778137847EA032703F055
:1077D000F803C02B02D0E02B19D03AE09078237840
:1077E000D278C7F30A07043342EA0020394632460A
:1077F0002370FFF73BFFB0F1FF3F814600F080822E
:107800008E4CB82303FB00440126223424E0137974
:10781000D17890782278C7F30A070532227041EABE
:1078200000201A4639460093FFF720FFB0F1FF3FD2
:10783000814600F065828149B82202FB0012958AD8
:107840004FF0010BBD4234BF002501253446009B9B
:10785000DFE1B1464F467A4C296898F800504A5DFE
:1078600002F0E003602B40F0B681A81C08442944D4
:107870004D78744B5FFA85FC1CF0800F18601CBFBC
:107880000130186012F0100F02F0080130D1D1B9A8
:10789000196831F8010FA4F801008978E1701968BE
:1078A00011F8040B1960830803F00F0141F0600127
:1078B0002170617803F0300343EA801301F00F0177
:1078C0000B43637030E018686021864621701EF813
:1078D000011B03304FEA910B0BF0300B01F00F014D
:1078E0004BEA01016170BEF80010186061801BE076
:1078F00001F0FF0E99B919680878C0F3830040F0D1
:107900006000207011F801BBA4F802E04FEA9B0070
:1079100000F0300040EA8B106070196004E06023D2
:10792000237000236370638002F0040303F0FF01FF
:1079300000912BB943490B6813F8010BA0710B6040
:1079400012F003020BBF3F4A3F4B13689B5C09BF19
:1079500013F8011BE3711360E1716B06C5F30112AB
:1079600033D51CF0800F1DBF324998F800300968EC
:1079700000211EBF5B189978090922B904F1080B90
:107980009AB9114614E0314B1878012805D158787E
:1079900088420CBF1946002100E000212C4B1960E1
:1079A0000029EBD1B3460D4632E1294B196802316B
:1079B000284B0F209A5C0391CDF808C0019202F089
:1079C00095FA0399034658460BE0234B0F209A5C27
:1079D000CDF808C0019202F089FA2049034604F16B
:1079E0000800019AFFF7A0FA05F00800DDF808C0CA
:1079F00005F0030200F0FF0105F00403002835D074
:107A0000002B6BD1164B1B88ADF81430531E012B85
:107A10009FBF0C490B6813F8010B0B60114B98BF0B
:107A20008DF815009A5C04F1180005A9002353E0B5
:107A30002A5E00207C4A0020744A00208C4A0020E4
:107A400004600020784A00205ED02000D458002036
:107A5000704A002077D0200062D0200066D020003D
:107A60005CD0200068D02000D358002053B31CF015
:107A7000800F1DBFA44998F8003009680B4618BF55
:107A80005B18A24918BF9D78087818BF05F00F034E
:107A9000012805D14D789D420CBF0D46002500E020
:107AA00000259B4B1D60002D00F0AE80994B1020EF
:107AB0009A5C019202F01AFAA91C0346019A04F199
:107AC000180009E0944B10209D5C02F00FFA2A4642
:107AD0009249034604F11800FFF726FA9AF80000CD
