:020000040020DA
:10200000685600208D2220004B712000497120006D
:102010004971200049712000497120000000000032
:10202000000000000000000000000000A977200070
:102030004971200000000000C7772000A97120002E
:10204000BB712000C1712000C7712000CD7120003C
:1020500000000000AF712000B57120004971200020
:102060004971200000000000000000000000000096
:102070000000000000000000497120000000000086
:10208000000000000000000049712000497120009C
:1020900049712000497120004971200049712000D8
:1020A00049712000497120004971200049712000C8
:1020B00049712000497120004971200049712000B8
:1020C00049712000497120004971200049712000A8
:1020D0004971200000000000000000000000000026
:1020E00000000000000000000000000000000000F0
:1020F0000000000000000000D5372000E537200078
:1021000000000000000000000000000000000000CF
:1021100000000000000000000000000000000000BF
:1021200000000000000000000000000000000000AF
:10213000000000000000000000000000000000009F
:10214000000000000000000000000000000000008F
:10215000000000000000000000000000000000007F
:10216000000000000000000000000000000000006F
:10217000000000000000000000000000000000005F
:10218000000000000000000000000000000000004F
:10219000000000000000000000000000000000003F
:1021A000000000000000000000000000000000002F
:1021B000000000000000000000000000000000001F
:1021C000000000000000000000000000000000000F
:1021D00000000000000000000000000000000000FF
:1021E00000000000000000000000000000000000EF
:1021F00000000000000000000000000000000000DF
:1022000000000000000000000000000000000000CE
:1022100000000000000000000000000000000000BE
:1022200000000000000000000000000000000000AE
:10223000000000000000000000000000000000009E
:10224000000000000000000000000000000000008E
:10225000000000000000000000000000000000007E
:10226000000000000000000000000000000000006E
:1022700049712000B9362000DD362000512D2000A4
:10228000453920004D2820004971200008B5094B30
:10229000FF221A600848094A4824E3690849121ACB
:1022A00098470848084AA3690021121A984700F085
:1022B0000DF8FEE7B4200D4040400020F84000201B
:1022C000A8882000F8400020614E002073B500F07F
:1022D0001DFC00F0D7FC00F033FC00F021FA01F007
:1022E0001FFB05F000F800F0C5FC00F0B3F820205B
:1022F00004F02EFF02F0DEF800F0F4FB002000F006
:10230000FFFA012000F0FCFA0020404900F0D4FB65
:1023100002F014FA62B6082004F01AFF3C4804F0F8
:1023200079FF3C4804F076FF00F09CF9002002F0B1
:10233000ADFA01F0E7F93848002102F047F901F061
:1023400033FF04F02FFF00F027FD00F043FD02F003
:10235000E3FD0821684601F009FB9DF807309DF870
:1023600006502E4C43EA0525BDF806302C48238044
:1023700001F03CFB2B4E21782B4801F037FB6178B4
:102380002A4801F033FBF46A4AF6CD310220A04717
:1023900029460320A0470F210120A04708226946B3
:1023A000736B0B209847224801F020FB214B1868E3
:1023B00004F030FF204801F019FB204B186804F0AE
:1023C00029FF1F4801F012FB1E4B186804F022FF82
:1023D0001D48002102F0FAF81C4B01219B68812066
:1023E000984704F070FF1A4804F063FF00F080FB88
:1023F000102004F0ADFE00F081FB02F073F810F045
:10240000FF0FF8D101F024FAF5E700BFF9462000EC
:10241000EE7F2000FA7F200078400020544E0020FC
:102420001F802000007F20003D802000438020008E
:1024300049802000747F2000508020008C7F200085
:1024400057802000A87F200098400020187E2000A0
:10245000E47F200008B500F0DDF8024B00221A707E
:1024600008BD00BFD84C0020024A137818431070F2
:1024700000F0D8B8D84C0020034A137823EA0000B3
:10248000107000F0CFB800BFD84C002020B1012858
:1024900005D1044B18787047034B1868704700202B
:1024A000704700BFD94C002020900D4010B5094A5C
:1024B0000020137801331370074B197802F05EF88F
:1024C000BDE81040054B06481968064A002301F094
:1024D000A1BE00BFD94C00205A4E00203041002040
:1024E00008410020AD242000812808B52AD0B0F58D
:1024F000807F39D0802839D101F0D4FF1C4B1D4A90
:1025000018701368002023F00803136052F8203C71
:10251000032123F0080342F8203C52F81C3C23F02E
:10252000080342F81C3C52F8183C43F0080342F8F8
:10253000183C042200F0B4FB0F480021032200F0F5
:1025400051FB13E00D4B0E481A6829B142F0080206
:102550001A600123036005E022F008021A600123DB
:10256000C0F88030084608BD064B1960012008BD40
:102570005A4E002020940D408925200010940D40D3
:1025800000E100E03041002008B50F4804F0B4FE3F
:10259000C0B108210C4804F0A8FE0C4B196861B1C9
:1025A0000B4B00221A700B4B0B481B681BB90B4AD4
:1025B00001F030FE01E001F037FEBDE808400848B8
:1025C00002F038B908BD00BF28410020304100208A
:1025D000D94C002020900D4008410020AD2420005F
:1025E000187E2000084A136823F00403136052F891
:1025F000203C43F0040342F8203C044B00221A60C4
:10260000034B01221A70704720C40D4010C00D40CA
:10261000DA4C0020024A136843F038031360704715
:1026200000C40D40014B1860704700BFE0C00D4072
:10263000044B1868C0F30720030904BF1030C0B270
:10264000704700BF1C300D40054B1868C0F3C21026
:1026500001289ABFC0F1020040034FF400407047C8
:1026600014300D402DE9F04788B0FFF7E1FF174B1C
:1026700048251C68AB68074698476B6880469847B2
:102680000646FFF7E1FF054600F094FA824600F0A7
:102690009DFA814600F04AFAB60AC4F34003AD0A37
:1026A00004F0010402930690009601950394CDF87E
:1026B00010A0CDF814904146C7F3071207F00F039E
:1026C000034801F093F908B0BDE8F0871C300D40D5
:1026D00065802000F8B500F077F80F4B0024D3E9AF
:1026E00000673A46B04238BF7A1C15460443C3E936
:1026F0000045DFF828E0DEE90001821B61EB0703FB
:1027000012196B41CEE9002301F036FE18B1BDE885
:10271000F84001F0C1BDF8BDF840002000410020A4
:102720000D4B0E4AE0215A600D4A82F82310002218
:1027300007219A6019600B490B6843F001030B6095
:10274000094B1A60042243F80C2C012243F8082C90
:102750000F22DA62704700BF10E000E047E8010096
:1027600000ED00E008200D400C000340034BD3E9CE
:102770000023100A40EA0360704700BFF8400020C1
:10278000054B18601C3B1A6842F001021A601A6877
:10279000D207FCD4704700BF2800034010B5064C98
:1027A000236823F001032360FFF794FF236843F0BD
:1027B0000103236010BD00BF10E000E0014B18686A
:1027C000704700BF34410020074B084A19680433A2
:1027D0001B681268120442EA0323054A0B4310687F
:1027E00043EA0060704700BF40500D4048500D4024
:1027F0004C500D4010B50446104B1B68DB07FBD551
:1028000072B6FFF7E1FF231A062BD8BFC41D0C4B8D
:10281000220E1A60C4F3074243F8042CC4F30722C3
:1028200043F8082CE2B243F80C2C62B6054B4FF487
:1028300000321C60044B1A6110BD00BF50500D40A7
:102840004C500D403441002000E100E008B500F09C
:10285000E5FF074B00221A60064B4FF40032C3F825
:102860009021C3F89020BDE8084001F0E5BE00BF0C
:102870003441002000E100E0064B1B681B075FBFEE
:10288000054B186880F00800C0F3C00048BF002066
:10289000704700BF18C0004018D00040164A38B535
:1028A0002C2303FB00234FF6BF72DC680546236C24
:1028B00062649BB213F050020DD0A369DB0609D409
:1028C0000E4B53F825301BB12068C0B29847F4E78F
:1028D0002368F2E738BD13F4D06F0BD04FF4407388
:1028E0002363FF236360E36AE262E362236B43F0E6
:1028F0000103236338BD00BF287E2000384100203B
:102900002DE9F04F012885B0064600F2C3802C2443
:102910004443624B1D1995F920A005F12007BAF137
:10292000000F9946C0F2B68095F92230002BC0F214
:10293000B1805B4800F0E4FF5A4A59F8043011684E
:10294000EC680B43136051686B6895F921B00B4339
:1029500053609168AB6895F822800B439360002325
:10296000C4F8C83F2B690BEBCA021A6095F82330F4
:102970005FFA88FC01939DF80430604619462A7D71
:10298000CDF80CC0029300F095F9029BDDF80CC065
:1029900019466046082200F083F94FFA88F8424948
:1029A0004FEA08389DF9042058F80100012303FA82
:1029B00002F2024348F801204FEA0A3A5AF80100AD
:1029C00003FA0BF202434AF801205022A263A26BE1
:1029D00095F8240042F4D062A263022262634FF4AD
:1029E00040722263AA696262EA69A2627022E262AC
:1029F00042B2002A0C4614DB95F925102B4D41EA12
:102A0000C20129607979120315594FB2BB402B439B
:102A10001351002200F044F9254A136843F400439F
:102A200013602C2303FB069393F8265020336FB2D8
:102A3000002F1CDB93F807A0EDB25FFA8AF8284656
:102A4000414601223F0300F035F94FFA8AFA3A591C
:102A5000012303FA0AF313433B5108222846414657
:102A600000F01EF9124A136843F4804313602C23CC
:102A700003FB0696F268136B43F00103136396F8A9
:102A800028300122590903F01F0302FA03F3094A0F
:102A900042F8213005B0BDE8F08F00BF287E20004D
:102AA0007928200028200D4020940D4004410D403D
:102AB00030D0004000E100E001289CBF014B43F80A
:102AC0002010704738410020012808D8044B2C22E0
:102AD00002FB0030C3689A699206FCD41960704703
:102AE000287E2000014B00221A60704700500D40E4
:102AF000014B08221A60704700500D40024BA02283
:102B00001A6050221A60704700500D40014B024A73
:102B10009A60704700ED00E000202000024B18682A
:102B2000C0F38150704700BF04200D4008B5FFF787
:102B3000F5FF024B53F8200008BD00BF807E200047
:102B400038B5164D164C2B68032023F040032B603C
:102B50002368062123F040032360012200F0A0F83F
:102B60002B68012223F080032B602368032023F0CD
:102B700080032360072100F093F80A4A0A4B1A6089
:102B80000A4B0B4A19680A40002AF9D11A68510108
:102B9000FCD41A685201FCD538BD00BF20C40D40DA
:102BA00000C40D400101020000200D4004200D4032
:102BB00000000101034B04481B6803F007031841A0
:102BC000704700BF04200D400048E801034B044853
:102BD0001B68C3F302231841704700BF04200D4057
:102BE0000048E801024B02EBC10243F822007047A3
:102BF00040410020F8B507460E46094D002405EB7C
:102C0000411547FA04F3DB07E1B204D555F8243047
:102C10000BB1304698470134082CF2D1F8BD00BF03
:102C2000404100202DE9F04780464FEA0837DFF8A1
:102C3000409007F1804505F5592500F0EFFDD5F8E6
:102C4000186457F809404FEAC80A24FA0AF446EA19
:102C50000400E4B2C0B24146F6B204FA0AF4FFF747
:102C6000C9FFC5F81C6447F80940BDE8F08700BFFC
:102C700018970D4002480021802204F017BA00BFC7
:102C800040410020034A044B1A60044B803A1A600A
:102C9000704700BF80400D40C4410020C04100206B
:102CA000034B01EBC0011B6843F82120704700BFB4
:102CB000C4410020034B01EBC0011B6843F82120F5
:102CC000704700BFC04100200E2870B50BD1164BD5
:102CD000164E1C6844F002051D60356825F03F0360
:102CE00043F001033360124E336823F0FF031A43AD
:102CF0001143014331600F4B1B681B06FBD50E4B84
:102D00000E4A1B6812680E2803F0FC0343EA0223F4
:102D100008BF064A9BB204BF1560034A9BB208BFB6
:102D2000146018B270BD00BF34000144F48608403E
:102D300008700D4000700D400C700D4010700D407B
:102D4000024B1868B0FA80F04009704700B708409D
:102D500010B5074B4FF40042064CC3F89021C3F85E
:102D60009020206818B101F049FC0023236010BDB9
:102D700000E100E0C8410020064A136843F0020366
:102D80001360536843F002035360936843F00203F7
:102D90009360704748200D4007B50C4800F0B0FD27
:102DA000FFF7EAFF0A4B1A6842F002021A6000229B
:102DB0000192019A0F2A02DC019A0132F8E71A689F
:102DC00022F002021A6003B05DF804FB412D2000DE
:102DD00054200D40064A136823F002031360536821
:102DE00023F002035360936823F00203936070475B
:102DF00048200D40084B93F90020002A09DB074AC0
:102E0000ED2111601160E32111601A7862F07F02F8
:102E10001A700120704700BFDE4C0020388808403F
:102E20000B4B1A689207FBD41B685B065FBF094B0C
:102E3000ED221A601A60084B1B6813B1054BEF2294
:102E40001A60064A0120137803F07F03137070475D
:102E50004C860840388808402C860840DE4C00200C
:102E600038B5A0F10B04E3B20F2B054613D80B4B7A
:102E70001B6813F03F0302D0FFF7D2FF012304EBDE
:102E80008404074A0B3414600BB1FFF7B3FF054B02
:102E9000E8B21D7000E0FF2040B238BD488608400F
:102EA0003C860840F740002010B50B4B1B68990684
:102EB00003D1FFF79FFF012300E00023074A1268B8
:102EC000D207FBD5064A1468C4F300140BB1FFF710
:102ED000A7FF204610BD00BF488608406486084012
:102EE0004C860840044B186800F02200A0F1200333
:102EF00058425841704700BF4C860840024B186842
:102F000000F04000704700BF4C86084038B50C46C2
:102F1000002900F08880102800F28780DFE800F0A8
:102F2000090F1A1C23394253586F738585787A7CB0
:102F30007F003F4B1B68003318BF012370E03D4BFF
:102F400005221B6803F07F030B3B93FBF2F30B336B
:102F5000DBB265E0384B00E0384B1A68043B1B6875
:102F600043EA02235CE000230B60354B354A1B68C3
:102F700003F001030B601268900644BF43F00203A4
:102F80000B60314B1B78002B4BD00B6843F00403D4
:102F900046E02E4B00201B780860002B41D0012317
:102FA0000B6038BD2A4B1A680023D2B2294901EBC5
:102FB000C3000079904202D851F8333030E0013339
:102FC0000E2BF3D128E0244B1B685BB2493B27E072
:102FD000224B1B68990603D1FFF70CFF012300E089
:102FE00000231F4A1268D207FBD51E4A1568493DC7
:102FF000EDB20BB1FFF714FF6DB2256011E01A4B73
:1030000093F900300CE0194B1B7803F07F0307E0C5
:103010000B2305E01A2303E06FF0170300E00723FA
:103020002360002038BD022038BD012038BD00BF1C
:103030002C8608403C860840CC850840D485084052
:103040000086084024860840DD4C0020F640002021
:1030500040860840907E20005886084048860840F8
:103060006486084060860840DC4C0020DB4C002071
:1030700038B505460C46134B1B689B07FBD4124B17
:1030800093F90030002B01DBFFF7B4FE0F4BEE226B
:103090001A60691E1A60A21C43F8102C21440220F9
:1030A00000F04AFB013C0A4924012143022000F0C0
:1030B00055FB022000F05CFB022000F071FB0020B9
:1030C00038BD00BF4C860840DE4C002038880840E0
:1030D00002C001C0F8B5214B93F90030002B0DDB85
:1030E000FFF772FB0446FFF785FEFFF76DFB6FF0FD
:1030F00009031B1BC342F8D4012600E00026184B2D
:103100001B7823B9174D2B68990604D405E0FFF707
:10311000CBFE0028F6D10220F8BD134CE923236032
:1031200004272B689A0707D4013F17F0FF0703D045
:103130000620FFF725FBF4E72B689B0704D4EE235A
:1031400023602360012403E02C6814F00204FBD107
:103150000EB1FFF765FE2046F8BD00BFDE4C002033
:10316000F64000204C86084038880840044B1A6816
:1031700010B142F0010201E022F001021A60704732
:10318000008608400B280DD1082A0DD161B1074BEC
:10319000083111F8012D43F8042F054A9342F8D164
:1031A000002070470120704702207047A485084026
:1031B000C485084070B5304E336813F0400308D022
:1031C0002E4D2B68DCB21B0605D52D4BED221A6067
:1031D0001A60002070BD042CF7D9023C8C42F4DC4C
:1031E000E4B2032C21D001190139032000F0ACFA1C
:1031F000631E24491B010320194300F0AFFA03208A
:1032000000F0B6FA032000F0CBFA032000F0D4FA65
:103210000028FAD129681C4B4939C9B219702B68AA
:103220001A4D18062B70D0D506E02B6803702B685A
:1032300043702B688370EDE749B289B2042001F036
:1032400041FE2978032001F07F0101F03BFE104B85
:103250001B7873B933685A060BD5074B1B681B06DE
:1032600003D50C4801F0CAF903E0054BED221A60C2
:103270001A60204670BD00BF4C8608402888084070
:103280003888084002C0010CDC4C0020DB4C0020D8
:10329000DD4C0020504000200B282DE9F84F8A46D5
:1032A00011D1082A40F0828000297FD0414B01F1E2
:1032B000FF3A53F8042D0AF8012F3F4A9342F8D100
:1032C0000020BDE8F88F0C286DD1042A6ED10029AA
:1032D0006CD03A493A480B68DFF8EC9023F00703CA
:1032E0000B600368DFF8E4B043F008030360DBF829
:1032F0000040D9F800200B68DFF8D4C0DFF8D48094
:1033000023F070030B60D8F80050DCF80030E4B212
:10331000120244EA036392B2DFF8BCE01A43EBB254
:1033200042EA03430024DEF8002044EA03060B6867
:10333000D5B223F0070343F001030B6003682F4667
:1033400043F008030360DBF80000D9F800200B68A5
:10335000120223F0700343F010030B60D8F8005002
:10336000DCF80030C1B241EA036392B21A43EBB217
:1033700042EA0343DEF8002044EA03085FFA82F9D8
:10338000FFF722FAB6EB080667EB0907F9030546D3
:1033900041EA5641F0030B4A002303F007FB281AC9
:1033A000CAF800008CE70120BDE8F88F0220BDE8D4
:1033B000F88F00BFC8850840A885084010880840DD
:1033C000048808400048E80118880840148808402C
:1033D00020880840248808401C880840214B187029
:1033E000002834D0204B1B681B03FBD51F4B1A68E9
:1033F00042F002021A601A6842F001021A601A686A
:103400001A495007FBD50A6822F001020A601968C0
:10341000164A4907FBD4116841F002011160116896
:1034200041F0010111601A685207FCD5104A136877
:1034300023F004031360D2F8A83123F00403C2F888
:10344000A8310C4B4FF40052C3F890207047084A43
:10345000136843F004031360064B4FF400521A61E3
:10346000704700BFDD4C002004200D400488084058
:103470008C86084000E100E010B50C4607285CD8B7
:10348000DFE800F0040F1B1F263C4256012903D140
:10349000FFF7B0FC002010BD002950D1FFF7C0FCA1
:1034A000F8E7A1F10B030F2B49D8C8B2FFF7D8FCFE
:1034B000431C0CBF0320002010BD8CB2E2B2214B94
:1034C00002E08CB2204BE2B2240A1A605C60E1E7B1
:1034D00031F0070333D101F00100FFF747FE1B4B2A
:1034E00014F0020F1A68C4F3800014BF42F02002E7
:1034F00022F020021A60FFF771FFCBE731F00100E4
:103500001DD1134B197010BD01F118031F2B16D8D4
:103510000D231049DA0051F83300844204DC8B1883
:103520001A790D4B1A60B5E713F1FF33F1D2B1E709
:10353000CCB20A4B49341C60ACE7012010BD02201C
:1035400010BD00BFC8850840D085084024860840CB
:10355000F6400020907E20004086084058860840B3
:10356000F8B5294F3D7815F001054BD1274B0124C3
:103570001C605C609C60A3F59323A3F51473F82290
:103580001A600922C3F89021152270331A6003F5DE
:103590009B230B2203F59E731A60A3F59B23A3F5CF
:1035A000F07340221A601A687F2642F020021A60E7
:1035B000D52243F81C5CDE62DA61154B1878FFF700
:1035C0004FFC144B4FF480421E60134B02201A61D3
:1035D00000F0DAF81149022000F0B6F8032000F0FC
:1035E000D3F80E49032000F0A7F80D4B1878FFF729
:1035F000F5FE0C48294600F0E9FF3B7820462343BE
:103600003B70F8BD0020F8BDDE4C0020A8200D4026
:10361000F74000209486084000E100E02888084038
:10362000DD4C00205040002038B503880446CBB163
:1036300040F20342934203D000230380032038BDAD
:10364000194B18781A4628B11B7873B1174B1B78A1
:1036500058060AD5822908D1137843B1134B1A783A
:10366000520614D440F203432380012038BD01F0F8
:10367000D7FB01F06FFB8021FFF79CFD0028EDDDFB
:1036800080B201F025FB0A4B1B699847E6E7002250
:103690001A70084B1D68FFF7C3FBFFF761FFAB060D
:1036A000E0D0FFF7A7FBDDE7DD4C0020DE4C00207B
:1036B000A87F20004886084008B5054B1B7813B941
:1036C000044800F09BFF044B00221A6008BD00BFB5
:1036D000DD4C00205040002034880840064B07484D
:1036E0001A68042A1FBF06490A7842F040020A708D
:1036F00000221A6000F082BF2C8808405040002051
:10370000DE4C002010B5094C40222046002103F079
:10371000CDFC074B01221A605C60064B4FF48042DF
:103720005A604FF400425A6010BD00BF00400020B4
:1037300004F00F4000E100E003289EBF014B0001B0
:10374000195070470040002003289EBF024B03EB36
:1037500000104160704700BF0040002003289EBF5A
:10376000024B03EB00108160704700BF0040002057
:1037700003289FBF034901230A6883409CBF13436A
:103780000B60704728F00F4003289FBF03490123B7
:103790000A6883409CBF13430B60704720F00F40C2
:1037A00003289FBF034901230A6883409CBF13433A
:1037B0000B60704714F00F4003289FBF044B03EBCE
:1037C0000010806800F0070088BF0020704700BF2D
:1037D00000400020024B4FF0FF321A60704700BFDC
:1037E00004F50F40014B01221A6070474CF00F4066
:1037F000094B1A6812F4801F1A46F9D1043B196864
:1038000021F4803119601168C903FCD41A6842F4AC
:1038100000321A60704700BF04200D4010B50A4BFB
:103820001A681C4612F0030F0CD0084B1A6851019D
:10383000FBD41A685201FCD5FEF7B0FFFFF7D8FFA2
:103840000023236010BD00BF58200D4004200D4010
:1038500038B5254B1C6814F03F0413D1234B53F8A3
:10386000243023B1984768B10134052CF6D1204D9E
:103870002B783BB1FEF7A2FF0446FEF7A5FF201A06
:10388000092801D830BF38BD002CFBD0194B1A686D
:1038900022F400321A60184A1168C902FBD4196870
:1038A00041F4803119601368DB03FCD5FEF78CFF0F
:1038B000201A092803D8BDE83840FFF799BF6328CC
:1038C0000E4C02D92B78022B00D00123236000F08C
:1038D0004BFE20B1FFF78CFF0023236038BDFEF7BD
:1038E0006DFF0028CED1F5E748860840CC41002086
:1038F000DF4C002000200D4004200D4058200D40DA
:103900000023064A52F82310814206D011B942F82A
:10391000230070470133052BF3D17047CC410020C1
:10392000054B00221A60054A136943F00403136132
:10393000034B02221A70704758200D4000ED00E042
:10394000DF4C002010B5074B4FF48032064CC3F813
:103950009021C3F89020206818B100F04FFE00239A
:10396000236010BD00E100E0E041002070B51B4B7A
:103970001A78431E3AB91A4A1278122A03D1194A00
:1039800012784B2A03D001F5201227321EE04C0892
:1039900004F12812B2F1281F04D012F8015D03F8D7
:1039A000015FF7E701F5201227320023A34205DA71
:1039B00012F801690519EE540133F7E701440023B9
:1039C00001F8013C022301F8023C70BD064CA24202
:1039D000F4D012F8014903F8014FF7E72B00280053
:1039E0002A00280029002800270028000FB407B566
:1039F00004AA52F8041B0448019200F021F803B015
:103A00005DF804EB04B070476040002070B50546D7
:103A10000C46102C07D92B68686808491022984773
:103A200050B9103CF5E734B12B6868682246BDE810
:103A3000704002491847204670BD00BF95812000A4
:103A40002DE9F04F80468FB0069107920026069B25
:103A50001B78002B00F05F83069B1C4613F8012B9C
:103A60001AB9069B9C4203D10FE0252AF5D1F8E74D
:103A7000069BD8F80400E51A0699D8F800302A46C3
:103A80009847002840F02A832E442378002B00F02A
:103A900042836378611C002B00F03D8300240A46BA
:103AA00011F8013B2B2B11D006D8202B11D0232B42
:103AB00012D144F00804F2E72D2B04D0302B0BD1A7
:103AC00044F01004EBE744F00104E8E744F0060496
:103AD000E5E744F00204E2E7A3F1310108290DD83B
:103AE000134600251A4613F8011BA1F130000928DE
:103AF00011D80A2202FB0515303DF3E72A2B09D124
:103B0000079B01321D68191D002D0791B8BF44F0B5
:103B1000010400E0002513782E2B1CD15178531C92
:103B2000A1F1300009280ED8194600270A780B4663
:103B3000A2F13000092801F101010FD80A2303FB8B
:103B40000727303FF2E72A2906D1931C079A111D57
:103B50000791176802E013464FF0FF371A786C2A76
:103B600009D15A786C2A02D144F080040AE001336A
:103B700044F060040BE0682A09D15A78682A03D11E
:103B800044F02004023302E0013344F040041A7888
:103B9000642A3CD01FD8462A48D00DD8252A5AD0AE
:103BA00003D8002A00F0B78257E0412A4AD0452ABC
:103BB00053D144F4424450E0582A31D004D8472A23
:103BC0004BD144F4A13448E0612A38D0632A44D16F
:103BD00044F4A06441E06E2A3AD007D8662A22D085
:103BE00027D3672A28D0692A11D036E0732A2CD02F
:103BF00006D86F2A11D0702A2FD144F440742CE0DB
:103C0000752A07D0782A28D144F4C85425E044F412
:103C1000245422E044F410641FE044F488541CE06F
:103C200044F4B24419E044F4007416E044F48444CB
:103C300013E044F4024410E044F481340DE044F411
:103C4000C1340AE044F4E13407E044F4806404E061
:103C500044F4E06401E044F4C0640133069304F4E6
:103C6000E063B3F5806F00F0AA8116D8B3F5807FCA
:103C70002BD0B3F5407F7FF4EAAE079BA04914F444
:103C8000804F03F104029F4818BF08460DF133012D
:103C900007920F461A680023C5E1B3F5C06F08D03C
:103CA000B3F5E06F00F03182B3F5A06F7FF4CFAED3
:103CB00000E2D8F80030D8F8040093490122984770
:103CC000002840F00B820136C1E6002FACBF24F083
:103CD0001004012714F40053039304F0E00337D0D9
:103CE000402B17D008D8DBB1202B2AD1079B1A1DF7
:103CF000079293F9002017E0602B11D0802B20D180
:103D0000079B073323F0070303F108020792D3E967
:103D100000230AE0079B1A1D0792B3F9002003E075
:103D2000079B1A1D07921A68D317002A73F1000126
:103D300009DA524263EB4303CDE900234FF0010956
:103D400033E000220023CDE900234FF000092CE0EE
:103D5000402B16D007D8CBB1202B20D1079B1A1DA2
:103D600007921A78EEE7602B10D0802B17D1079BB3
:103D7000073323F0070303F108020792D3E9002376
:103D8000E1E7079B1A1D07921A88DBE7079B0021D2
:103D90001A1D07921B681846CDE90001D5E70022DD
:103DA0000023CDE900234FF0000904F4C053B3F51C
:103DB000805F0CD0B3F5C05F33D0B3F5006F4FD147
:103DC000DDE900230DF1360ACDE9042304E0DDE945
:103DD00000230DF1360A15E0DDE9042313433AD040
:103DE000DDE904010A22002302F0E0FDDDE904011F
:103DF00030320AF8012D00230A2202F0D7FDCDE966
:103E00000401E9E752EA030125D002F0070130314D
:103E10000AF8011DD10841EA4371D8080A46034651
:103E2000F0E7384B14F4804F0DF1360A344908BFDF
:103E30001946DDE9002352EA03000CD002F00F001E
:103E4000085C4FEA131E0AF8010D100940EA0370DE
:103E500002467346EFE70DF1360BCAEB0B0B03E09E
:103E60000DF1360A4FF0000B41F6080241F208034B
:103E70005F4502EA04028CBFCBEB070700279A429A
:103E800002D1002F08BF012741F608018A4207EB43
:103E90000B030DD1DDE9000150EA010208D01B49F6
:103EA00014F4804F1A4A4FF0020C18BF0A4602E081
:103EB0004FF0000C62460399A1B1B9F1000F0AD18D
:103EC00004F0060102290AD00629124904BF4FF066
:103ED000010C0A4606E04FF0010C0F4A02E00F4ABF
:103EE0004FF0010C63449D428CBFED1A002514F085
:103EF000010922D1E30613D52F444D461DE000BF32
:103F00006081200071812000938120008581200044
:103F1000828120008A812000888120005580200035
:103F200040462946CDF80CC00092FFF76FFD009A7D
:103F3000DDF80CC0002840F0D180BCF1000F0DD09E
:103F40001146D8F800306246D8F80400CDF800C019
:103F50009847DDF800C0002840F0C0803C465E4431
:103F6000102CD8F800300DD9D8F804006C49102274
:103F7000CDF800C09847002840F0B080103CDDF834
:103F800000C0EDE75CB1D8F8040065492246CDF8E1
:103F900000C09847DDF800C0002840F09F80D8F8A6
:103FA0000030D8F8040051465A4666449847002825
:103FB00040F094803E44B9F1000F79D073E0079B44
:103FC000D3F800A01A1D0792BAF1000F09D053468A
:103FD000994699F800200133002AF9D1CAEB090962
:103FE00003E0DFF840A14FF00609002F02DBB945DE
:103FF00028BFB9464D458CBFC9EB0505002514F017
:10400000010405D140462946FFF700FD002865D18F
:10401000D8F80030D8F8040051464A46984700289E
:104020005CD14E443EE052EA030E0ED002F00F0E79
:1040300010F80EE04FEA131C01F801ED4FEA121ED2
:104040004EEA037E72466346EDE70B467F1A01BFD8
:104050003022012701F1FF3301F8012C03377822C8
:10406000BD4203F8012C4FF0300203F8022C88BF48
:10407000ED1B4FF0230298BF002514F00104A3F1BB
:10408000030903F8032C04D140462946FFF7BEFC80
:1040900020BBD8F80030D8F8040049463A46984783
:1040A000E0B93E4424B140462946FFF7AFFCA8B929
:1040B0002E44CCE4079B012D03F104021B688CBF46
:1040C00005F1FF35002514F0010407928DF820302A
:1040D00008D140462946FFF799FC10B14FF0FF3058
:1040E0001AE02E44D8F80030D8F8040008A90122BC
:1040F00098470028F2D16F1C2CB140462946FFF7A3
:1041000085FC0028EAD13E44A1E4079B1A1D1B68E8
:1041100007921E609BE430460FB0BDE8F08F00BFF1
:10412000508120008C812000F8B503880646154692
:104130002BB14A2B15D0002303800320F8BD17486C
:1041400003F0EBF804462CB1201DA16803F0BCF885
:104150002468F8E7124B01221A704A2333800120A9
:10416000F8BD8829FBD10D4803F0D7F80446002C90
:10417000F3D0231D9D420ED10848214603F0D7F805
:10418000084B62691F681A60A2691D460AB1E0699E
:1041900090472F60E1E72468E9E700BFE441002091
:1041A000E04C0020F041002010B5064B00240648EA
:1041B0001C7003F0AFF82146BDE81040034800F042
:1041C00005BA00BFE04C0020E44100206840002018
:1041D00070B50446E3610B4B049D1B786561A261D9
:1041E00043B1094D094B2E68201D2B6003F06CF87C
:1041F0002E6000E0A1602146BDE87040044803F055
:10420000AAB800BFE04C0020F04100206840002028
:10421000E441002013B5034C24680094FFF7D8FF55
:1042200002B010BDF041002010B5084B04461B78C9
:104230001BB1043000F0A8F801E0C360036121461F
:10424000BDE81040024803F072B800BFE04C002007
:10425000E441002010B50E4C236813B90D4A1360D9
:1042600010BDFEF783FA216891E80C001A44131A76
:104270008A6842B192E812002144091A8B4228BF91
:104280000B469268F5E71844024B186010BD00BF5A
:10429000E8410020EC410020014800F0AFB900BF28
:1042A00078400020F8B5038805462BB1592B09D07A
:1042B000002303800320F8BD1E4A136059232B807E
:1042C0000120F8BD872920D08229F7D1194F002677
:1042D0003C68002CF2D0204603F00EF890B1E06864
:1042E0008821224600F04AF950B9E060A3680EB177
:1042F000B36000E03B600023A360FFF7ABFFE5E79E
:10430000FFF7CAFF2646A468E3E70A490B680BB922
:104310000B60D3E7D868904201D19B68F7E70B6048
:1043200099680029CAD0C86890420ABF89680B46BC
:104330009960F5E7E841002010B50446FFF7ACFFAF
:10434000E3680B4A4BB113683BB1A34203D1094A5E
:104350001268DA6007E09B68F6E7064B1B68E360CB
:1043600013681460A360BDE81040FFF773BF00BF7F
:10437000E8410020F0410020024B1868003018BFCF
:1043800001207047E841002010B50B4A044613682D
:10439000984206D18368136008E09A68A24203D06D
:1043A0001346002BF9D103E0A2689A60FFF752FF91
:1043B0000023A360E36010BDE841002038B58368A6
:1043C00004460D469BB10A4804600220A07304F124
:1043D0000C0098470238012801D9832D05D12046C9
:1043E0002146BDE8384000F005B80123A37338BD6D
:1043F000F04100202DE9F8431C4A0446156889461F
:104400002B4690461A4E3768A34204D00BB11B6866
:10441000FAE7BDE8F88334B3A37BABB10023A37301
:1044200045B1AC4204D028468721224602F055FF10
:104430002D68F5E7A3683BB14C4505D0346004F125
:104440000C0083212A469847D8F800309C4203D1BB
:104450002268064B05E0134623B11A68A242FAD13E
:1044600022681A603760BDE8F88300BFF44100207D
:10447000F041002010B5094B00221A70084B1C684F
:104480005CB1E37B3BB101230022A373E2732046BE
:104490008221FFF793FF2468F2E710BDE34C002070
:1044A000F4410020024B1878421C1A70704700BF7C
:1044B000E44C0020064B8A221A70064A002313702F
:1044C000054A1370054A1360054A1360704700BF20
:1044D000E44C0020E14C0020E24C0020F44100209C
:1044E000F04100202DE9F0411A4D2B780BB1FFF778
:1044F000C1FF194C22783AB3184E0C213378184F6B
:104500005943781817F8018001334768806803F031
:104510001F03013A3370227068B9124B1E689EB1B6
:104520002B780BB1FFF7A6FF304641463A4602F022
:10453000D4FE3668F3E7B8F1810F04BF012383731B
:1045400041463A4602F0C9FE2B7820781844BDE86F
:10455000F08100BFE34C0020E24C0020E14C002041
:10456000F8410020F4410020024A034B10781B78E8
:1045700018447047E24C0020E34C0020F0B50B4E8D
:104580003378202B0FD00A4C0C252478094F1C447B
:1045900004F01F046C4301333D19A86039556A606B
:1045A00033700020F0BD0120F0BD00BFE24C0020C0
:1045B000E14C0020F841002038B5034C256802F09A
:1045C0008CFE256038BD00BFF041002010B50A46C2
:1045D00009490C68234683420DD00BB11B68FAE7EA
:1045E00048B1046008600121817383818121BDE8A5
:1045F0001040FFF7E1BF10BDF441002038B1837BCC
:10460000013B012B9FBF024A0123C3731370704704
:10461000E34C0020024610B5064853600468029B34
:1046200011609360026014B90846FEF7E3F80020B9
:1046300010BD00BF7843002010B5084C206858B169
:1046400000232360816843689847236823B1BDE84D
:1046500010401868FEF7CEB810BD00BF78430020A8
:1046600038B505880446672D09D0792D2ED0002D48
:1046700032D1FFF717FF1B4B18701B4B1D601B48F7
:1046800002F0EEFE431C01D167231DE00A28164B01
:1046900007D01A687E2AF2DC511C1960144B98541A
:1046A000EDE7196800254A1C1A60114A0D4B555454
:1046B00028461978FFF762FF0E4B852118682A46B5
:1046C000FFF75CFF20B97923238009E0852907D112
:1046D000054B00221A60D2E700230380032038BD77
:1046E000012038BD5F4E0020844300207C43002021
:1046F000664D0020F04100200D2810B5014615D070
:104700000B4C23782BB90B4802F096FE48B90123D5
:1047100006E00A2805D1074802F08EFE08B1002302
:1047200023700548FFF76AFF012010BD002010BD6F
:10473000654D00207C4300208840002008B50548D6
:104740000549802202F071FEBDE8084003480021BF
:10475000FFF73CBF7C430020E54C00208840002050
:1047600070B505880446772D30D07E2D3FD0002DC2
:104770004DD1FFF797FE294B1870294B1D601D4640
:104780002B68284A264E52F823204AB12648002199
:10479000C154936880209847336801333360EFE752
:1047A000224A1370772320E01F4AD256002A12DBD8
:1047B0001B4A136801331360194B1C4A1B6812789B
:1047C0009342F1DB1A4B1B68002BEBD0184A0023F5
:1047D0001360134AEFE7114A00201178114A52F88A
:1047E0002320FFF7CBFE30B97E23238013E00B4B51
:1047F0001B788B420FD10A4B0B491A688B5C03F074
:104800007F038B540A4A136801331360D0E70023F7
:104810000380032070BD012070BD00BF604E0020EA
:104820008C430020404000205B4E0020E64D0020DD
:1048300088430020094B1A780023934204DA084980
:1048400051F82310814207D106490748CA5C62F03B
:104850007F02CA54FFF7D2BE0133EEE7E64D0020D7
:10486000404000205B4E002098400020054A13681D
:1048700043F004031360044B1B68906943EA002073
:1048800080B2704700700D4014700D40174A1368D5
:1048900023F00C031360164B01221A601A68012AD8
:1048A000FCD1144B08221A60E322C3F8142203F54A
:1048B00005731946104B1B68DB07FBD5102000233E
:1048C0000E4A0138126802F0010243EA02034FEA7D
:1048D00043039BB2F4D1002BF0D0094A180A03F02D
:1048E000FE0310601360EF230B60704700700D40F3
:1048F000A8200D4024860840648608409C86084015
:1049000014700D4010B54378047843EA0420054B39
:1049100088409B5CC2F1080203EA20201041C0B22B
:1049200010BD00BFD681200010B50B4C0B4A616E44
:1049300004F138000023FFF76DFCFFF797FF636E6B
:10494000074AB0FBF3F101FB130104F11800002347
:10495000BDE81040FFF75EBC904300206549200091
:104960007D492000044B5A6E196E52008A4294BF52
:104970005A665966FFF7D8BF9043002010B500F083
:104980004FFA00F0E7F900230380044600F00AF92B
:1049900068B1037B5BB12388818804EB830251807B
:1049A000C18801339180238002F0F4FCF0E7208875
:1049B0008000023080B200F08BF9238823B1BDE87B
:1049C0001040024800F03CB810BD00BF90430020EA
:1049D0009DF80030012B04D1024B9A6D5A66FFF707
:1049E000A3BF704790430020F8B586460F46164691
:1049F0001D46074C71462046064A00F00FF8A76591
:104A0000E66525660448BDE8F84000F0C5B800BF7B
:104A100090430020647F2000D149200070B50546F6
:104A20000C461646044A00F05BF86E612046BDE86D
:104A30007040024902F08ABE6C7F2000DF812000B6
:104A400010B5044604491B2000F04AFA2046BDE890
:104A5000104002F089BE00BF544E0020014802F011
:104A600059BC00BFFC430020034681800148194621
:104A700002F071BCFC43002010B50446054802F06A
:104A80004CFC28B18388A34202D002F083FCF8E7F3
:104A900010BD00BFFC430020054B10B51B689847B4
:104AA000044618B10120A18800F00CFA204610BD80
:104AB000587F200038B5064B05465B68984704468A
:104AC000A988012000F0FEF9201C18BF012038BD84
:104AD000587F2000014B9B68184700BF587F20007B
:104AE00070B505460C461646FFF7BEFF2E61204600
:104AF000BDE87040014902F029BE00BFE3812000FB
:104B0000F8B507460A480D46164602F006FC04466C
:104B100038B1A3680BB128469847204602F03AFC0A
:104B2000F5E7384629463246BDE8F84002F023BE94
:104B30000044002038B5FFF7AFFF0546094802F0F2
:104B4000ECFB044630B1636803B19847204602F09D
:104B500021FCF6E725B12846BDE8384002F006BE44
:104B600038BD00BF0044002010B50446FFF7A2FF87
:104B700038B100F0C9F8034B034821469B689847B9
:104B8000012010BDD47F2000014B2000014802F01D
:104B9000C1BB00BF04440020014B1860704700BF38
:104BA00008440020014802F0B8BB00BF04440020C4
:104BB0002DE9F04106460B480C46174602F0ADFBC6
:104BC00070B18388A34208D185684DB13146224631
:104BD0003B46AC46BDE8F041604702F0DBFBEFE747
:104BE000BDE8F0810444002008B5044802F0D5FB7C
:104BF000BDE80840024802F0D0BB00BFB44000202E
:104C0000A840002038B50E4802F0D7FB0446A8B1F2
:104C10000C4802F0D2FB0546206028B9214608481E
:104C200002F0DFFB284638BD00F09CF805F1B80122
:104C3000A5F8800005F1820000F018F9204638BD83
:104C4000A8400020B440002010B504460748214683
:104C500002F0DDFB48B12168054802F0C2FB2146A5
:104C6000BDE81040014802F0BCBB10BDA8400020C8
:104C7000B440002010B504460948214602F0C7FBA5
:104C800068B12468B4F88010204600F0D9F804F127
:104C9000820004F1B801BDE8104000F0FDB810BD7D
:104CA000A840002010B508490B888342A1BF074CDB
:104CB00080B222881218A1BF181A08802280012011
:104CC000B8BF002010BD00BFD04C0020D24C002047
:104CD000014B1880704700BFD04C0020004870473F
:104CE0002C440020014B1888704700BFD04C002096
:104CF000034A044B10781B781844C0B2704700BFB9
:104D0000F74D0020D24C00202DE9F0410D4B1A88C0
:104D10001D46A2B10C4B00261F880C4B93F8008057
:104D200034B2BC4206F1010607DAFFF7E1FF084B97
:104D30001C44235C04F80830F2E700232B80BDE814
:104D4000F08100BFD24C0020D04C0020F74D002055
:104D50002C44002008B5FFF7CBFF014B184408BDD9
:104D60002C440020F8B50C4B07461C780B4B1E88D2
:104D7000A519802D0CDC2246094902F021F9FFF724
:104D8000E9FF3C4401463246204602F019F900E0B2
:104D900000252846F8BD00BFF74D0020D04C00206C
:104DA0002C44002008B5FFF7A3FF024B1B881844D2
:104DB00080B208BDD04C002010B50446FFF7F2FFCA
:104DC0002318802B0FDC013880B202B2002A04DBEA
:104DD000064B995C23449954F5E7054B1878204419
:104DE0001870012010BD002010BD00BF2C44002011
:104DF000F74D002010B507480021362202F056F981
:104E00000024054805492044023402F002FD082C24
:104E1000F7D110BD1E4E0020164E0020EC7F200062
:104E2000044A00231380044A1380044A1370FFF7D6
:104E3000E1BF00BFD24C0020D04C0020F74D002035
:104E400038B50C460546FFF7EBFF802C28BF8024C1
:104E500029462246034802F0B3F8034B20461C8043
:104E600038BD00BF2C440020D04C002010B5084BAA
:104E700003F1340253F8044B934240F8044BF9D148
:104E80001B88044A038013680B6053684B6010BD95
:104E90001E4E0020164E002010B5084B00F13402C3
:104EA00050F8044B904243F8044BF9D102881A8021
:104EB0000B68034A13604B68536010BD1E4E002000
:104EC000164E0020024B23F810100120704700BF3F
:104ED0001E4E0020014B33F8100070471E4E00207C
:104EE00008B5044B1B3803EB400002F092FC012094
:104EF00008BD00BF164E0020024B1B3803EB4000DC
:104F0000704700BF164E00200148024902F084BCE1
:104F1000184E0020EC7F2000084B10B51B68984706
:104F2000074B5B689847074B5B689847064B5B6885
:104F30009847BDE81040054B5B681847007F20008C
:104F4000A87F2000D47F20008C7F2000747F200069
:104F500070B5FDF70BFC044600261B200E4DFFF735
:104F6000CBFF0C2303FB0655294602F055FC78B114
:104F70000A20FFF7AFFF2B7A834201D0002070BDDB
:104F80006868201AB0F5206F8CBF0020012070BD2A
:104F90000136102EE1D1F1E7AC44002070B50025B8
:104FA0001B20164CFFF7A8FF0C2101FB054102F066
:104FB00033FC6B1C10B9102B1D46F1D10C225E1E68
:104FC00002FB0343183B0C3B46B103F1180503F108
:104FD0000C0207CA013E85E80700F4E70A20FFF744
:104FE00079FF2072FDF7C2FB60601B20FFF784FF92
:104FF000BDE870400146014802F00BBCAC44002003
:1050000030B591B0054600F0F7F94FF6FF739842BE
:1050100002D14FF0FF3081E040226846002102F0CB
:1050200045F83F4B1A782AB901221A70FFF71EFC87
:105030003C4B18701520FFF74DFF8DF81000142021
:10504000FFF748FF8DF81200FFF75EFF044628B116
:1050500000238DF813308DF8153006E00B20FFF794
:1050600039FF8DF815408DF81300002301248DF8C9
:1050700014308DF81840ADB10A20FFF72BFF28B18E
:105080000A20FFF727FF8DF81A000BE0254B1A784E
:1050900002B91C7019780A204A1C1A708DF81A106F
:1050A000FFF710FF02248DF8194000F0A5F9ADF8C4
:1050B0001C00FFF729FF38B1FF238DF817408DF84A
:1050C00000308DF8013008E01C20FFF715FF014685
:1050D000684602F09EFB8DF8174000F08DF9ADF8A0
:1050E0001E001B20FFF708FF014602A802F091FBFB
:1050F000FFF730FE0E90FFF7F5FD0F90684602F0C7
:10510000F6FC04464DB1FFF757FE002881D0FFF7AB
:10511000E5FD0146684602F034FD204611B030BD81
:10512000F94D0020F84D0020014BDB68184700BF07
:10513000D47F2000014B5B69184700BFA87F200087
:10514000014B9B69184700BFA87F2000024BD8691C
:1051500000B10047704700BFA87F200013B5044688
:1051600068B1006B02F0D9F8024640B12146054B08
:105170000548DB68019302B0BDE81040184702B053
:1051800010BD00BFA87F2000D378200070B590F834
:105190002920114B032A88BF04220124DB69944093
:1051A00005469847002808BF0120013C444305D02C
:1051B000FFF75CFBB0FBF4F303FB1404074A05F1B3
:1051C000080053882146234453802B46BDE8704095
:1051D000034AFFF71FB800BFA87F2000564E0020EB
:1051E0005D5120002DE9F04107461C208846FFF75D
:1051F00083FE4A4B05461A78494C22B901221A709F
:10520000FFF734FB2080238813B9454B01221A8015
:1052100021880A204B1C2380FFF754FE414802F0EE
:105220007CF8044640B1201D294602F0F5FAD8B9B1
:10523000204602F0AFF8F4E73B4802F0BEF804461F
:1052400060B32946201D02F0E4FA002304F12C008B
:10525000206384F8283084F82930E36202F05AF899
:105260003048214602F077F8206B02F08CF80728CE
:1052700010DC2E4802F0A1F80546B8B9206B02F008
:1052800082F838B92748214602F051F826482146CD
:1052900002F0A7F8264A13880133138038464146A6
:1052A000BDE8F0410422012302F0D4BC214802F001
:1052B00084F8A86058B3FFF7A5FC686018B309200C
:1052C000AE68FFF707FE10B90823337203E0092028
:1052D000FFF700FE307286E880010D20FFF7FAFD2F
:1052E00001282946206B02D102F044F801E002F0C7
:1052F00032F8206B02F011F885420DD12046BDE84E
:10530000F041FFF743BF0B48A96802F06AF829464D
:10531000064802F066F8B1E7BDE8F0810A4E0020C9
:10532000D44C0020CC450020CC400020D8400020A8
:10533000564E0020C040002008B5054802F02DF868
:10534000044802F02AF8BDE80840034802F025B8F6
:10535000D8400020C0400020CC4000202DE9F0477C
:1053600014460D468B6892F82870D3F80090D3F855
:105370000480431E012B98BF1A4A064698BF138823
:10538000206B9CBF0133138001F0D1FF6868FFF7E9
:105390005BFCA968144802F024F81448294602F07E
:1053A00020F8206B01F0B9FF40B1002384F82830C9
:1053B00084F829302046FFF7E9FE0BE004F10800ED
:1053C000FEF732FF0A48214601F0B1FF09482146A5
:1053D00002F007F84846414632463B46BDE8F047F2
:1053E00002F038BC564E0020C0400020D8400020BB
:1053F000CC450020CC400020014B1888704700BFEE
:10540000F44000202DE9F041012986B006460F4600
:10541000144640F3868003A902F0FCFB03AB03CBE8
:105420001B88206123839DF8113061610BB1B51C8D
:1054300002E0B378F51CA37603A801A902AA02F042
:10544000ADFA9DF81380B8F1000F23D0029B23B171
:105450006A7815F8023B03EB0223B8F1020FA3832D
:1054600009D12046314902F0D4F96B78237015F840
:10547000023B637014E0B8F1030F11D105F108028B
:105480001346611E13F8010DAB4201F8010FF9D16B
:10549000154605E02046254902F0BBF9A4F81C801A
:1054A0009DF81580B8F1000F2BD0019B53B16A789D
:1054B00015F8023B03EB0223029A9BB2E3831AB96D
:1054C000A38301E0A38BE383B8F1020F0AD104F1B7
:1054D0000800164902F09DF96B78237215F8023B1B
:1054E000637215E0B8F1030F12D108352A46E31DA7
:1054F00004F10F0112F8010D03F8010F8B42F9D1ED
:1055000006E004F10800094902F083F9A4F81E80BE
:10551000AE1BBB1BE363A563BE42D4BF3046002075
:1055200000E0002006B0BDE8F08100BFEC7F200065
:105530000A4B13B500241C70094B1C80FDF744F97D
:10554000009400F580510122064B0748FFF762F8EE
:10555000064B01221A7002B010BD00BF104E002091
:10556000D64C0020215A2000A0460020144E0020D6
:10557000074B82B01B784BB1064B1A7832B9012227
:105580001A70054B1B6A019302B0184702B07047AE
:10559000144E0020104E0020007F2000094B82B0E6
:1055A0001B786BB1084B1A7852B1084A127802F096
:1055B000FF012AB91970064B5B6A019302B01847C4
:1055C00002B07047144E0020104E0020124E0020F2
:1055D000007F200008B5FFF7E1FF024B00221A60B0
:1055E00008BD00BF9C460020044B1B7823B9044B28
:1055F0001B680BB9FFF7D2BF704700BF114E0020E8
:105600009C460020094B00221A70094BC2B21A7046
:1056100082B0084A084B18B1012111701B6A01E0E1
:105620005B6A1070019302B0184700BF144E00204F
:10563000124E0020104E0020007F200037B50B4B8B
:105640001A7802F0FF056AB901241C70084B1D701E
:10565000FDF7BAF8009500F5805122460548064B43
:10566000FEF7D8FF012003B030BD00BF144E00206C
:10567000124E0020A0460020215A200037B50A4BC8
:1056800005461B780C466BB1FDF79EF8231A022BDA
:1056900048BF841C00230093284621460122034B67
:1056A000FEF7B8FF03B030BD144E0020215A200091
:1056B00013B5234B1A681C460AB9FFF76FFFFFF7B3
:1056C00011FB032839D0FFF76DFB002835D01D4BA7
:1056D0009B689847002830DBFFF704FB68B3FFF7AF
:1056E00061FB50B31C20FFF707FC174902F094F848
:1056F00068B11420FFF7EEFB206068B1FFF738FFB8
:1057000012480421124A0023FEF784FD09E0FFF746
:10571000FBFB0028EDD110E0FFF740FF0B48FEF740
:1057200083FDFFF715FC40B9FFF738FC094BDB6838
:10573000019302B0BDE81040184702B010BD00BF91
:105740009C460020C87F2000544E0020AC4600201C
:10575000D55520008C7F20002DE9F04F744E89B084
:105760003378049023B9734B1B780BB90525DBE024
:10577000FFF718FB0028F9D06F491B20FFF7B0FB9B
:10578000FFF7C2FB07460C20FFF7A4FB98B1FFF719
:1057900009FB8246694C4FF001096568FFF79EFAE4
:1057A0005146A847664DA36985F800900193984734
:1057B000A84678B909E001210B20FFF783FB614B74
:1057C0005B6898470028E2DAD0E7E36902939847DC
:1057D000054618B1002388F8003085E0FFF7DEFEAB
:1057E000337886F80090DBB20393049B63BB4FF0E1
:1057F0000609FCF7E9FF8346FFF7BAFEFCF7E4FF72
:105800006FF00303CBEB0303C342F7D463699847FC
:10581000834648B9FFF7C2FE88F800B0FFF7BEFE26
:105820009DF80C3033705FE0FFF7B8FEFCF7CCFF5B
:105830008346FCF7C9FF6FF00F03CBEB0303C342B2
:10584000F7D4B9F10109D4D1003718BF01270FB936
:10585000FFF78EFE0A20FFF73DFB5FFA80FBFDF7A6
:105860004DF9FCF7B1FF8146FCF7AEFF364BC9EBB3
:105870000303C34244D5FDF741F9002F36D0A36896
:1058800050469847FCF7A0FF02460592FCF79CFFA4
:10589000059A6FF00C039B1AC342F6D4002FE3D194
:1058A000019B984770B3FCF78FFF8146FCF78CFF94
:1058B0006FF01403C9EB0303C342F7D4236907A8AD
:1058C00003219847032826D19DF81E305B4522D13D
:1058D00000244FF00109FFF761FE9DF80C30337092
:1058E000002388F80030D4B101251DE0049B002B73
:1058F000C5D0FCF769FF154BC9EB0303C342BED407
:10590000002409E0029B98470028CCD1636998479E
:105910000028C8D0A8E701244FF00009DBE71FB931
:10592000994514BF1D460225284609B0BDE8F08FF1
:10593000144E0020124E0020544E0020007F200004
:10594000114E0020C87F2000B0EFFFFFDEFDFFFFFB
:105950002DE9F047074688461546002A58D02D4BBA
:105960001B683BB15068FFF785F901223846414674
:10597000134621E01646304601F00CFD04467068DF
:10598000FFF778F90C20FFF7A5FA00BB1CB1142033
:105990000121FFF797FA20491B20FFF7A1FA012107
:1059A0000B20FFF78FFA1D4B5B689847002807DA3A
:1059B0003846414605220123BDE8F04702F04AB9C6
:1059C0000C200121FFF77EFA706801F00EFF2646D9
:1059D000002CD0D1284601F0DDFC06466868FFF7B0
:1059E00049F91420FFF776FA81462046FFF7B4FE06
:1059F000032804460CD0384641462246012302F0D3
:105A000029F92CB926B135460124B9F1000FE1D1AD
:105A1000BDE8F0879C460020544E0020C87F20003F
:105A200040F2B1122DE9F3476B4C80462388934234
:105A300018D0B3F5D97F07D2002B40F0BC80FCF71B
:105A4000C3FE664B186008E040F2E312934235D083
:105A500040F20222934240F0AE80614A002313706C
:105A6000604A02E05F4A1378013313705D4B1B7884
:105A7000012B16D85C4B1A78002A40F0A3805B4AB1
:105A80001268002A40F09E801B780BB9FFF770FD6A
:105A9000574B5B699847002840F09280504B012299
:105AA0001A704F4B1B78002B71D0FCF78DFE514BB9
:105AB000514A186000231370504A13704A4BDFF8A4
:105AC00048911B78002B4BD199F80030002B47D020
:105AD000FCF77AFE474B1A686FF4CC739B1AC342EB
:105AE0003ED5434D444F6B69984718B13B7801331D
:105AF0003B7000E03870414ED5F818A03378013380
:105B00003370D04708B100233B703B78052B02D996
:105B1000FFF76AFD24E033780A2B05D9D04718B97E
:105B2000EB6998470028F3D0EB699847C0B9344B2C
:105B30001B7893B1D8F80050FCF746FE05F1140627
:105B40002D1A15F1120F48BF861C00230093404602
:105B5000314601222B4BFEF75DFD40F2E3132BE0B3
:105B600099F800309BB1224DAB69984748B1FCF7DA
:105B70002BFE204B1A686FF4CC739B1AC34204D5DA
:105B800005E0EB6998470028F1D1FFF72DFD134D93
:105B90002B6803F580532B60FCF716FE2B68C3F1CE
:105BA000A003C3427FF559AF29684046FFF766FD61
:105BB00040F2022300E00023238002B0BDE8F0871A
:105BC000FFF712FDFCF700FE00F110014046FFF761
:105BD00055FD40F2B113EFE7D64C00209846002067
:105BE000134E00200D4E0020114E00209C46002038
:105BF000007F2000CC4600200F4E00200E4E0020DB
:105C0000144E0020215A2000104E002008B5024BEF
:105C10001B689847023008BD807F200038B50C4BC8
:105C20009B689847041E02DA4FF0FF3038BDFFF73B
:105C300091F803780546002BF6D10220FFF732F8E1
:105C40000028F1D06878FFF743F8A01C38BD00BFEA
:105C5000807F200070B50220FFF7AEF810B94FF03A
:105C6000FF3070BDFFF73AF8002505700446FFF7D6
:105C700039F86070FFF796F80446FFF7C7FF204435
:105C80002A2812DCC0F12B00C4B2FFF763F80646E5
:105C9000FFF728F829462246304401F007FAFFF7BB
:105CA00021F8204480B2FFF713F8044B5B68984753
:105CB000041ED4DBFFF728F8A01C70BD807F2000F5
:105CC000014B9B68184700BF747F200070B50546E4
:105CD0000C4615200121FFF7F5F8034B2846214615
:105CE000BDE870409B6818478C7F20002DE9F04F7D
:105CF0000388ADF50D7D1190002B40F047832322E2
:105D00008DF84C208DF84D301399B3480B9302F069
:105D100044F84FF0010C8DF84DC083461399AE48FE
:105D2000CDF830C002F039F84FF002038DF84D3055
:105D300082461399A84802F030F84FF003038DF81B
:105D40004D3081461399A44802F027F804248DF8B9
:105D50004D4080461399A04802F01FF84FF005030C
:105D60008DF84D30059013999B4802F016F84FF0CE
:105D700006038DF84D3006901399974802F00DF800
:105D80004FF007038DF84D3007901399924802F0B9
:105D900004F84FF008038DF84D30089013998E48A1
:105DA00001F0FBFF4FF009038DF84D300990139976
:105DB000894801F0F2FF4FF00A038DF84D30074695
:105DC0001399854801F0E9FF06465146584600F010
:105DD0006FFB494600F06CFB414600F069FB0599FA
:105DE00000F066FB069900F063FB079900F060FB8A
:105DF000089900F05DFB099900F05AFB394600F064
:105E000057FB314600F054FB05465846294600F042
:105E10000BFD29460190504600F006FD29460290F0
:105E2000484600F001FD29460390404600F0FCFC86
:105E300029460490059800F0F7FC2946059006983D
:105E400000F0F2FC29460690079800F0EDFC294688
:105E50000790089800F0E8FC29460890099800F09F
:105E6000E3FC29460990384600F0DEFC29460A90FA
:105E7000304600F0D9FC064614A90198224601F0EC
:105E80005DFF029819A9224601F058FF03981EA948
:105E9000224601F053FF049823A9224601F04EFF49
:105EA000059828A9224601F049FF06982DA9224607
:105EB00001F044FF079832A9224601F03FFF0898FD
:105EC00037A9224601F03AFF09983CA9224601F081
:105ED00035FF0A9841A9224601F030FF224630469C
:105EE00046A901F02BFF0299019800F0E1FA03990D
:105EF00000F0DEFA049900F0DBFA059900F0D8FA18
:105F0000069900F0D5FA079900F0D2FA089900F046
:105F1000CFFA099900F0CCFA0A9900F0C9FA314693
:105F200000F0C6FA22464BA901F008FF14A92B483D
:105F3000FDF75CFD19A92A48FDF758FD1EA929485F
:105F4000FDF754FD23A92848FDF750FD28A927484F
:105F5000FDF74CFD2DA92648FDF748FD32A925483F
:105F6000FDF744FD37A92448FDF740FD3CA923482F
:105F7000FDF73CFD41A92248FDF738FD46A921481F
:105F8000FDF734FD4BA92048FDF730FD0B9B1F4862
:105F90008DF84D30139901F000FFDDF830C00B9003
:105FA0008DF84DC01399194801F0F7FE4FF0020328
:105FB0008DF84D300C901399144801F0EEFE4FF01F
:105FC00003038DF84D300D901399104801F0E5FE54
:105FD0008DF84D400E901BE0368520000282200097
:105FE000128220002382200034822000458220007B
:105FF000568220006782200078822000898220005B
:106000009A822000AB822000BD822000EE86200014
:106010001399B24801F0C1FE4FF005038DF84D30E1
:106020000F901399AD4801F0B8FE4FF006038DF8BC
:106030004D3083461399A94801F0AFFE4FF0070396
:106040008DF84D3082461399A44801F0A6FE4FF01A
:1060500008038DF84D3081461399A04801F09DFE4C
:106060004FF009038DF84D30804613999B4801F09D
:1060700094FE4FF00A038DF84D3007461399974868
:1060800001F08BFE0C9910900B9800F011FA0D990D
:1060900000F00EFA0E9900F00BFA0F9900F008FAD2
:1060A000594600F005FA514600F002FA494600F060
:1060B000FFF9414600F0FCF9394600F0F9F9109972
:1060C00000F0F6F905460B98294600F0ADFB29468D
:1060D0000B900C9800F0A8FB29460C900D9800F04E
:1060E000A3FB29460D900E9800F09EFB29460E90CA
:1060F0000F9800F099FB29460F90584600F094FB4A
:1061000029468346504600F08FFB29468246484682
:1061100000F08AFB29468146404600F085FB29466F
:106120008046384600F080FB29460746109800F06C
:106130007BFB054650A90B98224601F0FFFD0C9809
:1061400055A9224601F0FAFD0D985AA9224601F000
:10615000F5FD0E985FA9224601F0F0FD0F9864A9A5
:10616000224601F0EBFD584669A9224601F0E6FD02
:1061700050466EA9224601F0E1FD484673A9224629
:1061800001F0DCFD404678A9224601F0D7FD3846F3
:106190007DA9224601F0D2FD2246284682A901F0BF
:1061A000CDFD0C990B9800F083F90D9900F080F962
:1061B0000E9900F07DF90F9900F07AF9594600F038
:1061C00077F9514600F074F9494600F071F94146FB
:1061D00000F06EF9394600F06BF9294600F068F9D5
:1061E000224687A901F0AAFD50A93D48FDF7FEFB14
:1061F00055A93C48FDF7FAFB5AA93B48FDF7F6FBC9
:106200005FA93A48FDF7F2FB64A93948FDF7EEFBB8
:1062100069A93848FDF7EAFB6EA93748FDF7E6FBA8
:1062200073A93648FDF7E2FB78A93548FDF7DEFB98
:106230007DA93448FDF7DAFB82A93348FDF7D6FB88
:1062400087A93248FDF7D2FB0B99019800F038FA84
:10625000224650A901F072FD0C99029800F030FA24
:10626000224655A901F06AFD0D99039800F028FA1D
:1062700022465AA901F062FD0E99049800F020FA16
:1062800022465FA901F05AFD0F99059800F018FA0F
:10629000224664A901F052FD0698594600F010FA12
:1062A000224669A901F04AFD0798514600F008FA14
:1062B00022466EA901F042FD0898494600F000FA16
:1062C000224673A901F03AFD0998414600F0F8F919
:1062D000224678A901F032FD0A9819E0EE862000E6
:1062E000CA822000DA822000EB822000FC8220009B
:1062F0000D8320001E8320002F8320004083200078
:106300005183200062832000738320008583200056
:10631000394600F0D5F922467DA901F00FFD294646
:10632000304600F0CDF9224682A901F007FD50A9C0
:106330001A48FDF75BFB55A91948FDF757FB5AA909
:106340001848FDF753FB5FA91748FDF74FFB64A9F9
:106350001648FDF74BFB69A91548FDF747FB6EA9E9
:106360001448FDF743FB73A91348FDF73FFB78A9D9
:106370001248FDF73BFB7DA91148FDF737FB11489B
:1063800082A9FDF733FB104800F044FF119A002367
:10639000032013800DF50D7DBDE8F08F9283200062
:1063A000B5832000D9832000FD83200021842000B4
:1063B00045842000698420008D842000B184200061
:1063C000D5842000F98420001F8520002DE9F047A6
:1063D000064688B00B2289466846002100F066FE1A
:1063E0003046694601F055FC002509EB8508771910
:1063F0000024385D00F00CF94FF07E5100F058F8A1
:1064000082461DF8040000F003F90B4900F050F833
:106410000146504600F008FA03A948F82400042277
:10642000013401F08BFC0B2CE3D10B35B5F5DC7F8F
:10643000DBD108B0BDE8F087000020422DE9F04133
:10644000054688B00B220E466846002100F02EFE5D
:106450002846694601F01DFC0024284601F029FC6D
:1064600080461DF8040000F0D3F84FF07E5100F094
:106470001FF80746404600F0CBF8094900F018F82D
:106480000146384600F0D0F903A946F8240004225A
:10649000013401F053FC0B2CDFD108B0BDE8F081D2
:1064A0000000304180F0004002E000BF81F0004178
:1064B00042001FBF5FEA410392EA030F7FEA226CAA
:1064C0007FEA236C6AD04FEA1262D2EB1363C1BF3A
:1064D000D218414048404140B8BF5B42192B88BFA9
:1064E000704710F0004F40F4000020F07F4018BFCC
:1064F000404211F0004F41F4000121F07F4118BFEC
:10650000494292EA030F3FD0A2F1010241FA03FC93
:1065100010EB0C00C3F1200301FA03F100F000437B
:1065200002D5494260EB4000B0F5000F13D3B0F143
:10653000807F06D340084FEA310102F10102FE2AB2
:1065400051D2B1F1004F40EBC25008BF20F0010022
:1065500040EA03007047490040EB000010F4000FD0
:10656000A2F10102EDD1B0FA80FCACF1080CB2EB63
:106570000C0200FA0CF0AABF00EBC25052421843C2
:10658000BCBFD0401843704792F0000F81F4000167
:1065900006BF80F400000132013BB5E74FEA41033A
:1065A0007FEA226C18BF7FEA236C21D092EA030FA6
:1065B00004D092F0000F08BF0846704790EA010F20
:1065C0001CBF0020704712F07F4F04D1400028BF4D
:1065D00040F00040704712F100723CBF00F500002F
:1065E000704700F0004343F0FE4040F40000704765
:1065F0007FEA226216BF08467FEA23630146420211
:1066000006BF5FEA412390EA010F40F48000704723
:106610004FF0000304E000BF10F0004348BF4042C9
:106620005FEA000C08BF704743F0964301464FF005
:1066300000001CE050EA010208BF70474FF0000361
:106640000AE000BF50EA010208BF704711F00043A2
:1066500002D5404261EB41015FEA010C02BF844672
:106660000146002043F0B64308BFA3F18053A3F5D1
:106670000003BCFA8CF2083AA3EBC25310DB01FA18
:1066800002FC634400FA02FCC2F12002BCF1004F9C
:1066900020FA02F243EB020008BF20F0010070472D
:1066A00002F1200201FA02FCC2F1200250EA4C0081
:1066B00021FA02F243EB020008BF20EADC707047C7
:1066C0004FF0FF0C1CEAD0521EBF1CEAD15392EAD5
:1066D0000C0F93EA0C0F6FD01A4480EA010C4002B1
:1066E00018BF5FEA41211ED04FF0006343EA50100B
:1066F00043EA5111A0FB01310CF00040B1F5000F4D
:106700003EBF490041EAD3715B0040EA010062F1FB
:106710007F02FD2A1DD8B3F1004F40EBC25008BFE5
:1067200020F00100704790F0000F0CF0004C08BF03
:1067300049024CEA502040EA51207F3AC2BFD2F1D0
:10674000FF0340EAC250704740F400004FF00003DE
:10675000013A5DDC12F1190FDCBF00F00040704718
:10676000C2F10002410021FA02F1C2F1200200FA56
:1067700002FC5FEA310040F1000053EA4C0308BF1D
:1067800020EADC70704792F0000F00F0004C02BF6E
:10679000400010F4000F013AF9D040EA0C0093F0E9
:1067A000000F01F0004C02BF490011F4000F013B43
:1067B000F9D041EA0C018FE70CEAD15392EA0C0FB1
:1067C00018BF93EA0C0F0AD030F0004C18BF31F01C
:1067D000004CD8D180EA010000F00040704790F0F2
:1067E000000F17BF90F0004F084691F0000F91F096
:1067F000004F14D092EA0C0F01D142020FD193EA5C
:106800000C0F03D14B0218BF084608D180EA0100E3
:1068100000F0004040F0FE4040F40000704740F0BF
:10682000FE4040F4400070474FF0FF0C1CEAD0528D
:106830001EBF1CEAD15392EA0C0F93EA0C0F69D0E9
:10684000A2EB030280EA010C49024FEA402037D054
:106850004FF0805343EA111143EA10130CF000404B
:106860008B4238BF5B0042F17D024FF4000C8B423B
:1068700024BF5B1A40EA0C00B3EB510F24BFA3EB1B
:10688000510340EA5C00B3EB910F24BFA3EB9103EB
:1068900040EA9C00B3EBD10F24BFA3EBD10340EA45
:1068A000DC001B0118BF5FEA1C1CE0D1FD2A3FF68B
:1068B00050AF8B4240EBC25008BF20F00100704740
:1068C0000CF0004C4CEA50207F32C2BFD2F1FF03E3
:1068D00040EAC250704740F400004FF00003013A14
:1068E00037E792F0000F00F0004C02BF400010F4B8
:1068F000000F013AF9D040EA0C0093F0000F01F0CC
:10690000004C02BF490011F4000F013BF9D041EAED
:106910000C0195E70CEAD15392EA0C0F08D1420220
:106920007FF47DAF93EA0C0F7FF470AF084676E7F3
:1069300093EA0C0F04D14B023FF44CAF08466EE7CC
:1069400030F0004C18BF31F0004CCAD130F000429A
:106950007FF45CAF31F000437FF43CAF5FE700BFF2
:106960004FEA4002B2F1FE4F0FD34FF09E03B3EB5C
:1069700012620DD94FEA002343F0004310F0004F9C
:1069800023FA02F018BF404270474FF000007047F2
:1069900012F1610F01D1420205D110F0004008BF91
:1069A0006FF0004070474FF00000704753B94AB98C
:1069B000002908BF00281CBF4FF0FF314FF0FF3007
:1069C00000F03CB882B0EC462DE9005000F01EF813
:1069D000DDF804E002B00CBC704700BF2DE9F041C7
:1069E000069C904606460F461D4600F029F808FB17
:1069F00001FCA8FB002300FB05C5B21A2B4467EB82
:106A000003038646C4E90023BDE8F0812DE9F8437D
:106A1000089E1746804689461D4600F067F900FB30
:106A200005F3A0FB074507FB0137B8EB04043D4421
:106A300069EB0505C6E90045BDE8F883704700BF6E
:106A400000292DE9F043C0F2A8800026002BC0F2F7
:106A50009E8081468E4690469C46174604460D46CB
:106A6000002B3DD18A4259D9B2FA82F33BB1C3F12E
:106A700020029D4020FA02F29F4015439C40390CB1
:106A8000B5FBF1F01FFA87FE01FB10550EFB00F37A
:106A9000220C42EA0545AB4209D9ED1900F1FF325B
:106AA00080F00B81AB4240F2088102383D44ED1A80
:106AB000B5FBF1F301FB13550EFB03FEA4B244EA50
:106AC0000545AE4508D9ED1903F1FF3280F0F78096
:106AD000AE4540F2F480023B43EA0043002203E06B
:106AE0008B420FD900221346341C18BF0124604288
:106AF0004FF0000565EB45015840514000196941D0
:106B0000BDE8F083B3FA83F2002A40F089808B421B
:106B100002D3804500F2E2800123E5E712B90123A8
:106B2000B3FBF2F7B7FA87F8B8F1000F3BD1ED1BD2
:106B30004FEA174C1FFA87FE0122B5FBFCF00CFB55
:106B400010550EFB00F3210C41EA0545AB4207D975
:106B5000ED1900F1FF3102D2AB4200F2C3800846CA
:106B6000ED1AB5FBFCF30CFB13550EFB03FEA4B2B0
:106B700044EA0545AE4507D9ED1903F1FF3102D2CC
:106B8000AE4500F2AD800B4643EA0043ACE752420B
:106B90006FEA060663EB43035BE7404261EB4101AA
:106BA0004FF0FF3652E707FA08F7C8F1200225FA3E
:106BB00002F34FEA174CB3FBFCF11FFA87FE0CFB04
:106BC000113324FA02F205FA08F50EFB01F92A4303
:106BD000100C40EA0343994504FA08F407D9DB197D
:106BE00001F1FF3078D2994576D902393B44C9EB9F
:106BF0000303B3FBFCF00CFB10330EFB00F592B269
:106C000042EA03439D4207D9DB1900F1FF325FD20C
:106C10009D425DD902383B445D1B40EA01428CE74E
:106C2000C2F1200328FA03F10CFA02FC41EA0C0C31
:106C30004FEA1C402EFA03F1B1FBF0F51FFA8CF776
:106C400000FB151129FA03F30EFA02FE07FB05F902
:106C500043EA0E0E4FEA1E4343EA0141894508FA12
:106C600002F808D911EB0C0105F1FF3332D2894546
:106C700030D9023D6144C9EB0101B1FBF0F300FBE7
:106C8000131107FB03F71FFA8EFE4EEA014E7745FC
:106C900008D91EEB0C0E03F1FF3117D2774515D939
:106CA000023BE64443EA0543A3FB0889C7EB0E0E0B
:106CB000CE4509D305D0002216E71046F7E6134665
:106CC0000AE794404445F6D2013BF4E70B46E9E776
:106CD0001046A1E71D46CEE7014688E7134603E7C5
:106CE000023B51E702383D443AE700BF2DE9F0434B
:106CF000002B44D18A42154604464FD9B2FA82F796
:106D00000E464FB1C7F12003B94020FA03F602FA4C
:106D100007F50E4300FA07F42F0CB6FBF7F01FFA45
:106D200085FE07FB10620EFB00F1260C46EA0243CB
:106D3000994209D95B1900F1FF3280F0EE80994247
:106D400040F2EB8002382B44591AB1FBF7F307FBF2
:106D500013110EFB03FEA4B244EA01418E4508D98B
:106D6000491903F1FF3280F0DA808E4540F2D78076
:106D7000023B43EA004000263146BDE8F0838B42E7
:106D800047D8B3FA83F6002E48D18B4202D3824211
:106D900000F2CF8001203146BDE8F08312B9012511
:106DA000B5FBF2F5B5FA85FCBCF1000F78D1491BB3
:106DB0002F0C1FFA85FE0126B1FBF7F007FB10111F
:106DC0000EFB00F2230C43EA01418A4207D949191C
:106DD00000F1FF3302D28A4200F2BC801846891AC1
:106DE000B1FBF7F307FB13110EFB03FEA4B244EA59
:106DF0000142964508D9521903F1FF3180F0918084
:106E0000964540F28E80023B43EA00403146BDE8A1
:106E1000F083002630463146BDE8F083C6F12004F9
:106E200022FA04F5B3402B4321FA04F74FEA134842
:106E3000B7FBF8FC1FFA83F908FB1C7720FA04FE65
:106E400001FA06F509FB0CF44EEA05054FEA154E6A
:106E50004EEA0747BC4202FA06F204D9FF180CF1C9
:106E6000FF3168D38C463F1BB7FBF8F408FB14775F
:106E700009FB04F9ADB245EA0741894504D9C918AF
:106E800004F1FF355DD32C4644EA0C44A4FB0223F5
:106E9000C9EB0101994249D345D0204600266BE752
:106EA000CCF1200405FA0CF521FA04F32A0CB3FB0B
:106EB000F2F61FFA85FE02FB163820FA04F701FAF3
:106EC0000CF10EFB06F90F433C0C44EA08439945CC
:106ED00000FA0CF407D95B1906F1FF3138D2994555
:106EE00036D9023E2B44C9EB0303B3FBF2F002FB9D
:106EF00010330EFB00F1BFB247EA0343994207D9B2
:106F00005B1900F1FF3721D299421FD902382B4477
:106F10001746591A40EA06464EE7104614E713464C
:106F200027E70B4670E7B0409042B6D2601E0026BD
:106F300022E7304620E7BC4294D9ACF1020C1F4452
:106F400091E789459FD9023C19449DE73846DFE720
:106F50000E46C8E70238294441E700BF032A70B44F
:106F600026D940EA01039B0711D004780D78AC4282
:106F700022D10244431C05E013F8014B11F8015FD4
:106F8000AC4219D19342F7D1002070BC70470C4637
:106F900003461E6825681846AE42214603F10403E5
:106FA00004F1040404D1043A032A18462146F0D817
:106FB000002ADAD11046E8E7601B70BC704700BFBA
:106FC000844641EA000313F0030349D1403A23D336
:106FD0000B6803604B6843608B688360CB68C36059
:106FE0000B6903614B6943618B698361CB69C36141
:106FF0000B6A03624B6A43628B6A8362CB6AC36229
:107000000B6B03634B6B43638B6B8363CB6BC36310
:1070100040304031403ADBD230320BD30B68036052
:107020004B6843608B688360CB68C360103010315D
:10703000103AF3D20C3205D351F8043B40F8043B2C
:10704000043AF9D2043208D0D2071CBF11F8013B30
:1070500000F8013B01D30B8803806046704700BFF6
:10706000082A13D38B07B1D010F00303AED0C3F1BD
:107070000403D21ADB071CBF11F8013B00F8013BE7
:10708000A4D331F8023B20F8023B9FE7043AD9D35E
:10709000013A11F8013B00F8013BF9D20B7803707B
:1070A0004B7843708B7883706046704770B4840768
:1070B00046D0541E002A41D0CDB2034602E0621EE3
:1070C000E4B3144603F8015B9A07F8D1032C2ED9D8
:1070D000CDB245EA05250F2C45EA054519D92646C6
:1070E00003F11002103E0F2E42F8105C42F80C5CC7
:1070F00042F8085C42F8045C02F11002F2D8A4F1F4
:10710000100222F00F0204F00F041032032C13447B
:107110000DD91E462246043A032A46F8045BFAD8E3
:10712000221F22F003020432134404F003042CB1A2
:10713000C9B21C4403F8011BA342FBD170BC7047C9
:1071400014460346C2E700BFFEE708B5FBF79EF80A
:1071500073B50646002425463046FBF785F9002323
:107160000193019BAB4203DA00BF019B0133F7E7B8
:107170003046FBF781F900230193019AC5F5C873E6
:107180009A4203DA00BF019B0133F5E70134B4F5FD
:10719000487F05D0B4F5C87FDDDDC4F54875DBE771
:1071A00002B070BDFBF71EBAFBF794BA704700201F
:1071B000FBF774BB0120FBF771BB0020FBF732BD6E
:1071C0000120FBF72FBD0220FBF72CBD0320FBF7AE
:1071D00029BD10B50C46FBF74BFF2046BDE810401B
:1071E000FBF778BF10B504460020E1B2FBF76CFC5A
:1071F000204610BD70B5054604464618601B44B1D4
:10720000237833B1B44204D018460134FFF7EAFFC3
:10721000F4E770BD38B50546002415F8010B20B120
:10722000FFF7E0FF0134002DF7D10A20FFF7DAFF66
:10723000204638BD002070470120704710B5044635
:1072400000210E203022FBF73FFD84B1012C0CD130
:1072500042F210730011A0F28E5058432A2390FB83
:10726000F3F000F5C340283010BD4FF0004010BDD2
:10727000002070470120704710B5044600210F2000
:107280003022FBF721FD5CB1012C07D140F6F2530F
:10729000584347F6F07390FBF3F010BD4FF00040F9
:1072A00010BD08B51AB108461146FFF7A3FF00202C
:1072B00008BD10B5041F54F8040F18B10021FDF7E4
:1072C00085F9F8E710BD704710B5044600F00DF8D9
:1072D0002046BDE81040FDF72FB8837BDB0701D5C2
:1072E000FDF76CB87047FFF761BF10B54160044609
:1072F000FBF73CFA206010BD10B50446FBF736FAE8
:107300002368C3F101030344606898422CBF002046
:10731000012010BD002303607047006870470068BB
:1073200000B9704703680BB11846FBE77047036864
:1073300010B57BB100228B4207D10B680AB90360FC
:1073400000E0136000230B6010BD1C681A460CB1EE
:107350002346F0E710BD38B505460C46FFF7E7FFBA
:10736000002323602846FFF7DAFF08B92C6038BDF8
:10737000046038BD38B504460D46FFF7D8FF2368D2
:107380002B60256038BD0368002013B101301B68F5
:10739000FBE7704700B10068704710B50446002154
:1073A00062884068FFF782FE23886288A068002117
:1073B0005A43BDE81040FFF779BE10B5418800235D
:1073C0008B420CDA4268D418D25C32B901222270A6
:1073D0000188826801FB032010BD0133F0E7002023
:1073E00010BD30B5826844880023A3420DDA8A427A
:1073F00007D14168CA5C0AB1013ACA544268D05CFC
:1074000030BD058801332A44EFE7FF2030BD826894
:10741000914208D34388008800FB032081422CBF9F
:10742000002001207047002070470023013A0160CE
:10743000027143718371704710B542798379047981
:10744000D31A2340A3421FBF0368995443795A1C9F
:107450001FBF037913404371012008BF002010BDF6
:10746000837942790179D21A0A421FBF0268D25C3D
:1074700001330B401ABF837110464FF0FF30704745
:10748000831C0020023313F8042C1AB113F8032CC8
:107490001044F7E77047072B2DE9F8430746884665
:1074A00014461D4607DC084611461A46FDF72AFA1F
:1074B0003870BDE8F8834FEAE309AAB1002608EB6B
:1074C000060021460822FDF71DFAB85501364E4543
:1074D000F5D115F0070216D008EB06002146FDF79E
:1074E00011FAB855BDE8F88318F804303B5501345B
:1074F0004C45F9D115F0070205D008EB0400002136
:10750000FDF700FA3855BDE8F8832DE9F341FDF7A2
:1075100021FC04460220FDF7C5FB08B9002044E029
:107520006078237803EB002080B2FDF7A5FA0546CA
:107530000028F3D0FDF70EFC8046287B10F00703EF
:1075400018BF012303EBD000FDF7ACFB0028E5D00A
:10755000AC680026023414F8023C2BB31A2B14F842
:10756000017C08EBE60106F0070209D901A83B46B9
:10757000FFF791FF14F8020C01A9FDF7B1FC10E030
:107580000023ADF8043001A83B46FFF784FF9DF8C7
:1075900005109DF8043014F8020C43EA0121FDF7B0
:1075A00091FC3E440234D6E7284602B0BDE8F081A3
:1075B000072BF0B506DC1278C1F11001CB1A02FAE4
:1075C00003F322E0DD1049B3571E00EB050E7045B2
:1075D0000FD017F8014FC1F10806B4400678C4F384
:1075E000072C4CEA0606067010F8016F344304704D
:1075F000EDE713F007042AD0535DC4F108021144EB
:107600000B41DBB2C4F11004A3400278C3F307219D
:107610000A430270427813434370F0BD545C4454F3
:107620000131A942FAD113F0070310D0525CC3F123
:1076300008052A41C3F1100302FA03F3425CC3F3C5
:1076400007252A4344184254627813436370F0BDFF
:107650002DE9F743047B054614F0070318BF012307
:1076600003EBD404A01CFDF7A7FB98B3FDF736FB92
:10767000AB880370AB881B0A4370FDF72FFB871C98
:10768000224638460021FFF711FDAC680025023480
:1076900014F8020CE8B11A2814F8016C07EBE5099C
:1076A00005F0070805D9FDF727FC41460246484684
:1076B00009E0FDF70FFC8DF80400000A8DF80500C5
:1076C0004146484601AA3346FFF772FF354402346B
:1076D000DEE7012003B0BDE8F0837047F7B50F4641
:1076E000FDF738FB03880446ADF80030BDF80060B4
:1076F000FDF7F8FAB300023383420FD802340025B5
:10770000B5420BDA54F8040B01350190BDF80410B2
:107710003846BDF80620FDF74BFAF1E703B0F0BD9F
:1077200043695B6803B11847704713B504461B20D3
:10773000FDF7E2FB014601A800F06BF863691B68E6
:1077400013B1204601A9984702B010BD38B50D46C7
:10775000FDF792F9044620B185602846FDF7BAF995
:10776000207338BDFDF77AB9FDF7FEB903691B68D0
:1077700003B11847704703695B6803B11847704746
:1077800010B5FDF731FAFDF74BFBFDF7FFF9FFF7F9
:10779000E9FFBDE8104002204FF400714FF4F052B1
:1077A0004FF4E123FDF720B90EF00F000D2808BFBC
:1077B00000F00EB800982DE9F04F00F1240181F39C
:1077C000098890E8F08F0EF00F000D2818BF704761
:1077D000EFF3098020E9F04F0990BDE8F08F0168D0
:1077E00001F18200B831FDF741BB10B5046804F126
:1077F000820004F1B801FDF739FB2046FDF7B2FA2B
:10780000A4F8800010BD036803EB4101B1F88200C9
:1078100070470B880380704708B50222FFF79EFB74
:10782000B0FA80F0400908BD30B591B0FDF792FA8A
:107830000446FDF757FA6A4601462046FDF7E2FD89
:10784000044610B94FF0FF303BE0FDF72BFA00285B
:10785000F8D015209DF81010FDF734FB9DF8173077
:10786000ABB1BDF81C50FDF7C7FD854205D04FF602
:10787000FF73BDF81C209A42E4D19DF817006946B9
:1078800000F026F918B91C206946FDF729FB02A96A
:107890001B20FDF725FB14209DF81210FDF712FBAD
:1078A0009DF815300A2013B99DF81A1001E04FF623
:1078B000FF71FDF707FB0E209DF81A10FDF702FB84
:1078C000204611B030BD0120FDF79ABB0020FDF726
:1078D00097BB2DE9F0410E461746044600285BD0C1
:1078E000006BFFF71AFD054668B10A216868FFF7CB
:1078F0008AFF80460A20FDF7EDFA804505D028462C
:10790000FFF748FDEFE7BDE8F081AB68002B43D0FF
:10791000032E3AD8DFE806F002190B4094F828202D
:1079200000203A4484F8290084F828202EE0002220
:1079300084F8292094F828203A44D2B284F82820E8
:107940001B7A934219D8022020E094F829203A4467
:10795000D2B2052A83BF002284F8292094F8282077
:1079600084F8292084BF013284F8282094F8282044
:107970001B7A9A4201D3012008E02046FDF706FC5D
:107980006868BDE8F041FFF72ABF30462946224625
:10799000BDE8F041FDF7E2BCBDE8F08130B500285C
:1079A00053D0037A022B2FD1C479437A057914B9C5
:1079B0009BB9012D0DE01BB9002D40D1012014E031
:1079C000032C0CD1032B03D1002D3CD1012017E057
:1079D000022B14BF0020012006E0204604E0022C08
:1079E000F6D1181C18BF012005BB0CB1022C05D123
:1079F000023B012B8CBF002301231BE0032C15D17C
:107A00009C1E6342634115E00378022B10D003797A
:107A10002BB9437A13F0030318BF012300E00023BE
:107A2000C07910F0030018BF012003E0002301E03B
:107A30000020034601B10B603AB1106030BD032C49
:107A4000CDD11846D0E70020CEE730BD37B504468B
:107A50000D46084606220021FFF728FB637DD90763
:107A60005CBF01232B70237E012B0DD8E37D9A0789
:107A700008D0637E9B0705D0E28BA38B9A4201D18D
:107A8000012300E00023237504F11000694601AAD8
:107A9000FFF784FF009B0BB10223EB70019B0BB13E
:107AA00002236B70E37D03F00303022B03D0032B4F
:107AB0000CBF08230023AB70637E03F00303022B8B
:107AC00003D0032B0CBF082300232B7103B030BD60
:107AD00002280CBF022308230B448B4205D013F865
