:020000040020DA
:10200000586000208D2220006F7720006D7720001F
:102010006D7720006D7720006D77200000000000B4
:10202000000000000000000000000000EF7D200024
:102030006D772000000000000D7E20009528200014
:10204000DB772000E1772000E7772000ED772000A4
:1020500000000000CF772000D57720006D772000AA
:102060006D7720000000000000000000000000006C
:1020700000000000000000006D772000000000005C
:1020800000000000000000006D7720006D77200048
:102090006D7720006D7720006D7720006D77200030
:1020A0006D7720006D7720006D7720006D77200020
:1020B0006D7720006D7720006D7720006D77200010
:1020C0006D7720006D7720006D7720006D77200000
:1020D0006D772000000000000000000000000000FC
:1020E00000000000000000000000000000000000F0
:1020F0000000000000000000E13A2000F13A20005A
:1021000000000000000000000000000000000000CF
:1021100000000000000000000000000000000000BF
:1021200000000000000000000000000000000000AF
:10213000000000000000000000000000000000009F
:10214000000000000000000000000000000000008F
:10215000000000000000000000000000000000007F
:10216000000000000000000000000000000000006F
:10217000000000000000000000000000000000005F
:10218000000000000000000000000000000000004F
:10219000000000000000000000000000000000003F
:1021A000000000000000000000000000000000002F
:1021B000000000000000000000000000000000001F
:1021C000000000000000000000000000000000000F
:1021D00000000000000000000000000000000000FF
:1021E00000000000000000000000000000000000EF
:1021F00000000000000000000000000000000000DF
:1022000000000000000000000000000000000000CE
:1022100000000000000000000000000000000000BE
:1022200000000000000000000000000000000000AE
:10223000000000000000000000000000000000009E
:10224000000000000000000000000000000000008E
:10225000000000000000000000000000000000007E
:10226000000000000000000000000000000000006E
:102270006D77200055392000AD392000F92E20005F
:102280006D3D2000612920006D77200008B5094BC5
:10229000FF221A600848094A4824E3690849121ACB
:1022A00098470848084AA3690021121A984700F085
:1022B0000DF8FEE7B4200D404040002018410020FA
:1022C000088D2000184100205758002073B500F0F9
:1022D000D7FC00F0ABFD00F0EDFC00F08DFA01F052
:1022E00033FD05F014FB00F099FD00F021F92020EA
:1022F00005F040FA02F044FB00F0AEFC002000F0D4
:10230000B9FB012000F0B6FB0020434900F08EFC31
:1023100002F07AFC62B6082005F02CFA3F4805F07E
:1023200089FA3F4805F086FA00F008FA002002F02A
:1023300013FD01F06DFB3B48002102F0ADFB02F004
:1023400099F905F041FA00F017FE00F033FE03F0B2
:1023500071F80821684601F039FD9DF807309DF8B5
:102360000650314C43EA0525BDF806302F4823803E
:1023700001F06CFD2E4E21782E4801F067FD61784A
:102380002D4801F063FDF46A4AF6CD310220A047E2
:1023900029460320A0470F210120A04708226946B3
:1023A000736B0B209847254801F050FD244B1868AB
:1023B00005F040FA234801F049FD234B186805F069
:1023C00039FA224801F042FD214B186805F032FA33
:1023D0002048002102F060FB1F4B01219B688120F7
:1023E000984702F0D1F800F079FA1C4B01221860EE
:1023F0001B4B1C481A7005F06CFA00F033FC1020DF
:1024000005F0B8F900F034FC02F0D2FA10F0FF0F3A
:10241000F8D101F0F5FBF5E7C54B2000CE85200093
:10242000DA852000784000204A580020FF852000EF
:10243000C88420001D8620002386200029862000D5
:102440003C852000308620005C85200037862000F7
:102450007885200098400020E0832000DC57002091
:10246000D0570020B4852000F8B52D4C2578207079
:102470004540EA0618D500F0100000F0FF07294E8D
:1024800030B100F02BFA284BD8600123F3700BE039
:10249000F3784BB100F022FA244A2349D368C96883
:1024A000F7705B1A1844D06015F0300F17D02378FE
:1024B0001C4F13F0300606D000F010FA1A4B1861CA
:1024C00001233B710BE03B794BB100F007FA174A4F
:1024D0001549136909693E715B1A18441061AB060E
:1024E00019D523780F4D03F0200303F0FF0633B115
:1024F00000F0F4F90C4B586101236B710BE06B7920
:102500004BB100F0EBF9094A0749536949696E710B
:102510005B1A184450612078BDE8F84000F0EEB82E
:10252000DC550020D0570020DC5700209C570020AD
:1025300008B500F0DBF8024B00221A7008BD00BF9E
:10254000DC550020024B1B781843FFF78DBF00BFFE
:10255000DC550020024B1B7823EA0000FFF784BF04
:10256000DC55002020B1012805D1044B18787047B4
:10257000034B186870470020704700BFDD550020EE
:1025800020900D4010B5094A0020137801331370D4
:10259000074B197802F058FABDE81040054B064881
:1025A0001968064A002302F09BB800BFDD550020E1
:1025B000505800205041002028410020852520004F
:1025C000812808B52AD0B0F5807F39D0802839D14C
:1025D00002F0CEF91C4B1D4A18701368002023F03E
:1025E0000803136052F8203C032123F0080342F84B
:1025F000203C52F81C3C23F0080342F81C3C52F8E3
:10260000183C43F0080342F8183C042200F01CFC7C
:102610000F480021032200F09FFB13E00D4B0E48F2
:102620001A6829B142F008021A600123036005E02C
:1026300022F008021A600123C0F88030084608BD65
:10264000064B1960012008BD5058002020940D4011
:102650006126200010940D4000E100E05041002070
:1026600008B50F4805F05CF9C0B108210C4805F029
:1026700050F90C4B196861B10B4B00221A700B4BCF
:102680000B481B681BB90B4A02F02AF801E002F064
:1026900031F8BDE80840084802F032BB08BD00BF71
:1026A0004841002050410020DD55002020900D4081
:1026B0002841002085252000E0832000084A136877
:1026C00023F00403136052F8203C43F0040342F863
:1026D000203C044B00221A60034B01221A70704701
:1026E00020C40D4010C00D40DE550020024A136882
:1026F00043F038031360704700C40D40014B18606D
:10270000704700BFE0C00D40044B1868C0F30720BD
:10271000030904BF1030C0B2704700BF1C300D4029
:10272000054B1868C0F3C21001289ABFC0F102001F
:1027300040034FF40040704714300D402DE9F0473E
:1027400088B0FFF7E1FF174B48251C68AB680746C8
:1027500098476B68804698470646FFF7E1FF0546B5
:1027600000F0E2FA824600F0EBFA814600F098FAB7
:10277000B60AC4F34003AD0A04F0010402930690C4
:10278000009601950394CDF810A0CDF81490414621
:10279000C7F3071207F00F03034801F057FB08B017
:1027A000BDE8F0871C300D4045862000F8B500F0EC
:1027B00095F80F4B0024D3E900673A46B04238BF82
:1027C0007A1C15460443C3E90045DFF828E0DEE93A
:1027D0000001821B61EB070312196B41CEE9002354
:1027E00002F030F818B1BDE8F84001F0BBBFF8BD09
:1027F00018410020204100200D4B0E4AE0215A6074
:102800000D4A82F82310002207219A6019600B49B3
:102810000B6843F001030B60094B1A60042243F874
:102820000C2C012243F8082C0F22DA62704700BFFB
:1028300010E000E047E8010000ED00E008200D4056
:102840000C000340034BD3E90023100A40EA036065
:10285000704700BF18410020054B18601C3B1A68E8
:1028600042F001021A601A68D207FCD4704700BF18
:102870002800034010B5064C236823F001032360B1
:10288000FFF794FF236843F00103236010BD00BFEE
:1028900010E000E038B500F021F80A4C0A4D0123A1
:1028A000A370A860FFF782FFA3784BB100F016F881
:1028B000064AA96893685B1A184400239060A370C5
:1028C00038BD00BFD0570020DC5700209C570020A7
:1028D000014B1868704700BF54410020074B084A5D
:1028E000196804331B681268120442EA0323054A7C
:1028F0000B43106843EA0060704700BF40500D4032
:1029000048500D404C500D4010B50446104B1B680C
:10291000DB07FBD572B6FFF7E1FF231A062BD8BF02
:10292000C41D0C4B220E1A60C4F3074243F8042C5A
:10293000C4F3072243F8082CE2B243F80C2C62B629
:10294000054B4FF400321C60044B1A6110BD00BFF0
:1029500050500D404C500D405441002000E100E02B
:1029600070B501F017F9FFF7B9FF0E4C0123A37002
:102970000D4B00251D600D4E0D4B4FF40032B06025
:10298000C3F89021C3F8902002F0BCF8A37843B1BB
:10299000FFF7A4FF074AB1689368A5705B1A184453
:1029A000906070BDD057002054410020DC570020BB
:1029B00000E100E09C570020064B1B681B075FBF2F
:1029C000054B186880F00800C0F3C00048BF002025
:1029D000704700BF18C0004018D00040F8B5064648
:1029E000FFF77CFF1E4A01231E4993702C2303FB33
:1029F00006134FF6BF711C4DDC68A860236C616440
:102A00009BB213F0500117460CD0A369DB0618D413
:102A1000164B53F826301BB12068C0B29847F4E734
:102A20002368F2E713F4D06F0BD04FF440732363A5
:102A3000FF236360E36AE162E362236B43F0010317
:102A40002363BB7853B1FFF749FF094AA96893682C
:102A50005B1A1844024B906000229A70F8BD00BFC8
:102A6000D0570020F0832000DC5700205841002080
:102A70009C5700202DE9F04F012885B0064600F252
:102A8000C3802C244443624B1D1995F920A005F105
:102A90002007BAF1000F9946C0F2B68095F92230AE
:102AA000002BC0F2B1805B4801F03EF95A4A59F858
:102AB00004301168EC680B43136051686B6895F93A
:102AC00021B00B4353609168AB6895F822800B43AB
:102AD00093600023C4F8C83F2B690BEBCA021A604D
:102AE00095F823305FFA88FC01939DF80430604626
:102AF00019462A7DCDF80CC0029300F0AFF9029B75
:102B0000DDF80CC019466046082200F09DF94FFA26
:102B100088F842494FEA08389DF9042058F8010026
:102B2000012303FA02F2024348F801204FEA0A3A6D
:102B30005AF8010003FA0BF202434AF8012050222E
:102B4000A263A26B95F8240042F4D062A263022231
:102B500062634FF440722263AA696262EA69A26208
:102B60007022E26242B2002A0C4614DB95F925106D
:102B70002B4D41EAC20129607979120315594FB2F0
:102B8000BB402B431351002200F05EF9254A136825
:102B900043F4004313602C2303FB069393F8265061
:102BA00020336FB2002F1CDB93F807A0EDB25FFA61
:102BB0008AF82846414601223F0300F04FF94FFAB8
:102BC0008AFA3A59012303FA0AF313433B510822C4
:102BD0002846414600F038F9124A136843F480430E
:102BE00013602C2303FB0696F268136B43F001037A
:102BF000136396F828300122590903F01F0302FAE3
:102C000003F3094A42F8213005B0BDE8F08F00BF58
:102C1000F0832000B929200028200D4020940D4089
:102C200004410D4030D0004000E100E001289CBF8D
:102C3000014B43F82010704758410020012808D864
:102C4000044B2C2202FB0030C3689A699206FCD424
:102C500019607047F0832000014B00221A60704712
:102C600000500D40014B08221A60704700500D4083
:102C7000024BA0221A6050221A60704700500D408B
:102C8000014B024A9A60704700ED00E000202000EE
:102C9000024B1868C0F38150704700BF04200D40FC
:102CA00008B5FFF7F5FF024B53F8200008BD00BF41
:102CB0004884200038B5164D164C2B68032023F0AD
:102CC00040032B602368062123F040032360012288
:102CD00000F0BAF82B68012223F080032B602368F0
:102CE000032023F080032360072100F0ADF80A4A97
:102CF0000A4B1A600A4B0B4A19680A40002AF9D19C
:102D00001A685101FCD41A685201FCD538BD00BFC5
:102D100020C40D4000C40D400101020000200D4000
:102D200004200D4000000101034B04481B6803F020
:102D300007031841704700BF04200D400048E80118
:102D4000034B04481B68C3F302231841704700BFBC
:102D500004200D400048E801024B02EBC10243F899
:102D60002200704760410020F8B507460E46094D25
:102D7000002405EB411547FA04F3DB07E1B204D563
:102D800055F824300BB1304698470134082CF2D165
:102D9000F8BD00BF604100202DE9F74F019000F021
:102DA000F9FEFFF79BFD0199184E4FEA0139184FC4
:102DB0000123DFF864A009F18045B860B37005F520
:102DC0005925D5F8188459F80A404FEAC10B24FA5E
:102DD0000BF448EA0400C0B2E4B2FFF7C5FF04FAFE
:102DE0000BF45FFA88F3C5F81C3449F80A40B3784D
:102DF0004BB1FFF773FD074AB96893685B1A184433
:102E000000239060B37003B0BDE8F08FD05700206E
:102E1000DC5700209C57002018970D4002480021E5
:102E2000802204F055BC00BF60410020034A044BDF
:102E30001A60044B803A1A60704700BF80400D4012
:102E4000E4410020E0410020034B01EBC0011B687E
:102E500043F82120704700BFE4410020034B01EB01
:102E6000C0011B6843F82120704700BFE0410020EB
:102E70000E2870B50BD1164B164E1C6844F0020597
:102E80001D60356825F03F0343F001033360124EA7
:102E9000336823F0FF031A431143014331600F4BA2
:102EA0001B681B06FBD50E4B0E4A1B6812680E28CA
:102EB00003F0FC0343EA022308BF064A9BB204BFA7
:102EC0001560034A9BB208BF146018B270BD00BF02
:102ED00034000144F486084008700D4000700D4035
:102EE0000C700D4010700D40024B1868B0FA80F065
:102EF0004009704700B7084070B5FFF7EFFC114B71
:102F0000114A0121997011499060114D4FF4004010
:102F1000C1F89001C1F89000286816461C4618B107
:102F200001F0D2FD00232B60A37853B1FFF7D6FC4C
:102F3000084AB16893685B1A1844024B90600022FB
:102F40009A7070BDD0570020DC57002000E100E0EF
:102F5000E84100209C570020064A136843F0020312
:102F60001360536843F002035360936843F0020315
:102F70009360704748200D4007B50C4800F0D4FE20
:102F8000FFF7EAFF0A4B1A6842F002021A600022B9
:102F90000192019A0F2A02DC019A0132F8E71A68BD
:102FA00022F002021A6003B05DF804FBE92E200053
:102FB00054200D40064A136823F00203136053683F
:102FC00023F002035360936823F002039360704779
:102FD00048200D40044B186800F02200A0F12003A7
:102FE00058425841704700BF4C860840024B186851
:102FF00000F04000704700BF4C86084008B50B4BFE
:1030000093F90020002A09DB094AED2111601160C3
:10301000E32111601A7862F07F021A70FFF75EFCFC
:10302000044BD861044B0120D87108BDE255002043
:1030300038880840DC570020D057002038B50546B6
:103040000C46134B1B689B07FBD4124B93F90030C3
:10305000002B01DBFFF7D2FF0F4BEE221A60691E37
:103060001A60A21C43F8102C2144022000F0EAFC54
:10307000013C0A4924012143022000F0F5FC022012
:1030800000F0FCFC022000F011FD002038BD00BF64
:103090004C860840E25500203888084002C001C034
:1030A000044B1A6810B142F0010201E022F0010263
:1030B0001A607047008608400B280DD1082A0DD1F0
:1030C00061B1074B083111F8012D43F8042F054A6F
:1030D0009342F8D1002070470120704702207047CA
:1030E000A4850840C485084070B5304E336813F09D
:1030F000400308D02E4D2B68DCB21B0605D52D4BA6
:10310000ED221A601A60002070BD042CF7D9023C31
:103110008C42F4DCE4B2032C21D0011901390320E4
:1031200000F098FC631E24491B010320194300F0A2
:103130009BFC032000F0A2FC032000F0B7FC03205E
:1031400000F0C0FC0028FAD129681C4B4939C9B2EB
:1031500019702B681A4D18062B70D0D506E02B6815
:1031600003702B6843702B688370EDE749B289B216
:10317000042002F035F92978032001F07F0102F0E4
:103180002FF9104B1B7873B933685A060BD5074BD0
:103190001B681B0603D50C4801F096FC03E0054BA9
:1031A000ED221A601A60204670BD00BF4C860840B0
:1031B000288808403888084002C0010CE0550020EB
:1031C000DF550020E15500205040002010B5134B82
:1031D0001A689207FBD41B685B065FBF104BED2299
:1031E0001A601A600F4B1B6813B10D4BEF221A6067
:1031F0000D4A0E4C137803F07F031370E37953B13B
:10320000FFF76CFB0A4A0B49D369C9695B1A18447A
:103210000023D061E371012010BD00BF4C8608403F
:10322000388808402C860840E2550020D0570020FE
:103230009C570020DC57002038B5A0F10B04E3B206
:103240000F2B054613D80B4B1B6813F03F0302D01E
:10325000FFF7BCFF012304EB8404074A0B3414601E
:103260000BB1FFF7CBFE054BE8B21D7000E0FF206D
:1032700040B238BD488608403C86084017410020CF
:1032800038B50C46002900F08880102800F28780AD
:10329000DFE800F0090F1A1C23394253586F738579
:1032A00085787A7C7F003F4B1B68003318BF012371
:1032B00070E03D4B05221B6803F07F030B3B93FB43
:1032C000F2F30B33DBB265E0384B00E0384B1A68A1
:1032D000043B1B6843EA02235CE000230B60354B90
:1032E000354A1B6803F001030B601268900644BF67
:1032F00043F002030B60314B1B78002B4BD00B6863
:1033000043F0040346E02E4B00201B780860002B9E
:1033100041D001230B6038BD2A4B1A680023D2B27A
:10332000294901EBC3000079904202D851F83330AB
:1033300030E001330E2BF3D128E0244B1B685BB245
:10334000493B27E0224B1B68990603D1FFF756FE45
:10335000012300E000231F4A1268D207FBD51E4A52
:103360001568493DEDB20BB1FFF730FF6DB2256036
:1033700011E01A4B93F900300CE0194B1B7803F065
:103380007F0307E00B2305E01A2303E06FF0170328
:1033900000E007232360002038BD022038BD012053
:1033A00038BD00BF2C8608403C860840CC850840CC
:1033B000D48508400086084024860840E155002056
:1033C0001641002040860840588420005886084056
:1033D000488608406486084060860840E055002022
:1033E000DF55002010B50B4B1B68990603D1FFF782
:1033F00005FE012300E00023074A1268D207FBD52F
:10340000064A1468C4F300140BB1FFF7DFFE204630
:1034100010BD00BF48860840648608404C860840BE
:103420002DE9F843374B93F90030002B0EDBFFF703
:1034300055FA0446FFF7E2FDFFF750FA6FF0090373
:103440001B1BC342F8D44FF0010801E04FF0000805
:103450002D4B1B782BB92D4E336813F0200404D16B
:1034600006E0FFF7BFFF0028F5D10220BDE8F88392
:10347000274D284FEB7943B1FFF730FA264AF96917
:10348000D369EC715B1A1844D061FFF727FA234C1B
:103490000123AB71E923B8614FF00409236033685D
:1034A0009A0708D409F1FF3919F0FF0903D0062063
:1034B000FFF7D2F9F3E733689B0704D4EE232360C8
:1034C0002360012403E0346814F00204FBD1AB79DB
:1034D00053B1FFF703FA104AB96993695B1A1844AC
:1034E0000B4B906100229A71FFF7F8F90123F86104
:1034F000EB71B8F1000F01D0FFF768FE2046BDE880
:10350000F88300BFE2550020164100204C86084099
:10351000D0570020DC5700209C57002038880840F6
:103520000B282DE9F84F8A4611D1082A40F08280F5
:1035300000297FD0414B01F1FF3A53F8042D0AF8DE
:10354000012F3F4A9342F8D10020BDE8F88F0C28A4
:103550006DD1042A6ED100296CD03A493A480B68E3
:10356000DFF8EC9023F007030B600368DFF8E4B0AA
:1035700043F008030360DBF80040D9F800200B6833
:10358000DFF8D4C0DFF8D48023F070030B60D8F8E4
:103590000050DCF80030E4B2120244EA036392B255
:1035A000DFF8BCE01A43EBB242EA03430024DEF842
:1035B000002044EA03060B68D5B223F0070343F06A
:1035C00001030B6003682F4643F008030360DBF838
:1035D0000000D9F800200B68120223F0700343F0BA
:1035E00010030B60D8F80050DCF80030C1B241EA9B
:1035F000036392B21A43EBB242EA0343DEF80020BF
:1036000044EA03085FFA82F9FFF768F9B6EB0806A7
:1036100067EB0907F903054641EA5641F0030B4AF7
:10362000002303F0D5FC281ACAF800008CE701201B
:10363000BDE8F88F0220BDE8F88F00BFC8850840BC
:10364000A885084010880840048808400048E80120
:1036500018880840148808402088084024880840BA
:103660001C880840214B1870002834D0204B1B6860
:103670001B03FBD51F4B1A6842F002021A601A683E
:1036800042F001021A601A681A495007FBD50A680D
:1036900022F001020A601968164A4907FBD4116832
:1036A00041F002011160116841F0010111601A68D6
:1036B0005207FCD5104A136823F004031360D2F8B4
:1036C000A83123F00403C2F8A8310C4B4FF4005288
:1036D000C3F890207047084A136843F0040313604E
:1036E000064B4FF400521A61704700BFE1550020AD
:1036F00004200D40048808408C86084000E100E06A
:1037000010B50C4607285CD8DFE800F0040F1B1F3B
:10371000263C4256012903D1FFF770FC002010BD62
:10372000002950D1FFF752FDF8E7A1F10B030F2B51
:1037300049D8C8B2FFF780FD431C0CBF032000200E
:1037400010BD8CB2E2B2214B02E08CB2204BE2B24F
:10375000240A1A605C60E1E731F0070333D101F01D
:103760000100FFF79DFC1B4B14F0020F1A68C4F315
:10377000800014BF42F0200222F020021A60FFF7FE
:1037800071FFCBE731F001001DD1134B197010BD53
:1037900001F118031F2B16D80D231049DA0051F838
:1037A0003300844204DC8B181A790D4B1A60B5E79C
:1037B00013F1FF33F1D2B1E7CCB20A4B49341C60AC
:1037C000ACE7012010BD022010BD00BFC885084035
:1037D000D0850840248608401641002058842000E7
:1037E0004086084058860840F8B52C4F3D7815F0C3
:1037F000010551D12A4B01241C605C609C60A3F53B
:103800009323A3F51473F8221A600922C3F89021B8
:10381000152270331A6003F59B230B2203F59E7368
:103820001A60A3F59B23A3F5F07340221A601A686F
:103830007F2642F020021A60D52243F81C5CDE622B
:10384000DA61184B1878FFF7F7FC174B4FF48042FA
:103850001E60164B02201A6100F01CF91449022068
:1038600000F0F8F8032000F015F91149032000F0EA
:10387000E9F8104B1878FFF7F5FE29460E4801F0DD
:103880000BF93B7823433B70FFF728F80B4BD861CB
:103890000B4B2046DC71F8BD0020F8BDE25500203E
:1038A000A8200D40174100209486084000E100E068
:1038B00028880840E155002050400020DC570020B7
:1038C000D057002038B503880446CBB140F20342FC
:1038D000934203D000230380032038BD194B18788E
:1038E0001A4628B11B7873B1174B1B7858060AD5B6
:1038F000822908D1137843B1134B1A78520614D495
:1039000040F203432380012038BD01F017FD01F090
:10391000AFFC8021FFF7E8FB0028EDDD80B201F06D
:1039200065FC0A4B1B699847E6E700221A70084BB2
:103930001D68FFF74BFCFFF757FFAB06E0D0FFF722
:103940005DFBDDE7E1550020E25500207885200091
:103950004886084070B5FEF7C1FF0E4B01219970F3
:103960000D490E4A0978906016461C4611B90C485C
:1039700001F0AAF80B4B00251D60A3784BB1FEF7B0
:10398000ADFF094AB16893685B1A1844014B906017
:103990009D7070BDD0570020E1550020DC570020FD
:1039A00050400020348808409C57002070B5FEF736
:1039B00095FF114B01221D46104C9A70104AA060D1
:1039C00011680026042918BF0E490F481EBF0B7846
:1039D00043F040030B70166001F076F8AB784BB102
:1039E000FEF77CFF094AA16893685B1A1844024BF2
:1039F00090609E7070BD00BFD0570020DC57002043
:103A00002C880840E2550020504000209C570020A0
:103A100010B5094C40222046002103F059FE074B07
:103A200001221A605C60064B4FF480425A604FF4EA
:103A300000425A6010BD00BF0040002004F00F405B
:103A400000E100E003289EBF014B000119507047C0
:103A50000040002003289EBF024B03EB0010416092
:103A6000704700BF0040002003289EBF024B03EBBD
:103A700000108160704700BF0040002003289FBFF6
:103A8000034901230A6883409CBF13430B607047BE
:103A900028F00F4003289FBF034901230A68834091
:103AA0009CBF13430B60704720F00F4003289FBF5B
:103AB000034901230A6883409CBF13430B6070478E
:103AC00014F00F4003289FBF044B03EB00108068E5
:103AD00000F0070088BF0020704700BF00400020B2
:103AE000024B4FF0FF321A60704700BF04F50F40E1
:103AF000014B01221A6070474CF00F40094B1A68C5
:103B000012F4801F1A46F9D1043B196821F4803160
:103B100019601168C903FCD41A6842F400321A60B3
:103B2000704700BF04200D4070B5164CFEF7D6FE5E
:103B30002378154D3BB1154A296813685B1A034475
:103B4000136000232370124E686001230220316845
:103B5000637000F049FD30BF022000F029FD3060A5
:103B6000FEF7BCFE63784BB1084A074953684968C1
:103B70005B1A03445360034B00225A7001232860F0
:103B8000237070BDD0570020DC5700209C570020C8
:103B9000EC41002070B5144B1A681C4612F0030F5C
:103BA00021D0124B1A685101FBD41A685201FCD57E
:103BB0000025FEF75FFEFFF7A1FF2560022000F061
:103BC000F7FC0B4B1860FEF789FE0A4B0A495A783E
:103BD00032B10A4C4E6862685D70921B02446260AA
:103BE000012208601A7070BD58200D4004200D405D
:103BF000EC410020D0570020DC5700209C570020CB
:103C00002DE9F0413E4B1C6814F03F0413D13D4BAD
:103C100053F8243023B1984768B10134052CF6D10C
:103C2000394D2B783BB1FEF753FE0446FEF756FEA6
:103C3000201A092803D8BDE8F041FFF775BF002C12
:103C4000F9D0324B1A6822F400321A60304A1168F7
:103C5000C902FBD4196841F4803119601368DB0391
:103C6000FCD5FEF73BFE201A092803D8BDE8F04139
:103C7000FFF744BF6328274F02D92B78022B00D0CF
:103C80000123254E3B60254C0220316800F0ACFC3E
:103C9000FEF724FE2378224D3BB1224A296813689F
:103CA0005B1A034413600023237001236860637070
:103CB00000F0C0FEB8B14FF00008FFF71FFFC7F8D3
:103CC0000080022000F074FC3060FEF707FE63788D
:103CD00083B1144A696853685B1A034453600F4BFD
:103CE00083F8018006E0FEF7F3FD0028E3D030BF43
:103CF000BDE8F081012328602370BDE8F08100BF9A
:103D000048860840F0410020E355002000200D4087
:103D100004200D4058200D40EC410020D0570020D9
:103D2000DC5700209C5700200023064A52F823103D
:103D3000814206D011B942F8230070470133052BA8
:103D4000F3D17047F0410020054B00221A60054A6C
:103D5000136943F004031361034B02221A70704786
:103D600058200D4000ED00E0E355002070B5FEF74F
:103D7000B5FD114B114A0121997011499060114D07
:103D80004FF48030C1F89001C1F8900028681646C1
:103D90001C4618B100F098FE00232B60A37853B1A5
:103DA000FEF79CFD084AB16893685B1A1844024B01
:103DB000906000229A7070BDD0570020DC57002020
:103DC00000E100E0044200209C57002070B51B4B2E
:103DD0001A78431E3AB91A4A1278122A03D1194A9C
:103DE00012784B2A03D001F5201227321EE04C082E
:103DF00004F12812B2F1281F04D012F8015D03F873
:103E0000015FF7E701F5201227320023A34205DA0C
:103E100012F801690519EE540133F7E70144002354
:103E200001F8013C012301F8023C70BD064CA2429E
:103E3000F4D012F8014903F8014FF7E72B002800EE
:103E40002A00280029002800270028000FB407B501
:103E500004AA52F8041B0448019200F021F803B0B0
:103E60005DF804EB04B070476040002070B5054673
:103E70000C46102C07D92B6868680849102298470F
:103E800050B9103CF5E734B12B6868682246BDE8AC
:103E9000704002491847204670BD00BF758720005A
:103EA0002DE9F04F80468FB0069107920026069BC1
:103EB0001B78002B00F05F83069B1C4613F8012B38
:103EC0001AB9069B9C4203D10FE0252AF5D1F8E7E9
:103ED000069BD8F80400E51A0699D8F800302A465F
:103EE0009847002840F02A832E442378002B00F0C6
:103EF00042836378611C002B00F03D8300240A4656
:103F000011F8013B2B2B11D006D8202B11D0232BDD
:103F100012D144F00804F2E72D2B04D0302B0BD142
:103F200044F01004EBE744F00104E8E744F0060431
:103F3000E5E744F00204E2E7A3F1310108290DD8D6
:103F4000134600251A4613F8011BA1F13000092879
:103F500011D80A2202FB0515303DF3E72A2B09D1BF
:103F6000079B01321D68191D002D0791B8BF44F051
:103F7000010400E0002513782E2B1CD15178531C2E
:103F8000A1F1300009280ED8194600270A780B46FF
:103F9000A2F13000092801F101010FD80A2303FB27
:103FA0000727303FF2E72A2906D1931C079A111DF3
:103FB0000791176802E013464FF0FF371A786C2A12
:103FC00009D15A786C2A02D144F080040AE0013306
:103FD00044F060040BE0682A09D15A78682A03D1BA
:103FE00044F02004023302E0013344F040041A7824
:103FF000642A3CD01FD8462A48D00DD8252A5AD04A
:1040000003D8002A00F0B78257E0412A4AD0452A57
:1040100053D144F4424450E0582A31D004D8472ABE
:104020004BD144F4A13448E0612A38D0632A44D10A
:1040300044F4A06441E06E2A3AD007D8662A22D020
:1040400027D3672A28D0692A11D036E0732A2CD0CA
:1040500006D86F2A11D0702A2FD144F440742CE076
:10406000752A07D0782A28D144F4C85425E044F4AE
:10407000245422E044F410641FE044F488541CE00B
:1040800044F4B24419E044F4007416E044F4844467
:1040900013E044F4024410E044F481340DE044F4AD
:1040A000C1340AE044F4E13407E044F4806404E0FD
:1040B00044F4E06401E044F4C0640133069304F482
:1040C000E063B3F5806F00F0AA8116D8B3F5807F66
:1040D0002BD0B3F5407F7FF4EAAE079BA04914F4E0
:1040E000804F03F104029F4818BF08460DF13301C9
:1040F00007920F461A680023C5E1B3F5C06F08D0D8
:10410000B3F5E06F00F03182B3F5A06F7FF4CFAE6E
:1041100000E2D8F80030D8F804009349012298470B
:10412000002840F00B820136C1E6002FACBF24F01E
:104130001004012714F40053039304F0E00337D074
:10414000402B17D008D8DBB1202B2AD1079B1A1D92
:10415000079293F9002017E0602B11D0802B20D11B
:10416000079B073323F0070303F108020792D3E903
:1041700000230AE0079B1A1D0792B3F9002003E011
:10418000079B1A1D07921A68D317002A73F10001C2
:1041900009DA524263EB4303CDE900234FF00109F2
:1041A00033E000220023CDE900234FF000092CE08A
:1041B000402B16D007D8CBB1202B20D1079B1A1D3E
:1041C00007921A78EEE7602B10D0802B17D1079B4F
:1041D000073323F0070303F108020792D3E9002312
:1041E000E1E7079B1A1D07921A88DBE7079B00216E
:1041F0001A1D07921B681846CDE90001D5E7002279
:104200000023CDE900234FF0000904F4C053B3F5B7
:10421000805F0CD0B3F5C05F33D0B3F5006F4FD1E2
:10422000DDE900230DF1360ACDE9042304E0DDE9E0
:1042300000230DF1360A15E0DDE9042313433AD0DB
:10424000DDE904010A22002302F0C2FEDDE90401D7
:1042500030320AF8012D00230A2202F0B9FECDE91E
:104260000401E9E752EA030125D002F007013031E9
:104270000AF8011DD10841EA4371D8080A460346ED
:10428000F0E7384B14F4804F0DF1360A344908BF7B
:104290001946DDE9002352EA03000CD002F00F00BA
:1042A000085C4FEA131E0AF8010D100940EA03707A
:1042B00002467346EFE70DF1360BCAEB0B0B03E03A
:1042C0000DF1360A4FF0000B41F6080241F20803E7
:1042D0005F4502EA04028CBFCBEB070700279A4236
:1042E00002D1002F08BF012741F608018A4207EBDF
:1042F0000B030DD1DDE9000150EA010208D01B4992
:1043000014F4804F1A4A4FF0020C18BF0A4602E01C
:104310004FF0000C62460399A1B1B9F1000F0AD128
:1043200004F0060102290AD00629124904BF4FF001
:10433000010C0A4606E04FF0010C0F4A02E00F4A5A
:104340004FF0010C63449D428CBFED1A002514F020
:10435000010922D1E30613D52F444D461DE000BFCD
:104360004087200051872000738720006587200048
:10437000628720006A872000688720003586200039
:1043800040462946CDF80CC00092FFF76FFD009A19
:10439000DDF80CC0002840F0D180BCF1000F0DD03A
:1043A0001146D8F800306246D8F80400CDF800C0B5
:1043B0009847DDF800C0002840F0C0803C465E44CD
:1043C000102CD8F800300DD9D8F804006C49102210
:1043D000CDF800C09847002840F0B080103CDDF8D0
:1043E00000C0EDE75CB1D8F8040065492246CDF87D
:1043F00000C09847DDF800C0002840F09F80D8F842
:104400000030D8F8040051465A46664498470028C0
:1044100040F094803E44B9F1000F79D073E0079BDF
:10442000D3F800A01A1D0792BAF1000F09D0534625
:10443000994699F800200133002AF9D1CAEB0909FD
:1044400003E0DFF840A14FF00609002F02DBB94579
:1044500028BFB9464D458CBFC9EB0505002514F0B2
:10446000010405D140462946FFF700FD002865D12B
:10447000D8F80030D8F8040051464A46984700283A
:104480005CD14E443EE052EA030E0ED002F00F0E15
:1044900010F80EE04FEA131C01F801ED4FEA121E6E
:1044A0004EEA037E72466346EDE70B467F1A01BF74
:1044B0003022012701F1FF3301F8012C0337782264
:1044C000BD4203F8012C4FF0300203F8022C88BFE4
:1044D000ED1B4FF0230298BF002514F00104A3F157
:1044E000030903F8032C04D140462946FFF7BEFC1C
:1044F00020BBD8F80030D8F8040049463A4698471F
:10450000E0B93E4424B140462946FFF7AFFCA8B9C4
:104510002E44CCE4079B012D03F104021B688CBFE1
:1045200005F1FF35002514F0010407928DF82030C5
:1045300008D140462946FFF799FC10B14FF0FF30F3
:104540001AE02E44D8F80030D8F8040008A9012257
:1045500098470028F2D16F1C2CB140462946FFF73E
:1045600085FC0028EAD13E44A1E4079B1A1D1B6884
:1045700007921E609BE430460FB0BDE8F08F00BF8D
:10458000308720006C87200000230649002241F874
:104590002320054941F8232004495A5401330C2BA8
:1045A000F3D17047DC5700209C570020D0570020E3
:1045B00038B50A4B04461B5C094D63B1FEF78EF912
:1045C000084A55F8243052F8241042F824005B1AA7
:1045D000034445F8243055F8240038BDD057002056
:1045E0009C570020DC570020014B43F820107047F7
:1045F0009C570020F8B50388064615462BB14A2B78
:1046000015D0002303800320F8BD174803F099F963
:1046100004462CB1201DA16803F065F92468F8E771
:10462000124B01221A704A2333800120F8BD8829D9
:10463000FBD10D4803F085F90446002CF3D0231D6F
:104640009D420ED10848214603F085F9084B626966
:104650001F681A60A2691D460AB1E06990472F6081
:10466000E1E72468E9E700BF08420020E4550020A4
:104670001442002010B5064B002406481C7003F0BD
:104680005DF92146BDE81040034800F005BA00BFBF
:10469000E4550020084200206840002070B5044620
:1046A000E3610B4B049D1B786561A26143B1094D29
:1046B000094B2E68201D2B6003F015F92E6000E0D9
:1046C000A1602146BDE87040044803F058B900BF1E
:1046D000E4550020144200206840002008420020D9
:1046E00013B5034C24680094FFF7D8FF02B010BD47
:1046F0001442002010B5084B04461B781BB104304F
:1047000000F0A8F801E0C36003612146BDE8104055
:10471000024803F020B900BFE45500200842002001
:1047200010B50E4C236813B90D4A136010BDFEF787
:1047300089F8216891E80C001A44131A8A6842B17A
:1047400092E812002144091A8B4228BF0B46926856
:10475000F5E71844024B186010BD00BF0C42002062
:1047600010420020014800F0AFB900BF784000209F
:10477000F8B5038805462BB1592B09D000230380D7
:104780000320F8BD1E4A136059232B800120F8BD79
:10479000872920D08229F7D1194F00263C68002CA8
:1047A000F2D0204603F0BCF890B1E06888212246A0
:1047B00000F04AF950B9E060A3680EB1B36000E0C0
:1047C0003B600023A360FFF7ABFFE5E7FFF7CAFFFD
:1047D0002646A468E3E70A490B680BB90B60D3E7E8
:1047E000D868904201D19B68F7E70B60996800296F
:1047F000CAD0C86890420ABF89680B469960F5E73D
:104800000C42002010B50446FFF7ACFFE3680B4AEA
:104810004BB113683BB1A34203D1094A1268DA6075
:1048200007E09B68F6E7064B1B68E36013681460BB
:10483000A360BDE81040FFF773BF00BF0C4200202B
:1048400014420020024B1868003018BF0120704746
:104850000C42002010B50B4A04461368984206D15A
:104860008368136008E09A68A24203D01346002BC5
:10487000F9D103E0A2689A60FFF752FF0023A3601A
:10488000E36010BD0C42002038B5836804460D4635
:104890009BB10A4804600220A07304F10C00984701
:1048A0000238012801D9832D05D120462146BDE8D3
:1048B000384000F005B80123A37338BD144200202E
:1048C0002DE9F8431C4A0446156889462B46904654
:1048D0001A4E3768A34204D00BB11B68FAE7BDE853
:1048E000F88334B3A37BABB10023A37345B1AC42CF
:1048F00004D028468721224603F003F82D68F5E707
:10490000A3683BB14C4505D0346004F10C00832111
:104910002A469847D8F800309C4203D12268064BBB
:1049200005E0134623B11A68A242FAD122681A6040
:104930003760BDE8F88300BF184200201442002011
:1049400010B5094B00221A70084B1C685CB1E37B60
:104950003BB101230022A373E27320468221FFF7BB
:1049600093FF2468F2E710BDE755002018420020AD
:10497000024B1878421C1A70704700BFE85500209F
:10498000064B8A221A70064A00231370054A1370D8
:10499000054A1360054A1360704700BFE8550020C0
:1049A000E5550020E6550020184200201442002062
:1049B0002DE9F0411A4D2B780BB1FFF7C1FF194CCF
:1049C00022783AB3184E0C213378184F594378188F
:1049D00017F8018001334768806803F01F03013A2C
:1049E0003370227068B9124B1E689EB12B780BB1E0
:1049F000FFF7A6FF304641463A4602F082FF36688E
:104A0000F3E7B8F1810F04BF0123837341463A46AF
:104A100002F077FF2B7820781844BDE8F08100BFC2
:104A2000E7550020E6550020E55500201C420020F7
:104A300018420020024A034B10781B781844704734
:104A4000E6550020E7550020F0B50B4E3378202BBB
:104A50000FD00A4C0C252478094F1C4404F01F0485
:104A60006C4301333D19A86039556A6033700020EA
:104A7000F0BD0120F0BD00BFE6550020E555002047
:104A80001C42002038B5034C256802F03AFF25602F
:104A900038BD00BF1442002010B50A4609490C6811
:104AA000234683420DD00BB11B68FAE748B104607E
:104AB00008600121817383818121BDE81040FFF7E7
:104AC000E1BF10BD1842002038B1837B013B012BB0
:104AD0009FBF024A0123C37313707047E75500203C
:104AE000024610B5064853600468029B116093604B
:104AF000026014B90846FDF707FF002010BD00BF93
:104B00009C43002010B5084C206858B10023236056
:104B1000816843689847236823B1BDE8104018684E
:104B2000FDF7F2BE10BD00BF9C43002038B50588DC
:104B30000446672D09D0792D2ED0002D32D1FFF7F4
:104B400017FF1B4B18701B4B1D601B4802F09CFF8E
:104B5000431C01D167231DE00A28164B07D01A68B1
:104B60007E2AF2DC511C1960144B9854EDE7196849
:104B700000254A1C1A60114A0D4B555428461978D5
:104B8000FFF762FF0E4B852118682A46FFF75CFF8E
:104B900020B97923238009E0852907D1054B00221C
:104BA0001A60D2E700230380032038BD012038BDFE
:104BB00055580020A8430020A04300206A5600203A
:104BC000144200200D2810B5014615D00B4C237857
:104BD0002BB90B4802F044FF48B9012306E00A282C
:104BE00005D1074802F03CFF08B1002323700548B7
:104BF000FFF76AFF012010BD002010BD695600209C
:104C0000A04300208840002008B5054805498022BF
:104C100002F01FFFBDE8084003480021FFF73CBF3A
:104C2000A0430020E95500208840002070B5058889
:104C30000446772D30D07E2D3FD0002D4DD1FFF78B
:104C400097FE294B1870294B1D601D462B68284A7A
:104C5000264E52F823204AB126480021C1549368B9
:104C600080209847336801333360EFE7224A13709E
:104C7000772320E01F4AD256002A12DB1B4A136812
:104C800001331360194B1C4A1B6812789342F1DB05
:104C90001A4B1B68002BEBD0184A00231360134AF1
:104CA000EFE7114A00201178114A52F82320FFF74C
:104CB000CBFE30B97E23238013E00B4B1B788B4255
:104CC0000FD10A4B0B491A688B5C03F07F038B549E
:104CD0000A4A136801331360D0E7002303800320DE
:104CE00070BD012070BD00BF56580020AC430020AD
:104CF0004040002051580020EA560020B0430020D8
:104D0000094B1A780023934204DA084951F823101A
:104D1000814207D106490748CA5C62F07F02CA5443
:104D2000FFF7D2BE0133EEE7EA56002040400020F4
:104D30005158002098400020054A136843F00403AE
:104D40001360044B1B68906943EA002080B27047EF
:104D500000700D4014700D40174A136823F00C03C7
:104D60001360164B01221A601A68012AFCD1144BF9
:104D700008221A60E322C3F8142203F505731946CA
:104D8000104B1B68DB07FBD5102000230E4A0138AF
:104D9000126802F0010243EA02034FEA43039BB2A6
:104DA000F4D1002BF0D0094A180A03F0FE0310607A
:104DB0001360EF230B60704700700D40A8200D407A
:104DC00024860840648608409C86084014700D4084
:104DD00010B54378047843EA0420054B88409B5C77
:104DE000C2F1080203EA20201041C0B210BD00BF8A
:104DF000B687200010B50B4C0B4A616E04F13800E9
:104E00000023FFF76DFCFFF797FF636E074AB0FBC7
:104E1000F3F101FB130104F118000023BDE8104079
:104E2000FFF75EBCB4430020314E2000494E200005
:104E3000044B5A6E196E52008A4294BF5A665966E4
:104E4000FFF7D8BFB443002010B500F077FA00F0A8
:104E50000FFA00230380044600F032F968B1037BA7
:104E60005BB12388818804EB83025180C1880133C0
:104E70009180238002F0A2FDF0E7208880000230BC
:104E800080B200F0B3F9238823B1BDE81040024896
:104E900000F03CB810BD00BFB44300209DF80030C6
:104EA000012B04D1024B9A6D5A66FFF7A3BF7047DE
:104EB000B4430020F8B586460F4616461D46074CFB
:104EC00071462046064A00F00FF8A765E66525669C
:104ED0000448BDE8F84000F0EDB800BFB44300203E
:104EE0002C8520009D4E200070B505460C461646C8
:104EF000044A00F05BF86E612046BDE8704002494C
:104F000002F038BF34852000BF87200010B504466A
:104F100004491B2000F072FA2046BDE8104002F060
:104F200037BF00BF4A580020014802F007BD00BF4C
:104F300020440020034681800148194602F01FBD2D
:104F40002044002010B50446054802F0FAFC28B1C0
:104F50008388A34202D002F031FDF8E710BD00BF04
:104F600020440020054B10B51B689847044618B133
:104F70000120A18800F034FA204610BD20852000D1
:104F800038B5064B05465B6898470446A98801205A
:104F900000F026FA201C18BF012038BD2085200013
:104FA000014B9B68184700BF2085200070B505465F
:104FB0000C461646FFF7BEFF2E612046BDE8704046
:104FC000014902F0D7BE00BFC5872000F8B50746EB
:104FD0000A480D46164602F0B4FC044638B1A368F0
:104FE0000BB128469847204602F0E8FCF5E7384622
:104FF00029463246BDE8F84002F0D1BE24440020E4
:1050000038B5FFF7AFFF0546094802F09AFC0446A1
:1050100030B1636803B19847204602F0CFFCF6E751
:1050200025B12846BDE8384002F0B4BE38BD00BF07
:105030002444002010B50446FFF7A2FF38B100F069
:10504000F1F8034B034821469B689847012010BDA7
:10505000A4852000CD4F200070B504461C200D46CD
:1050600000F0D8F9064902F0FAFE38B1A3691B68CE
:1050700023B120462946BDE87040184770BD00BFE7
:105080004A58002070B505460C461646044AFFF7FC
:105090002BFFAE612046BDE87040024902F06ABEB7
:1050A00048852000CC872000014802F047BC00BFA3
:1050B00028440020014B1860704700BF2C4400209A
:1050C000014802F03EBC00BF284400202DE9F04119
:1050D00006460B480C46174602F033FC70B1838835
:1050E000A34208D185684DB1314622463B46AC46C5
:1050F000BDE8F041604702F061FCEFE7BDE8F081F8
:105100002844002008B5044802F05BFCBDE80840D4
:10511000024802F056BC00BFB4400020A840002066
:1051200038B50E4802F05DFC0446A8B10C4802F008
:1051300058FC0546206028B92146084802F065FC65
:10514000284638BD00F09CF805F1B801A5F88000AC
:1051500005F1820000F018F9204638BDA840002073
:10516000B440002010B504460748214602F063FC15
:1051700048B12168054802F048FC2146BDE81040CE
:10518000014802F042BC10BDA8400020B4400020FD
:1051900010B504460948214602F04DFC68B1246868
:1051A000B4F88010204600F0D9F804F1820004F130
:1051B000B801BDE8104000F0FDB810BDA8400020C7
:1051C00010B508490B888342A1BF074C80B22288E2
:1051D0001218A1BF181A088022800120B8BF002031
:1051E00010BD00BFD0550020D2550020014B1880C3
:1051F000704700BFD0550020004870475044002041
:10520000014B1888704700BFD0550020034A044B5B
:1052100010781B781844C0B2704700BFFB560020BE
:10522000D25500202DE9F0410D4B1A881D46A2B140
:105230000C4B00261F880C4B93F8008034B2BC4204
:1052400006F1010607DAFFF7E1FF084B1C44235C77
:1052500004F80830F2E700232B80BDE8F08100BF9E
:10526000D2550020D0550020FB560020504400208D
:1052700008B5FFF7CBFF014B184408BD5044002090
:10528000F8B50C4B07461C780B4B1E88A519802DD2
:105290000CDC2246094902F0A5F9FFF7E9FF3C447E
:1052A00001463246204602F09DF900E000252846DE
:1052B000F8BD00BFFB560020D05500205044002010
:1052C00008B5FFF7A3FF024B1B88184480B208BD46
:1052D000D055002010B50446FFF7F2FF2318802BAD
:1052E0000FDC013880B202B2002A04DB064B995C65
:1052F00023449954F5E7054B187820441870012091
:1053000010BD002010BD00BF50440020FB560020FF
:1053100010B507480021362202F0DAF900240548CA
:1053200005492044023402F097FD082CF7D110BD46
:10533000145800200C580020CC852000044A00237B
:105340001380044A1380044A1370FFF7E1BF00BFC3
:10535000D2550020D0550020FB56002038B50C4611
:105360000546FFF7EBFF802C28BF80242946224604
:10537000034802F037F9034B20461C8038BD00BFBC
:1053800050440020D055002010B5084B03F13402E2
:1053900053F8044B934240F8044BF9D11B88044A5C
:1053A000038013680B6053684B6010BD14580020D5
:1053B0000C58002010B5084B00F1340250F8044B93
:1053C000904243F8044BF9D102881A800B68034AD3
:1053D00013604B68536010BD145800200C58002017
:1053E000024B23F810100120704700BF1458002012
:1053F000014B33F8100070471458002008B5044BD7
:105400001B3803EB400002F027FD012008BD00BF60
:105410000C580020024B1B3803EB4000704700BFC4
:105420000C5800200148024902F019BD0E58002016
:10543000CC852000084B10B51B689847074B5B686C
:105440009847074B5B689847064B5B689847BDE8F1
:105450001040054B5B681847C88420007885200001
:10546000A48520005C8520003C85200070B5FDF7F8
:10547000E9F9044600261B200E4DFFF7CBFF0C2355
:1054800003FB0655294602F0EAFC78B10A20FFF733
:10549000AFFF2B7A834201D0002070BD6868201ACC
:1054A000B0F5206F8CBF0020012070BD0136102E9A
:1054B000E1D1F1E7D044002070B500251B20164C47
:1054C000FFF7A8FF0C2101FB054102F0C8FC6B1C93
:1054D00010B9102B1D46F1D10C225E1E02FB0343B6
:1054E000183B0C3B46B103F1180503F10C0207CA47
:1054F000013E85E80700F4E70A20FFF779FF2072F4
:10550000FDF7A0F960601B20FFF784FFBDE8704045
:105510000146014802F0A0BCD044002030B591B053
:10552000054600F0F7F94FF6FF73984202D14FF0AD
:10553000FF3081E040226846002102F0C9F83F4B6D
:105540001A782AB901221A70FFF7F6FB3C4B187043
:105550001520FFF74DFF8DF810001420FFF748FFCE
:105560008DF81200FFF75EFF044628B100238DF886
:1055700013308DF8153006E00B20FFF739FF8DF85A
:1055800015408DF81300002301248DF814308DF898
:105590001840ADB10A20FFF72BFF28B10A20FFF712
:1055A00027FF8DF81A000BE0254B1A7802B91C7002
:1055B00019780A204A1C1A708DF81A10FFF710FF8C
:1055C00002248DF8194000F0A5F9ADF81C00FFF792
:1055D00029FF38B1FF238DF817408DF800308DF882
:1055E000013008E01C20FFF715FF0146684602F075
:1055F00033FC8DF8174000F08DF9ADF81E001B202C
:10560000FFF708FF014602A802F026FCFFF730FE74
:105610000E90FFF7F5FD0F90684602F08BFD0446F3
:105620004DB1FFF757FE002881D0FFF7E5FD014699
:10563000684602F0C9FD204611B030BDFD5600207D
:10564000FC560020014BDB68184700BFA4852000F2
:10565000014B5B69184700BF78852000014B9B69AF
:10566000184700BF78852000024BD86900B1004779
:10567000704700BF7885200013B5044668B1006B01
:1056800002F05FF9024640B12146054B0548DB6850
:10569000019302B0BDE81040184702B010BD00BF32
:1056A00078852000197F200070B590F82920114BD3
:1056B000032A88BF04220124DB69944005469847E9
:1056C000002808BF0120013C444305D0FFF734FB0C
:1056D000B0FBF4F303FB1404074A05F108005388F8
:1056E0002146234453802B46BDE87040034AFEF711
:1056F000F7BF00BF788520004C5800207956200065
:105700002DE9F04107461C208846FFF783FE4A4BEF
:1057100005461A78494C22B901221A70FFF70CFB92
:105720002080238813B9454B01221A8021880A2042
:105730004B1C2380FFF754FE414802F002F9044657
:1057400040B1201D294602F08AFBD8B9204602F05C
:1057500035F9F4E73B4802F044F9044660B32946C2
:10576000201D02F079FB002304F12C00206384F853
:10577000283084F82930E36202F0E0F8304821460E
:1057800002F0FDF8206B02F012F9072810DC2E4819
:1057900002F027F90546B8B9206B02F008F938B9CC
:1057A0002748214602F0D7F82648214602F02DF975
:1057B000264A13880133138038464146BDE8F0413C
:1057C0000422012302F069BD214802F00AF9A86011
:1057D00058B3FFF7A5FC686018B30920AE68FFF75F
:1057E00007FE10B90823337203E00920FFF700FE1B
:1057F000307286E880010D20FFF7FAFD0128294666
:10580000206B02D102F0CAF801E002F0B8F8206B78
:1058100002F097F885420DD12046BDE8F041FFF730
:1058200043BF0B48A96802F0F0F82946064802F089
:10583000ECF8B1E7BDE8F0810E570020D455002008
:1058400090450020CC400020D84000204C5800203B
:10585000C040002008B5054802F0B3F8044802F043
:10586000B0F8BDE80840034802F0ABB8D8400020CB
:10587000C0400020CC4000202DE9F04714460D46E2
:105880008B6892F82870D3F80090D3F80480431EF8
:10589000012B98BF1A4A064698BF1388206B9CBFFD
:1058A0000133138002F057F86868FFF75BFCA968C2
:1058B000144802F0AAF81448294602F0A6F8206B12
:1058C00002F03FF840B1002384F8283084F82930F2
:1058D0002046FFF7E9FE0BE004F10800FEF70AFF9F
:1058E0000A48214602F037F80948214602F08DF8AF
:1058F0004846414632463B46BDE8F04702F0CDBC43
:105900004C580020C0400020D84000209045002086
:10591000CC400020014B1888704700BF1441002084
:105920002DE9F041012986B006460F46144640F3A2
:10593000868003A902F091FC03AB03CB1B88206196
:1059400023839DF8113061610BB1B51C02E0B3787F
:10595000F51CA37603A801A902AA02F042FB9DF858
:105960001380B8F1000F23D0029B23B16A7815F899
:10597000023B03EB0223B8F1020FA38309D12046B7
:10598000314902F069FA6B78237015F8023B6370B5
:1059900014E0B8F1030F11D105F108021346611E9E
:1059A00013F8010DAB4201F8010FF9D1154605E0DE
:1059B0002046254902F050FAA4F81C809DF8158075
:1059C000B8F1000F2BD0019B53B16A7815F8023B58
:1059D00003EB0223029A9BB2E3831AB9A38301E08B
:1059E000A38BE383B8F1020F0AD104F10800164932
:1059F00002F032FA6B78237215F8023B637215E0FD
:105A0000B8F1030F12D108352A46E31D04F10F0146
:105A100012F8010D03F8010F8B42F9D106E004F1F1
:105A20000800094902F018FAA4F81E80AE1BBB1B3F
:105A3000E363A563BE42D4BF3046002000E00020EF
:105A400006B0BDE8F08100BFCC8520000A4B13B53D
:105A500000241C70094B1C80FCF740FF009400F5EB
:105A600080510122064B0748FFF73AF8064B012206
:105A70001A7002B010BD00BF14570020D655002088
:105A80003D5F2000C446002017570020074B82B01E
:105A90001B784BB1064B1A7832B901221A70054BAC
:105AA0001B6A019302B0184702B0704717570020D5
:105AB00014570020C8842000094B82B01B786BB1BA
:105AC000084B1A7852B1084A127802F0FF012AB93D
:105AD0001970064B5B6A019302B0184702B0704719
:105AE000175700201457002016570020C8842000A4
:105AF00008B5FFF7E1FF024B00221A6008BD00BFA6
:105B0000C0460020044B1B7823B9044B1B680BB91B
:105B1000FFF7D2BF704700BF15570020C0460020D6
:105B2000094B00221A70094BC2B21A7082B0084A9F
:105B3000084B18B1012111701B6A01E05B6A1070FB
:105B4000019302B0184700BF1757002016570020D6
:105B500014570020C884200037B50B4B1A7802F088
:105B6000FF056AB901241C70084B1D70FCF7B6FED6
:105B7000009500F5805122460548064BFEF7B0FF20
:105B8000012003B030BD00BF17570020165700207A
:105B9000C44600203D5F200037B50A4B05461B7800
:105BA0000C466BB1FCF79AFE231A022B48BF841CEB
:105BB00000230093284621460122034BFEF790FF65
:105BC00003B030BD175700203D5F200013B5234BB5
:105BD0001A681C460AB9FFF76FFFFFF711FB03288D
:105BE00039D0FFF76DFB002835D01D4B9B689847D7
:105BF000002830DBFFF704FB68B3FFF761FB50B30D
:105C00001C20FFF707FC174902F029F968B114209E
:105C1000FFF7EEFB206068B1FFF738FF1248042160
:105C2000124A0023FEF75CFD09E0FFF7FBFB0028AA
:105C3000EDD110E0FFF740FF0B48FEF75BFDFFF7EB
:105C400015FC40B9FFF738FC094BDB68019302B043
:105C5000BDE81040184702B010BD00BFC04600208C
:105C6000988520004A580020D0460020F15A200094
:105C70005C8520002DE9F04F744E89B03378049094
:105C800023B9734B1B780BB90525DBE0FFF718FB35
:105C90000028F9D06F491B20FFF7B0FBFFF7C2FBCC
:105CA00007460C20FFF7A4FB98B1FFF709FB8246DB
:105CB000694C4FF001096568FFF79EFA5146A84705
:105CC000664DA36985F8009001939847A84678B976
:105CD00009E001210B20FFF783FB614B5B689847CC
:105CE0000028E2DAD0E7E36902939847054618B145
:105CF000002388F8003085E0FFF7DEFE337886F871
:105D00000090DBB20393049B63BB4FF00609FCF7E2
:105D1000E5FD8346FFF7BAFEFCF7E0FD6FF00303F5
:105D2000CBEB0303C342F7D463699847834648B972
:105D3000FFF7C2FE88F800B0FFF7BEFE9DF80C30FA
:105D400033705FE0FFF7B8FEFCF7C8FD8346FCF751
:105D5000C5FD6FF00F03CBEB0303C342F7D4B9F1DA
:105D60000109D4D1003718BF01270FB9FFF78EFE04
:105D70000A20FFF73DFB5FFA80FBFCF779FFFCF799
:105D8000ADFD8146FCF7AAFD364BC9EB0303C342C8
:105D900044D5FCF76DFF002F36D0A36850469847D6
:105DA000FCF79CFD02460592FCF798FD059A6FF002
:105DB0000C039B1AC342F6D4002FE3D1019B9847F2
:105DC00070B3FCF78BFD8146FCF788FD6FF0140380
:105DD000C9EB0303C342F7D4236907A803219847FB
:105DE000032826D19DF81E305B4522D100244FF0B8
:105DF0000109FFF761FE9DF80C303370002388F82D
:105E00000030D4B101251DE0049B002BC5D0FCF768
:105E100065FD154BC9EB0303C342BED4002409E062
:105E2000029B98470028CCD1636998470028C8D0C6
:105E3000A8E701244FF00009DBE71FB9994514BF1B
:105E40001D460225284609B0BDE8F08F17570020EF
:105E5000165700204A580020C884200015570020FB
:105E600098852000B0EFFFFFDEFDFFFF2DE9F04732
:105E7000074688461546002A58D02D4B1B683BB173
:105E80005068FFF785F9012238464146134621E064
:105E90001646304601F092FD04467068FFF778F927
:105EA0000C20FFF7A5FA00BB1CB114200121FFF75D
:105EB00097FA20491B20FFF7A1FA01210B20FFF7D9
:105EC0008FFA1D4B5B689847002807DA3846414631
:105ED00005220123BDE8F04702F0DFB90C200121C3
:105EE000FFF77EFA706801F0A3FF2646002CD0D1A0
:105EF000284601F063FD06466868FFF749F914205B
:105F0000FFF776FA81462046FFF7B4FE03280446E1
:105F10000CD0384641462246012302F0BEF92CB986
:105F200026B135460124B9F1000FE1D1BDE8F08773
:105F3000C04600204A5800209885200040F2B11247
:105F40002DE9F3476B4C80462388934218D0B3F574
:105F5000D97F07D2002B40F0BC80FCF7BFFC664B1A
:105F6000186008E040F2E312934235D040F202227A
:105F7000934240F0AE80614A00231370604A02E011
:105F80005F4A1378013313705D4B1B78012B16D8D1
:105F90005C4B1A78002A40F0A3805B4A1268002A02
:105FA00040F09E801B780BB9FFF770FD574B5B6983
:105FB0009847002840F09280504B01221A704F4BB6
:105FC0001B78002B71D0FCF789FC514B514A1860AB
:105FD00000231370504A13704A4BDFF848911B7826
:105FE000002B4BD199F80030002B47D0FCF776FC02
:105FF000474B1A686FF4CC739B1AC3423ED5434D8E
:10600000444F6B69984718B13B7801333B7000E00F
:106010003870414ED5F818A0337801333370D0472B
:1060200008B100233B703B78052B02D9FFF76AFDCE
:1060300024E033780A2B05D9D04718B9EB69984783
:106040000028F3D0EB699847C0B9344B1B7893B163
:10605000D8F80050FCF742FC05F114062D1A15F192
:10606000120F48BF861C0023009340463146012290
:106070002B4BFEF735FD40F2E3132BE099F800308F
:106080009BB1224DAB69984748B1FCF727FC204BE8
:106090001A686FF4CC739B1AC34204D505E0EB6910
:1060A00098470028F1D1FFF72DFD134D2B6803F51C
:1060B00080532B60FCF712FC2B68C3F1A003C34292
:1060C0007FF559AF29684046FFF766FD40F202238D
:1060D00000E00023238002B0BDE8F087FFF712FD47
:1060E000FCF7FCFB00F110014046FFF755FD40F2C4
:1060F000B113EFE7D6550020BC4600201157002011
:106100001257002015570020C0460020C8842000E8
:10611000F046002018570020135700201757002082
:106120003D5F20001457002008B5024B1B689847BC
:10613000023008BD5085200038B50C4B9B6898474D
:10614000041E02DA4FF0FF3038BDFFF791F80378F4
:106150000546002BF6D10220FFF732F80028F1D0D7
:106160006878FFF743F8A01C38BD00BF50852000B9
:1061700070B50220FFF7AEF810B94FF0FF3070BDD8
:10618000FFF73AF8002505700446FFF739F860700C
:10619000FFF796F80446FFF7C7FF20442A2812DCD1
:1061A000C0F12B00C4B2FFF763F80646FFF728F8EA
:1061B00029462246304401F08BFAFFF721F82044AB
:1061C00080B2FFF713F8044B5B689847041ED4DBDA
:1061D000FFF728F8A01C70BD50852000014B9B687C
:1061E000184700BF3C85200070B505460C461520B9
:1061F0000121FFF7F5F8034B28462146BDE8704022
:106200009B6818475C8520000B46024809785A783D
:10621000FDF71CBEEE8720002DE9F84F06460388E7
:1062200040F20F10834235D0B3F5887F01D273B3AB
:1062300061E0B3F5917F00F02C8140F2411293426E
:1062400000F0A08057E004222868964902F099F8EF
:1062500095489449FDF7FAFD944F954BC7F8009087
:10626000994600221A7088F800202578DFF854A299
:106270000A2D40F2DC8099F800300021994240F06C
:10628000FD800A2321708B485943FDF7DFFD40F262
:106290000F132EE0852940F0F880874B12881A8072
:1062A0001A78864B1A70864B00221A60854B0022A2
:1062B0001A70844D824F2C78AA460A2C23D87F4B23
:1062C000814819785C7041EA042100F063FB7F4B40
:1062D0002A7843F8240053F82210386800F084FB31
:1062E0007B4B3860852118680022FEF7ADFB4FF428
:1062F0009173338004E0002333800320BDE8F88FDE
:106300000120BDE8F88F734C4FF000080023C4F85B
:1063100000802B709AF800906A4DB9F10A0F1FD8CF
:106320006A4B396853F8290000F01AFDDFF8BCB158
:106330005C4904224BF8290002F023F82978594AD5
:106340006548FDF783FD95F8009020685BF82910FB
:1063500000F04AFB09F10109206085F80090D9E7B7
:10636000042220684F4902F00CF85C484D49FDF7C3
:106370006DFD514BC7F800805A78504B1A700023BE
:106380002B7005E08529BBD14E4A13780133137079
:106390004C4F3D783C460A2D1BD8484B5048197845
:1063A0005D7041EA052100F0F5FA4E4B3A78444C15
:1063B00043F8250053F82210206800F015FB444BE9
:1063C0002060852118680022FEF73EFB40F2411351
:1063D0008FE7404D4FF000090023C5F800903B7057
:1063E0002778DFF8E0800A2F3FF62DAF3D4BDFF82E
:1063F00000A153F82700324B196800F0B1FC29497D
:1064000004224AF8270001F0BCFF98F80010254A42
:106410003548FDF71BFD98F8007028685AF82710DA
:1064200000F0E2FA0137286088F80070D8E72F4BB7
:10643000DFF8C88053F825002D4B53F8251000F0E5
:10644000DBFB1849042248F8250001F09AFF9AF86E
:1064500000102848134AFDF7F9FC9AF800503968F3
:1064600058F82580404600F083FD20B10F4B89F895
:106470000050C3F8008001352570F6E60131C9B23D
:106480000A297FF6FBAE217001E71B4801F0D2F923
:10649000FDE685297FF434AF0A4A1378013313707F
:1064A00007E700BF305700205588200080480020B3
:1064B0004457002083882000465700202D57002095
:1064C000BC4800202F57002098892000CC4700208E
:1064D0001442002084480020158820002A882000CB
:1064E000508B200028480020408820008C48002045
:1064F000544800206B88200090882000FC47002032
:106500002DE9F84303880546002B00F0A380C32B38
:1065100004D0002303800320BDE8F883852940F0E0
:10652000A480114653485022534C01F05BF80123DC
:1065300023702678282E45D8701E00F009FB4F499D
:1065400000F05AFB4E4900F00BFCDFF860818146F9
:10655000C8F80000304600F0F7FA484900F04CFB5C
:10656000474900F0FDFB474F424E386046494846D8
:10657000022201F006FFB06B4449022201F001FF44
:1065800038684349022201F0FCFEB66BD8F80010CF
:10659000304600F0E3FC002861D03046396800F056
:1065A000C9FC00285BD0344B3A4E1B783649013B7E
:1065B00033703948354A364BFDF748FC3748317857
:1065C000FDF744FC012323702678282E3DD8701E49
:1065D00000F0BEFA2A4900F0C3FBDFF8D080814604
:1065E000C8F80000304600F0AFFA254900F0B8FBCB
:1065F000244F204E386024494846022201F0C1FE53
:10660000F06B2249022201F0BCFE386820490222C8
:1066100001F0B7FEF66BD8F80010304600F09EFC93
:1066200000B33046396800F085FCD8B1124B194CE4
:106630001B781549013B63701748144A144BFDF74A
:1066400005FC17486178FDF701FC16488521114AC1
:10665000FEF7FAF9C3232B800120BDE8F8832378E5
:10666000013365E723780133ADE70F4801F0E2F825
:10667000F0E700BF1C470020455700209A79A84446
:1066800000002042F4460020845700204857002094
:106690005C57002098570020BC882000CE8820003E
:1066A000DF882000F4400020F0882000B848002057
:1066B00073B51C200D461646FEF7ACFE064904468F
:1066C00001F0CDFB30B921786278044800962B4662
:1066D000FDF7BCFB02B070BDCC8520001D892000F9
:1066E000024B00221A805A80704700BF4C5800208D
:1066F0002DE9F84F0488064634B17C2C19D00023CC
:1067000003800320BDE8F88F58489221584AFEF7CD
:10671000B9FC584801F08EF8574B1C80FFF7E0FF9A
:10672000FEF70AFBC1B2554801F0DDF87C23338047
:1067300003E0524801F0E0F810B90120BDE8F88FFD
:106740004F4C05214F48FEF709FE012323702046D8
:1067500000234D49637001F082FB0028E0D1464DD3
:106760002146424801F039FB2C8805230134A4B2AC
:10677000B4FBF3F303EB8303E31A9BB22C80002BEF
:10678000CED1424FDFF83C81788800F0DDF94049F6
:1067900000F032FA4FF0705100F02EFA3D4900F04F
:1067A000DFFA3D4B81461860388800F0CDF9394951
:1067B00000F0D6FA394B052C824618609B46384FBC
:1067C00003D1C8F8009038601DE03649484600F013
:1067D00013FA35490446D8F8000000F00DFA0146D6
:1067E000204600F001F92F49C8F80000504600F09B
:1067F00003FA2D490446386800F0FEF901462046A8
:1068000000F0F2F83860294CD8F800304846A3630D
:106810003B6827490222E363C4F80490C4F800A04F
:1068200001F0AFFDD8F800002249022201F0A9FDD5
:10683000204B29881E4A2048FDF708FBDBF80000A2
:106840001B49022201F09DFD38681A49022201F01D
:1068500098FD2988164A174B1848FDF7F7FA852145
:1068600022461748FEF7F0F858E700BFF846002028
:10687000C485200053892000D8550020BC47002043
:10688000DA550020618920004A5800204C58002029
:1068900000007A440000A040144700201847002060
:1068A000884800203333333F9A99993E6C47002043
:1068B0001957002070570020678920007689200032
:1068C000E4400020F84700202DE9F04F074685B04E
:1068D00001AE0B228A463046002100F0F9FE384610
:1068E000314601F0F9FC00250AEB850907EB0508A4
:1068F000002418F8040000F027F94FF07E5100F052
:1069000073F88346305D00F01FF9094900F06CF818
:106910000146584600F024FA49F8240001340B2CB3
:10692000E7D10B35B5F5DC7FDED105B0BDE8F08FE2
:10693000000020422DE9F043064685B001AD0B2250
:106940000F462846002100F0C3FE3046294601F0DC
:10695000C3FC0024304601F0CFFC8146285D00F0E6
:10696000F3F84FF07E5100F03FF88046484600F0C3
:10697000EBF8074900F038F80146404600F0F0F91E
:1069800047F8240001340B2CE4D105B0BDE8F083B6
:1069900000003041F7B507460D4D0E4CC1F30726F8
:1069A000ADF804102946FFF7C5FF38462146FFF72A
:1069B0008BFF9DF804300B2202FB036355F8260081
:1069C00054F8231000F018F9034B186003B0F0BD21
:1069D000A04F0020C0480020CC4F002080F0004095
:1069E00002E000BF81F0004142001FBF5FEA4103A7
:1069F00092EA030F7FEA226C7FEA236C6AD04FEAA7
:106A00001262D2EB1363C1BFD218414048404140EB
:106A1000B8BF5B42192B88BF704710F0004F40F49D
:106A2000000020F07F4018BF404211F0004F41F4B9
:106A3000000121F07F4118BF494292EA030F3FD085
:106A4000A2F1010241FA03FC10EB0C00C3F1200398
:106A500001FA03F100F0004302D5494260EB400027
:106A6000B0F5000F13D3B0F1807F06D340084FEA92
:106A7000310102F10102FE2A51D2B1F1004F40EB87
:106A8000C25008BF20F0010040EA030070474900EF
:106A900040EB000010F4000FA2F10102EDD1B0FABA
:106AA00080FCACF1080CB2EB0C0200FA0CF0AABFAF
:106AB00000EBC25052421843BCBFD040184370474D
:106AC00092F0000F81F4000106BF80F40000013253
:106AD000013BB5E74FEA41037FEA226C18BF7FEA2A
:106AE000236C21D092EA030F04D092F0000F08BF6C
:106AF0000846704790EA010F1CBF0020704712F053
:106B00007F4F04D1400028BF40F00040704712F191
:106B100000723CBF00F50000704700F0004343F0F6
:106B2000FE4040F4000070477FEA226216BF08462C
:106B30007FEA23630146420206BF5FEA412390EAEF
:106B4000010F40F4800070474FF0000304E000BFE5
:106B500010F0004348BF40425FEA000C08BF704796
:106B600043F0964301464FF000001CE050EA01025A
:106B700008BF70474FF000030AE000BF50EA01026F
:106B800008BF704711F0004302D5404261EB41015C
:106B90005FEA010C02BF84460146002043F0B64381
:106BA00008BFA3F18053A3F50003BCFA8CF2083AA6
:106BB000A3EBC25310DB01FA02FC634400FA02FCAF
:106BC000C2F12002BCF1004F20FA02F243EB0200B6
:106BD00008BF20F00100704702F1200201FA02FC18
:106BE000C2F1200250EA4C0021FA02F243EB02000B
:106BF00008BF20EADC7070474FF0FF0C1CEAD0524F
:106C00001EBF1CEAD15392EA0C0F93EA0C0F6FD00F
:106C10001A4480EA010C400218BF5FEA41211ED0ED
:106C20004FF0006343EA501043EA5111A0FB0131D9
:106C30000CF00040B1F5000F3EBF490041EAD371AE
:106C40005B0040EA010062F17F02FD2A1DD8B3F12A
:106C5000004F40EBC25008BF20F00100704790F099
:106C6000000F0CF0004C08BF49024CEA502040EAEB
:106C700051207F3AC2BFD2F1FF0340EAC2507047B1
:106C800040F400004FF00003013A5DDC12F1190FEF
:106C9000DCBF00F000407047C2F10002410021FA61
:106CA00002F1C2F1200200FA02FC5FEA310040F179
:106CB000000053EA4C0308BF20EADC70704792F0F2
:106CC000000F00F0004C02BF400010F4000F013A2A
:106CD000F9D040EA0C0093F0000F01F0004C02BF25
:106CE000490011F4000F013BF9D041EA0C018FE794
:106CF0000CEAD15392EA0C0F18BF93EA0C0F0AD09A
:106D000030F0004C18BF31F0004CD8D180EA0100BF
:106D100000F00040704790F0000F17BF90F0004F58
:106D2000084691F0000F91F0004F14D092EA0C0F3A
:106D300001D142020FD193EA0C0F03D14B0218BFCD
:106D4000084608D180EA010000F0004040F0FE4013
:106D500040F40000704740F0FE4040F440007047AF
:106D60004FF0FF0C1CEAD0521EBF1CEAD15392EA2E
:106D70000C0F93EA0C0F69D0A2EB030280EA010C1E
:106D800049024FEA402037D04FF0805343EA1111B7
:106D900043EA10130CF000408B4238BF5B0042F115
:106DA0007D024FF4000C8B4224BF5B1A40EA0C00BA
:106DB000B3EB510F24BFA3EB510340EA5C00B3EBEC
:106DC000910F24BFA3EB910340EA9C00B3EBD10FDA
:106DD00024BFA3EBD10340EADC001B0118BF5FEA2C
:106DE0001C1CE0D1FD2A3FF650AF8B4240EBC25055
:106DF00008BF20F0010070470CF0004C4CEA502016
:106E00007F32C2BFD2F1FF0340EAC250704740F464
:106E100000004FF00003013A37E792F0000F00F056
:106E2000004C02BF400010F4000F013AF9D040EAD4
:106E30000C0093F0000F01F0004C02BF490011F468
:106E4000000F013BF9D041EA0C0195E70CEAD15360
:106E500092EA0C0F08D142027FF47DAF93EA0C0F47
:106E60007FF470AF084676E793EA0C0F04D14B022B
:106E70003FF44CAF08466EE730F0004C18BF31F0DD
:106E8000004CCAD130F000427FF45CAF31F00043D7
:106E90007FF43CAF5FE700BF4FF0FF3C06E000BF70
:106EA0004FF0010C02E000BF4FF0010C4DF804CD93
:106EB0004FEA40024FEA41037FEA226C18BF7FEAA3
:106EC000236C11D001B052EA530C18BF90EA010FA5
:106ED00058BFB2EB030088BFC81738BF6FEAE17034
:106EE00018BF40F0010070477FEA226C02D15FEAD0
:106EF000402C05D17FEA236CE4D15FEA412CE1D03C
:106F00005DF8040B704700BF844608466146FFE702
:106F10000FB5FFF7C9FF002848BF10F1000F0FBDE4
:106F20004DF808EDFFF7F4FF0CBF012000205DF8DD
:106F300008FB00BF4DF808EDFFF7EAFF34BF012062
:106F400000205DF808FB00BF4DF808EDFFF7E0FFFB
:106F500094BF012000205DF808FB00BF4DF808ED4C
:106F6000FFF7D2FF94BF012000205DF808FB00BFAF
:106F70004DF808EDFFF7C8FF34BF012000205DF891
:106F800008FB00BF4FEA4002B2F1FE4F0FD34FF0B3
:106F90009E03B3EB12620DD94FEA002343F0004386
:106FA00010F0004F23FA02F018BF404270474FF034
:106FB0000000704712F1610F01D1420205D110F0BB
:106FC000004008BF6FF0004070474FF0000070476E
:106FD00053B94AB9002908BF00281CBF4FF0FF3140
:106FE0004FF0FF3000F03CB882B0EC462DE9005085
:106FF00000F01EF8DDF804E002B00CBC704700BFE2
:107000002DE9F041069C904606460F461D4600F0CD
:1070100029F808FB01FCA8FB002300FB05C5B21AF8
:107020002B4467EB03038646C4E90023BDE8F081E7
:107030002DE9F843089E1746804689461D4600F014
:1070400067F900FB05F3A0FB074507FB0137B8EB29
:1070500004043D4469EB0505C6E90045BDE8F88335
:10706000704700BF00292DE9F043C0F2A880002638
:10707000002BC0F29E8081468E4690469C46174665
:1070800004460D46002B3DD18A4259D9B2FA82F30B
:107090003BB1C3F120029D4020FA02F29F4015430C
:1070A0009C40390CB5FBF1F01FFA87FE01FB10552F
:1070B0000EFB00F3220C42EA0545AB4209D9ED195B
:1070C00000F1FF3280F00B81AB4240F208810238C0
:1070D0003D44ED1AB5FBF1F301FB13550EFB03FE26
:1070E000A4B244EA0545AE4508D9ED1903F1FF32D3
:1070F00080F0F780AE4540F2F480023B43EA004363
:10710000002203E08B420FD900221346341C18BF23
:10711000012460424FF0000565EB450158405140A5
:1071200000196941BDE8F083B3FA83F2002A40F008
:1071300089808B4202D3804500F2E2800123E5E79B
:1071400012B90123B3FBF2F7B7FA87F8B8F1000FD1
:107150003BD1ED1B4FEA174C1FFA87FE0122B5FB0E
:10716000FCF00CFB10550EFB00F3210C41EA054529
:10717000AB4207D9ED1900F1FF3102D2AB4200F268
:10718000C3800846ED1AB5FBFCF30CFB13550EFB50
:1071900003FEA4B244EA0545AE4507D9ED1903F153
:1071A000FF3102D2AE4500F2AD800B4643EA004308
:1071B000ACE752426FEA060663EB43035BE74042EB
:1071C00061EB41014FF0FF3652E707FA08F7C8F1CB
:1071D000200225FA02F34FEA174CB3FBFCF11FFA29
:1071E00087FE0CFB113324FA02F205FA08F50EFBB8
:1071F00001F92A43100C40EA0343994504FA08F4C4
:1072000007D9DB1901F1FF3078D2994576D90239D7
:107210003B44C9EB0303B3FBFCF00CFB10330EFB48
:1072200000F592B242EA03439D4207D9DB1900F10F
:10723000FF325FD29D425DD902383B445D1B40EA7C
:1072400001428CE7C2F1200328FA03F10CFA02FC98
:1072500041EA0C0C4FEA1C402EFA03F1B1FBF0F5A9
:107260001FFA8CF700FB151129FA03F30EFA02FE40
:1072700007FB05F943EA0E0E4FEA1E4343EA0141BC
:10728000894508FA02F808D911EB0C0105F1FF3322
:1072900032D2894530D9023D6144C9EB0101B1FBCD
:1072A000F0F300FB131107FB03F71FFA8EFE4EEA03
:1072B000014E774508D91EEB0C0E03F1FF3117D2B2
:1072C000774515D9023BE64443EA0543A3FB088909
:1072D000C7EB0E0ECE4509D305D0002216E71046A7
:1072E000F7E613460AE794404445F6D2013BF4E73B
:1072F0000B46E9E71046A1E71D46CEE7014688E7C1
:10730000134603E7023B51E702383D443AE700BF2A
:107310002DE9F043002B44D18A42154604464FD94B
:10732000B2FA82F70E464FB1C7F12003B94020FAF6
:1073300003F602FA07F50E4300FA07F42F0CB6FB2A
:10734000F7F01FFA85FE07FB10620EFB00F1260C1A
:1073500046EA0243994209D95B1900F1FF3280F0F5
:10736000EE80994240F2EB8002382B44591AB1FB6F
:10737000F7F307FB13110EFB03FEA4B244EA01412D
:107380008E4508D9491903F1FF3280F0DA808E4525
:1073900040F2D780023B43EA004000263146BDE878
:1073A000F0838B4247D8B3FA83F6002E48D18B4244
:1073B00002D3824200F2CF8001203146BDE8F08343
:1073C00012B90125B5FBF2F5B5FA85FCBCF1000F49
:1073D00078D1491B2F0C1FFA85FE0126B1FBF7F06F
:1073E00007FB10110EFB00F2230C43EA01418A4215
:1073F00007D9491900F1FF3302D28A4200F2BC805A
:107400001846891AB1FBF7F307FB13110EFB03FEB5
:10741000A4B244EA0142964508D9521903F1FF315A
:1074200080F09180964540F28E80023B43EA004016
:107430003146BDE8F083002630463146BDE8F08392
:10744000C6F1200422FA04F5B3402B4321FA04F7D5
:107450004FEA1348B7FBF8FC1FFA83F908FB1C77C7
:1074600020FA04FE01FA06F509FB0CF44EEA0505C4
:107470004FEA154E4EEA0747BC4202FA06F204D91B
:10748000FF180CF1FF3168D38C463F1BB7FBF8F4B3
:1074900008FB147709FB04F9ADB245EA07418945B9
:1074A00004D9C91804F1FF355DD32C4644EA0C44D5
:1074B000A4FB0223C9EB0101994249D345D02046E0
:1074C00000266BE7CCF1200405FA0CF521FA04F351
:1074D0002A0CB3FBF2F61FFA85FE02FB163820FADF
:1074E00004F701FA0CF10EFB06F90F433C0C44EAD9
:1074F0000843994500FA0CF407D95B1906F1FF31EE
:1075000038D2994536D9023E2B44C9EB0303B3FB6D
:10751000F2F002FB10330EFB00F1BFB247EA034367
:10752000994207D95B1900F1FF3721D299421FD93F
:1075300002382B441746591A40EA06464EE71046D1
:1075400014E7134627E70B4670E7B0409042B6D2E7
:10755000601E002622E7304620E7BC4294D9ACF1F9
:10756000020C1F4491E789459FD9023C19449DE7CD
:107570003846DFE70E46C8E70238294441E700BF36
:10758000032A70B426D940EA01039B0711D004787E
:107590000D78AC4222D10244431C05E013F8014BA4
:1075A00011F8015FAC4219D19342F7D1002070BCB1
:1075B00070470C4603461E6825681846AE422146B1
:1075C00003F1040304F1040404D1043A032A184625
:1075D0002146F0D8002ADAD11046E8E7601B70BCDB
:1075E000704700BF844641EA000313F0030349D10A
:1075F000403A23D30B6803604B6843608B68836019
:10760000CB68C3600B6903614B6943618B6983611C
:10761000CB69C3610B6A03624B6A43628B6A836204
:10762000CB6AC3620B6B03634B6B43638B6B8363EC
:10763000CB6BC36340304031403ADBD230320BD3A6
:107640000B6803604B6843608B688360CB68C360E2
:1076500010301031103AF3D20C3205D351F8043BFC
:1076600040F8043B043AF9D2043208D0D2071CBFD8
:1076700011F8013B00F8013B01D30B880380604601
:10768000704700BF082A13D38B07B1D010F0030353
:10769000AED0C3F10403D21ADB071CBF11F8013BC3
:1076A00000F8013BA4D331F8023B20F8023B9FE7EE
:1076B000043AD9D3013A11F8013B00F8013BF9D261
:1076C0000B7803704B7843708B78837060467047FB
:1076D00070B4840746D0541E002A41D0CDB2034670
:1076E00002E0621EE4B3144603F8015B9A07F8D186
:1076F000032C2ED9CDB245EA05250F2C45EA0545C8
:1077000019D9264603F11002103E0F2E42F8105CE4
:1077100042F80C5C42F8085C42F8045C02F110028A
:10772000F2D8A4F1100222F00F0204F00F0410327C
:10773000032C13440DD91E462246043A032A46F868
:10774000045BFAD8221F22F003020432134404F02F
:1077500003042CB1C9B21C4403F8011BA342FBD1A2
:1077600070BC704714460346C2E700BFFEE708B589
:10777000FAF78CFD73B50646002425463046FAF725
:10778000E1FE00230193019BAB4203DA00BF019BA2
:107790000133F7E73046FAF7DDFE00230193019A43
:1077A000C5F5C8739A4203DA00BF019B0133F5E7C0
:1077B0000134B4F5487F05D0B4F5C87FDDDDC4F5EC
:1077C0004875DBE702B070BDFAF778BF704700205C
:1077D000FBF704B90120FBF701B90020FBF7DCBA85
:1077E0000120FBF7D9BA0220FBF7D6BA0320FBF73A
:1077F000D3BA10B50C46FBF721FC2046BDE810407B
:10780000FBF70EBE10B504460020E1B2FBF716FAF6
:10781000204610BD70B5054604464618601B44B1AD
:10782000237833B1B44204D018460134FFF7EAFF9D
:10783000F4E770BD38B50546002415F8010B20B1FA
:10784000FFF7E0FF0134002DF7D10A20FFF7DAFF40
:10785000204638BD002070470120704710B504460F
:1078600000210E203022FBF703FB84B1012C0CD148
:1078700042F210730011A0F28E5058432A2390FB5D
:10788000F3F000F5C340283010BD4FF0004010BDAC
:10789000002070470120704710B5044600210F20DA
:1078A0003022FBF7E5FA5CB1012C07D140F6F25328
:1078B000584347F6F07390FBF3F010BD4FF00040D3
:1078C00010BD08B51AB108461146FFF7A3FF002006
:1078D00008BD10B5041F54F8040F18B10021FDF7BE
:1078E000DBF8F8E710BD10B5044600F012F82046AA
:1078F000BDE81040FCF786BFC068B0FA80F04009D0
:107900007047837BDB0701D5FCF7BEBF7047FFF7ED
:107910005DBF10B541600446FAF794FF206010BDCA
:1079200010B50446FAF78EFF2368C3F10103034440
:10793000606898422CBF0020012010BD0023036026
:10794000704700687047006800B9704703680BB162
:107950001846FBE77047036810B57BB100228B42E5
:1079600007D10B680AB9036000E0136000230B60C5
:1079700010BD1C681A460CB12346F0E710BD38B59F
:1079800005460C46FFF7E7FF002323602846FFF774
:10799000DAFF08B92C6038BD046038BD38B504463C
:1079A0000D46FFF7D8FF23682B60256038BD0368BC
:1079B000002013B101301B68FBE7704700B100687D
:1079C000704710B50446002162884068FFF780FECA
:1079D00023886288A06800215A43BDE81040FFF761
:1079E00077BE10B5418800238B420CDA4268D41868
:1079F000D25C32B9012222700188826801FB032027
:107A000010BD0133F0E7002010BD30B58268448816
:107A10000023A3420DDA8A4207D14168CA5C0AB149
:107A2000013ACA544268D05C30BD058801332A440B
:107A3000EFE7FF2030BD8268914208D34388008879
:107A400000FB032081422CBF002001207047002052
:107A500070470023013A01600271437183717047DE
:107A600010B5427983790479D31A2340A3421FBF0A
:107A70000368995443795A1C1FBF0379134043711B
:107A8000012008BF002010BD837942790179D21A04
:107A90000A421FBF0268D25C01330B401ABF8371D8
:107AA00010464FF0FF307047831C0020023313F85C
:107AB000042C1AB113F8032C1044F7E77047072B76
:107AC0002DE9F8430746884614461D4607DC08465C
:107AD00011461A46FDF77CF93870BDE8F8834FEA85
